:100000000C94761B0C94A71B0C94A71B0C94A71B99
:100010000C94A71B0C94A71B0C94A71B0C94A71B58
:100020000C94A71B0C94A71B0C94A71B0C94A71B48
:100030000C94A71B0C94E7FA0C94A71B0C94A71B19
:100040000C94A71B0C94DDE40C94A71B0C94A71B29
:100050000C94A71B0C94A71B0C9487D80C94BFFE80
:100060000C94A71B0C940E980C94A71B0C94A71B24
:100070000C94A71B0C94A71B0C94A71B0C94A71BF8
:100080000C94A71B0C94A71B0C94A71B0C94A71BE8
:100090000C94A71B0C94A71B0C94A71B0C94A71BD8
:1000A0000C94A71B0C94A71B0C94A71B0C94A71BC8
:1000B0000C94A71B0C94A71B0C94A71B0C94A71BB8
:1000C0000C94A71B0C94A71B0C94A71B0C94A71BA8
:1000D0000C94A71B0C94A71B0C94A71B0C94A71B98
:1000E0000C94A71B084AD73B3BCE016E84BCBFFDD6
:1000F000C12F3D6C74319ABD56833DDA3D00C77FF8
:1001000011BED9E4BB4C3E916BAAAABE0000008090
:100110003F05A84CCDB2D44EB93836A9020C50B91F
:10012000918688083CA6AAAA2ABE000000803F004B
:100130000D9486130D9468134E414E494E495459FF
:10014000494E46CDCCCC3D0AD7233C17B7D13877A2
:10015000CC2B329595E6241FB14F0A0000204100B8
:1001600000C84200401C4620BCBE4CCA1B0E5AAE02
:10017000C59D74434F4D4D554E49434154494F4ED3
:100180000044525952554E004552524F5253004965
:100190004E464F004543484F002569730025696D61
:1001A00020256973002569682025696D20256973FC
:1001B00000256964202569682025696D20256973FB
:1001C0000025697920256964202569682025696DE5
:1001D00020256973004B494C4C45442E2000535454
:1001E0004F505045442E20005072696E7465722045
:1001F00073746F707065642064756520746F20651A
:1002000072726F72732E204669782074686520655B
:1002100072726F7220616E6420757365204D39397A
:100220003920746F20726573746172742E202854A3
:10023000656D706572617475726520697320726591
:100240007365742E2053657420697420616674652B
:10025000722072657374617274696E67290A004E48
:100260006F20436865636B73756D207769746820D0
:100270006C696E65206E756D6265722C204C6173C1
:1002800074204C696E653A2000636865636B737512
:100290006D206D69736D617463682C204C6173749B
:1002A000204C696E653A20004C696E65204E756D74
:1002B000626572206973206E6F74204C61737420C4
:1002C0004C696E65204E756D6265722B312C204C29
:1002D000617374204C696E653A20004D31313000F5
:1002E0004D33310053442072656164206572726F32
:1002F000720A00446F6E65207072696E74696E6771
:100300002066696C650A0020706F736974696F6E8E
:10031000206F7574206F662072616E67652E0A000B
:100320003F50726F626520000A0A426564204C6586
:1003300076656C20436F7272656374696F6E204DD1
:1003400061747269783A00202B000A436F727265FB
:100350006374656420426564204865696768742039
:1003600076732E2042656420546F706F6C6F6779CE
:100370003A0A00202B000A426564204865696768D4
:100380007420546F706F6772617068793A0A202028
:10039000202B2D2D2D204241434B202D2D2B0A208B
:1003A00020207C20202020202020202020207C0AAB
:1003B000204C207C20202020282B29202020207C3D
:1003C00020520A2045207C20202020202020202090
:1003D00020207C20490A2046207C20282D29204EE0
:1003E00020282B29207C20470A2054207C202020F4
:1003F00020202020202020207C20480A2020207C33
:1004000020202020282D29202020207C20540A2054
:1004100020207C20202020202020202020207C0A3A
:100420002020204F2D2D2046524F4E54202D2D2B75
:100430000A2028302C30290A004D65616E206F6635
:100440002073616D706C656420706F696E74733AAF
:10045000200020643A200020623A200045716E207E
:10046000636F656666696369656E74733A20613AA5
:100470002000202844525952554E29004732392035
:100480004175746F20426564204C6576656C696EB9
:10049000670028422961636B00284629726F6E74D9
:1004A000002852296967687400284C296566740021
:1004B0003F4E756D626572206F662070726F626567
:1004C00020706F696E747320697320696D706C6140
:1004D000757369626C65202832206D696E696D756F
:1004E0006D292E0A003F2856296572626F736520B8
:1004F0006C6576656C20697320696D706C617573CD
:1005000069626C652028302D34292E0A0044656C00
:100510006574696F6E206661696C65642C2046693C
:100520006C653A200046696C652064656C6574658D
:10053000643A006F70656E206661696C65642C209A
:1005400046696C653A20006D0046696C616D656EA8
:100550007420757365643A200053746174733A2093
:10056000002C204C6F6E67657374206A6F623A20AE
:1005700000546F74616C2074696D653A2000537487
:100580006174733A20002C204661696C65643A20DE
:10059000002C2046696E69736865643A20005072C9
:1005A000696E74733A200053746174733A20004882
:1005B000656174696E6720646F6E652E0020573A1E
:1005C0000045256920257300205A3A0020423A0050
:1005D00020436F756E7420413A0020453A00205A3E
:1005E0003A0020593A00583A003A004361703A0004
:1005F00023646566696E65202044454641554C5428
:100600005F4B64200023646566696E652020444565
:100610004641554C545F4B69200023646566696E02
:1006200065202044454641554C545F4B7020005096
:100630004944204175746F74756E652066696E69F2
:1006400073686564212050757420746865206C613E
:100650007374204B702C204B6920616E64204B64B6
:1006600020636F6E7374616E74732066726F6D2099
:1006700062656C6F7720696E746F20436F6E666978
:100680006775726174696F6E2E680A005049442064
:100690004175746F74756E65206661696C6564215F
:1006A0002074696D656F75740A00544845524D4158
:1006B0004C2052554E4157415900546865726D6146
:1006C0006C2052756E617761790048656174696E5E
:1006D00067206661696C65640048656174696E676E
:1006E000206661696C656400504944204175746FEF
:1006F00074756E65206661696C6564212054656D52
:10070000706572617475726520746F6F20686967B7
:10071000680A00204B643A2000204B693A200020F0
:100720004B703A20000A20436C6173736963205058
:100730004944200A002054753A2000204B753A2085
:1007400000206D61783A2000206D696E3A2000200B
:10075000643A200020626961733A200020746F6F50
:10076000206C6F6E6720657874727573696F6E2088
:1007700070726576656E7465640A0020636F6C64E0
:1007800020657874727573696F6E20707265766516
:100790006E7465640A0047322F473320626164201B
:1007A000706172616D65746572730A00536C656582
:1007B000702E2E2E00205A3A200020593A20004256
:1007C000656420583A2000526573756D696E672024
:1007D0007072696E74005A39465F544954414E2014
:1007E00072656164792E00436C69636B20746F20BD
:1007F000726573756D652E2E2E004E6F206D6F76AF
:10080000652E00456E642066696C65206C697374A2
:100810000A00426567696E2066696C65206C6973C1
:10082000740A004D313235005344207072696E7481
:10083000696E67206279746520004E6F742053449E
:10084000207072696E74696E670A005072696E7406
:100850002074696D653A200050726F746563746529
:10086000642050696E0A00452569202573006F6673
:10087000660094018F01880181017301444542554E
:10088000473A004B494C4C45442E20006F6B0042C8
:10089000656420646F6E652E0020573A00426564DF
:1008A0002048656174696E672E005A39465F544965
:1008B00054414E204F66662E00454D455247454EE9
:1008C00043595F50415253455200434153455F4C99
:1008D000494748545F4252494748544E4553530094
:1008E000544F47474C455F4C494748545300534F7A
:1008F0004654574152455F504F5745520042554963
:100900004C445F50455243454E54004C4556454C6F
:10091000494E475F44415441005A5F50524F42454F
:10092000004155544F4C4556454C005052494E5489
:100930005F4A4F420050524F475245535300415572
:10094000544F5245504F52545F54454D5000564FEE
:100950004C554D455452494300454550524F4D006A
:1009600053455249414C5F584F4E5F584F464600E1
:100970004649524D574152455F4E414D453A4D61B2
:10098000726C696E2042617365206F6E204D6172DA
:100990006C696E312E312E38202847697468756273
:1009A0002920534F555243455F434F44455F5552AD
:1009B0004C3A68747470733A2F2F67697468756263
:1009C0002E636F6D2F7A6F6E65737461723364205E
:1009D00050524F544F434F4C5F56455253494F4E20
:1009E0003A312E30204D414348494E455F545950CD
:1009F000453A5A39465F544954414E20455854525D
:100A0000554445525F434F554E543A312055554950
:100A1000443A30303030303031302D303830382DAD
:100A2000303030332D303030302D323031383031BD
:100A300031303030310A002F2F20004D3134352035
:100A4000533C696E6465783E206F7574206F662034
:100A500072616E67652028302D31290A0053657454
:100A600074696E672054726176656C2041636365BA
:100A70006C65726174696F6E3A20005365747469B5
:100A80006E67205265747261637420416363656CA4
:100A900065726174696F6E3A200053657474696E93
:100AA00067205072696E7420416363656C65726182
:100AB00074696F6E3A200053657474696E672050D4
:100AC00072696E7420616E642054726176656C2068
:100AD000416363656C65726174696F6E3A200020D2
:100AE0005A00205900580020204D61783A200020FB
:100AF0005A00205900580020204D696E3A20004FBE
:100B00006E20004F666600536F667420656E6473D6
:100B1000746F70733A200000013C3D3803FF363794
:100B2000260EFF2E303E12FF13FF080906FFFF1AA4
:100B30001C18FFFF24221E28271608440A0643FF1C
:100B4000FFFFFFFFFF20643A0020693A0020703A5F
:100B50000043290A0061626C656420286D696E207B
:100B600074656D702000436F6C64206578747275D5
:100B7000646573206172652000426564204C65766F
:100B8000656C696E6720004661696C656420746FEE
:100B900020656E61626C6520426564204C657665F7
:100BA0006C696E670A00426564204C6576656C204E
:100BB000436F7272656374696F6E204D6174726900
:100BC000783A003A2000207A5F6D696E3A20202D35
:100BD0003230207A5F6D61783A202032300A00503E
:100BE000726F6265205A204F6666736574004E6F9F
:100BF0002063617365206C696768740A00556E6BC9
:100C00006E6F776E20636F6D6D616E643A202200A7
:100C1000526573656E643A20006F6B004D3630305C
:100C20000043617463682066696C616D656E742051
:100C300072756E206F7574210A004B494C4C454407
:100C40002E20004B494C4C20636175736564206213
:100C500079204B494C4C20627574746F6E2F70690B
:100C60006E0A004B494C4C45442E20004B494C4CDD
:100C70002063617573656420627920746F6F206DE5
:100C800075636820696E6163746976652074696D47
:100C900065202D2063757272656E7420636F6D6DB3
:100CA000616E643A200046696C616D656E742069FE
:100CB0006E73657274210A0043617463682066690B
:100CC0006C616D656E742072756E206F7574210A8B
:100CD00000506C65617365207265736574005052D5
:100CE000494E5445522048414C5445440050726985
:100CF0006E7465722068616C7465642E206B696C1B
:100D00006C28292063616C6C6564210A000000A0D6
:100D1000C00000A0C00000000000004842000048E1
:100D20004200000040000000005761726E696E676B
:100D30003A20486F6D696E672042756D7020446976
:100D40007669736F72203C20310A000202040000B1
:100D5000A0400000A040000000400080A2430080AE
:100D60009D430000C843FFFFFF4D36303020486FE1
:100D700074656E6420746F6F20636F6C6420746F91
:100D8000206368616E67652066696C616D656E746D
:100D90000A007C3C3E5E2B3D3F2F5B5D3B2C2A22B4
:100DA0005C004572726F722077726974696E672099
:100DB000746F20454550524F4D210A00290A0020EA
:100DC00062797465733B20637263200053657474A9
:100DD000696E67732053746F726564202800202841
:100DE00063616C63756C6174656429210A0020215C
:100DF0003D2000454550524F4D20435243206D69E0
:100E0000736D61746368202D202873746F7265643C
:100E1000292000290A002062797465733B206372DF
:100E20006320002073746F72656420736574746945
:100E30006E67732072657472696576656420280038
:100E4000204D61726C696E3D563532290A00284585
:100E50004550524F4D3D00454550524F4D2076650F
:100E60007273696F6E206D69736D617463682000C1
:100E700048617264636F6465642044656661756C83
:100E8000742053657474696E6773204C6F61646578
:100E9000640A00D0070000D007000064000000884A
:100EA000130000000016430000C84200000041008B
:100EB0000048420000A0420000A0420000C84300D9
:100EC00000C843205A0020590020204D32313120E3
:100ED00058004D696E20506F732041646A3A0A00D1
:100EE00020204D383531205A005A2D50726F6265DE
:100EF000204F666673657420286D6D293A0A0020BC
:100F0000440020490020204D33303120500050490A
:100F1000442073657474696E67733A0A0020460052
:100F200020420020480020204D3134352053004D10
:100F30006174657269616C20686561747570207098
:100F40006172616D65746572733A0A0020204D34D8
:100F500032302053004175746F20426564204C6527
:100F600076656C696E673A0A00204500205A0020B9
:100F7000590020580020420020540020204D3230DB
:100F800035205300416476616E6365643A20533CBA
:100F90006D696E5F66656564726174653E20543C80
:100FA0006D696E5F74726176656C5F6665656472AB
:100FB0006174653E20423C6D696E5F7365676D6567
:100FC0006E745F74696D655F75733E20583C6D612A
:100FD000785F78795F6A65726B3E205A3C6D617804
:100FE0005F7A5F6A65726B3E20453C6D61785F6534
:100FF0005F6A65726B3E0A00205400205200202078
:101000004D323034205000416363656C6572617409
:10101000696F6E2028756E6974732F7332293A20B8
:10102000503C7072696E745F616363656C3E205200
:101030003C726574726163745F616363656C3E20CA
:10104000543C74726176656C5F616363656C3E0AE3
:1010500000204500205A0020590020204D32303118
:101060002058004D6178696D756D20416363656C32
:1010700065726174696F6E2028756E6974732F7361
:1010800032293A0A00204500205A00205900202029
:101090004D3230332058004D6178696D756D206692
:1010A00065656472617465732028756E6974732F49
:1010B00073293A0A00204500205A002059002020B8
:1010C0004D3932205800537465707320706572205A
:1010D000756E69743A0A0020204D32303020443059
:1010E0000A0020204D3230302044002044697361D2
:1010F000626C65640A0046696C616D656E7420738C
:10110000657474696E67733A0020204D313439205C
:1011100043203B20556E69747320696E2043656CD3
:10112000736975730A002020473231202020203B4C
:1011300020556E69747320696E206D6D0A006669B2
:101140006C616D656E743A20007A5F70726F6265D3
:101150003A20007A5F6D696E3A2000795F6D696EA2
:101160003A2000785F6D696E3A20005265706F72A8
:1011700074696E6720656E6473746F702073746138
:101180007475730A0020746F6F206C6F6E67206532
:101190007874727573696F6E2070726576656E749F
:1011A00065640A0020636F6C6420657874727573DF
:1011B000696F6E2070726576656E7465640A0030C2
:1011C000012C01400127015001220170011D0190F5
:1011D000011801B0011301C0010E01F00109011055
:1011E0000204013002FF006002FA009002F500C024
:1011F00002F0000003EB004003E6008003E100D0B2
:1012000003DC002004D700E004D200C005CD00407C
:1012100006C800D006C3008007BE00F008B9004031
:1012200009B400C009AF00B00AAA00B00BA500D0F5
:101230000CA000000E9B00C0109600501291000000
:10124000148C00C0158700B0178200B0197D00D043
:101250001B7800001E730040206E0090226900F091
:1012600024640040275F0090295A00E02B550010AD
:101270002E500020304B0010324600E033410090E9
:10128000353C001037370070383200A0392D00B0DF
:101290003A2800A03B2300603C1E00103D1900903E
:1012A0003D1400103E0F00703E0A00C03E050000D5
:1012B0003F0000403FFBFF803FF6FFC03FF1FF24AF
:1012C000F4D43050C38E20C2A24017828B7011120A
:1012D0007A910D816CD90AA861E108C75866076147
:1012E0005143061E4B5D05C145A7041A411104096F
:1012F0003D9803713931034036DB0265339102D4E6
:10130000305402802E1D02632CEE01752AC501B0F7
:1013100028A001102781018F2564012B244B01E0B7
:10132000223401AC211F018D200D01801FFC00849F
:101330001EED00971DDF00B81CD200E61BC6002082
:101340001BBC00641AB200B219A8000A19A0006AF6
:10135000189900D117910040178B00B51684003101
:10136000167E00B31579003A157300C7146F005844
:10137000146A00EE1366008813630025135E00C72D
:10138000125B006C12570015125400C1115100700D
:10139000114F0021114B00D61049008D1047004617
:1013A00010440002104200C00F4000800F3E004277
:1013B0000F3C00060F3B00CB0E3800930E37005C4D
:1013C0000E3500270E3400F30D3200C10D310090B0
:1013D0000D3000600D2E00320D2D00050D2C00D9B2
:1013E0000C2B00AE0C2900850C29005C0C27003565
:1013F0000C27000E0C2600E80B2400C40B2400A0D0
:101400000B23007D0B23005A0B2100390B21001800
:101410000B2000F80A1F00D90A1E00BB0A1E009DFF
:101420000A1D00800A1D00630A1C00470A1B002CCD
:101430000A1B00110A1A00F7091A00DD091900C475
:10144000091900AB091900920917007B09180063FC
:101450000917004C09160036091600200916000A63
:10146000091500F5081500E0081400CC081400B8B0
:10147000081400A4081400900813007D0812006BE3
:1014800008130058081200460812003408110023FF
:101490000811001208110001081100F0071000E007
:1014A000071000D0071000C0071000B0070F00A100
:1014B00007100091070E0083070F0074070F0065E7
:1014C000070E0057070E0049070E003B070D002EC0
:1014D000070E0020070D0013070D0006070D00F989
:1014E000060C00ED060D00E0060C00D4060C00C84A
:1014F000060C00BC060C00B0060C00A4060B0099FC
:10150000060C008D060B0082060B0077060B006CA4
:10151000060B0061060A0057060B004C060A004243
:10152000060A0038060A002E060A0024060A001AD7
:10153000060A001006090007060A00FD050900F466
:10154000050900EB050900E2050900D9050900D0ED
:10155000050900C7050900BE050900B5050800AD6D
:10156000050800A50509009C050800940508008CE5
:10157000050800840508007C050800740508006C57
:10158000050700650508005D050700560508004EC3
:10159000050700470507004005080038050700312A
:1015A0000507002A050700230507001C050600168D
:1015B0000507000F0507000805060002050700FBE8
:1015C000040600F5040700EE040600E8040600E245
:1015D000040700DB040600D5040600CF040600C99A
:1015E000040600C3040600BD040600B7040600B1EB
:1015F000040500AC040600A6040600A00405009B38
:1016000004060095040500900406008A0405008580
:10161000040500800406007A0405007504050070C6
:101620000405006B04050066040500610405005C08
:1016300004050057040500520405004D0405004848
:10164000040500430405003E0404003A0405003587
:10165000040500300404002C0405002704040023C2
:101660000405001E0404001A0404001604050011F9
:101670000404000D0404000904050004040400002F
:10168000040400FC030400F8030400F4030400F065
:10169000030400EC030400E8030400E4030400E096
:1016A000030400DC030400D8030400D4030400D0C6
:1016B000030400CC030400C8030300C50303002493
:1016C000F404D9201BC40C5C0E9804C4095F0265A5
:1016D000077101F405F900FB04B30048048700C159
:1016E0000369005803550003034500BE023A008415
:1016F00002310053022A002902250004022000E4DE
:10170000011C00C8011900AF0117009801140084E2
:10171000011300710110006101100051010E00431E
:10172000010D0036010B002B010B0020010B0015F1
:101730000109000C01090003010800FB000800F387
:10174000000800EB000700E4000600DE000600D8F9
:10175000000600D2000600CC000500C7000500C24C
:10176000000500BD000400B9000400B5000400B18C
:10177000000400AD000400A9000400A5000300A2BD
:101780000003009F0004009B0003009800030095E5
:1017900000020093000300900003008D0002008B04
:1017A000000300880002008600020084000300811C
:1017B0000002007F0002007D0002007B0002007931
:1017C000000200770001007600020074000200723F
:1017D000000100710002006F0002006D0001006C4A
:1017E0000002006A00010069000200670001006653
:1017F0000001006500010064000200620001006158
:10180000000100600001005F0002005D0001005C5B
:101810000001005B0001005A00010059000100585E
:10182000000100570001005600010055000100545E
:10183000000100530000005300010052000100515C
:10184000000100500001004F0001004E0000004E5A
:101850000001004D0001004C0001004B0000004B56
:101860000001004A00010049000100480000004852
:10187000000100470001004600000046000100454D
:101880000000004500010044000100430000004347
:101890000001004200000042000100410000004140
:1018A000000100400001003F0000003F0001003E39
:1018B0000000003E0001003D0000003D0001003C32
:1018C0000000003C0000003C0001003B0000003B29
:1018D0000001003A0000003A000100390000003920
:1018E0000001003800000038000000380001003717
:1018F000000000370001003600000036000000360E
:101900000001003500000035000000350001003402
:1019100000000034000000340001003300000033F8
:1019200000000033000100320000003200000032ED
:1019300000010031000000310000003100010030E2
:1019400000000030000000300001002F0000002FD8
:101950000000002F0000002F0001002E0000002ECC
:101960000000002E0001002D0000002D0000002DC1
:101970000000002D0001002C0000002C0000002CB5
:101980000000002C0001002B0000002B0000002BA9
:101990000000002B0001002A0000002A0000002A9D
:1019A0000000002A00010029000000290000002991
:1019B0000000002900000029000100280000002884
:1019C0000000002800000028000000280001002777
:1019D000000000270000002700000027000000276B
:1019E000000100260000002600000026000000265E
:1019F0000000002600010025000000250000002551
:101A00000000002500000025000000250001002442
:101A10000000002400000024000000240000002436
:101A20000001002300000023000000230000002329
:101A3000000000230000002300000023000100221A
:101A4000000000220000002200000022000000220E
:101A50000000002200010021000000210000002100
:101A600000000021000000210000002100000021F2
:101A700000010020000000200000002000000020E5
:101A800000000020000000200000002000000020D6
:101A90000001001F0000001F0000001F0000001FC9
:101AA0000000001F0000001F0000001F0001001EBA
:101AB0000000001E0000001E0000001E0000004D7F
:101AC000383420582059205A2045000606060606BC
:101AD00000000000006265640A002C2073797374B2
:101AE000656D2073746F7070656421204865617442
:101AF00065725F49443A2000544845524D414C209C
:101B000052554E4157415900546865726D616C20C1
:101B100052756E617761790048656174696E6720FE
:101B20006661696C65640048656174696E6720660A
:101B300061696C6564001000AA0380004001000127
:101B40002C01B001220140021001F00202018003C9
:101B5000F8004004F500E004ED009005E4003006D4
:101B6000DD00E006D7008007D1003008CC00D008A7
:101B7000C7007009C300100ABE00B00ABB00500BBA
:101B8000B700900CB300D00DAA00B00FA500501004
:101B9000A000101496009016900010198C00501A96
:101BA0008500301C820070227800B023750040252B
:101BB0006E0020276900A0296400502A5F00902B46
:101BC0005A00D02C5500702D4F00E02E48005031A7
:101BD000450030334100D0353900603637001037CA
:101BE0003300F0382D00A0392700803C1C00403D18
:101BF0001700F03D1100803E0900D03FE5FF45721F
:101C0000723A204D494E54454D50204245440045BE
:101C100072723A204D494E54454D50004D494E5434
:101C2000454D50207472696767657265640045723E
:101C3000723A204D415854454D502042454400458C
:101C400072723A204D415854454D50004D41585400
:101C5000454D502074726967676572656400202F76
:101C6000002042403A0020403A0025753A253032A3
:101C70007500253032753A2530327500257564209F
:101C8000253032753A25303275005A005900580017
:101C90004D616E75616C0052616E646F6D004C69D0
:101CA0006E65617200092000000000000000000065
:101CB000000000007FFFE0000000000000000000C6
:101CC0000000007000E000000000000000000000C4
:101CD000000061F86000000000000000000000004B
:101CE0000041F8200000000000000000000000009B
:101CF00040F0200000000000000000000000004054
:101D000060200000000000000000000000005801FA
:101D1000A0FFC003B807700EE0004081005C63A024
:101D20007F8003B807700EE0002040805EF7A07F40
:101D30008001B0036006C0002040805EF7A07F8075
:101D400001B0036006C0004081005C63A07F800793
:101D5000BFFF7FFEF0008102005801A03F00078016
:101D6000000000F001020400406020FFC007FFFCFB
:101D70001FFFF00102040040F020FFC007FFFE3FFC
:101D8000FFF00081020041F820FFC000000F780042
:101D9000000040810061F8603F0000000770000013
:101DA000000000007000E01E000000036000000161
:101DB000FFFF807FFFE00C0000000140000001FFFA
:101DC000FF80000000000000000000000000000094
:101DD000007FFFE0000000000000000000000000A5
:101DE0007000E00000000000000000000000006340
:101DF0000C60000000000000000000000000470E22
:101E0000200000000000000000000000004F0F2034
:101E10000000000000000000000000005F0FA000B4
:101E200000000000000000000000005E07A0FFC0EE
:101E300003B807700EE0004081004060207F8003FF
:101E4000B807700EE00020408040F0207F8001B095
:101E5000036006C00020408040F0207F8001B00376
:101E60006006C0004081004060207F8007BFFF7F88
:101E7000FEF0008102005E07A03F00078000000026
:101E8000F0010204005F0FA0FFC007FFFC1FFFF07E
:101E9000010204004F0F20FFC007FFFE3FFFF000CC
:101EA000810200470E20FFC000000F7800000040B4
:101EB0008100630C603F000000077000000000001C
:101EC000007000E01E0000000360000001FFFF80C2
:101ED0007FFFE00C0000000140000001FFFF8000D8
:101EE00000005072696E7420706175736564004DF6
:101EF00031323500004D3234005072696E74206109
:101F0000626F7274656400506F77657220446F77FA
:101F10006E004D3831004E6F20534420636172646F
:101F2000005072696E742066726F6D2053440053C6
:101F3000746F70207072696E7400526573756D6590
:101F4000207072696E740041626F757420507269FE
:101F50006E746572005061757365207072696E747D
:101F600000436F6E74726F6C0050726570617265C1
:101F70000054756E6500496E666F20736372656507
:101F80006E004261627973746570205A004E6F7200
:101F90006D616C697A6520616E64204170706C7946
:101FA0003E3E0045332050726563656E74004533D4
:101FB0002050726563656E7400453220507265630F
:101FC000656E740045322050726563656E7400451D
:101FD000312050726563656E740045312050726522
:101FE00063656E740054756E6500455854323A4509
:101FF00058543300455854323A4558543300456ECE
:1020000064206F662045585431252500456E6420B4
:102010006F66204558543125250053746172742031
:102020006F66204558543125250053746172742021
:102030006F6620455854312525004175746F204D39
:102040006978204D6F6465004175746F204D697823
:10205000204D6F64650054756E65004D363030203C
:102060004230004368616E67652066696C616D652A
:102070006E74004261627973746570205A00466C18
:102080006F7700466C6F770046616E2073706565F0
:10209000640046616E20737065656400426564008B
:1020A000426564004175746F204D6978204D6F64FE
:1020B0006500536574204D697820526174696F0022
:1020C0004E6F7A7A6C65004E6F7A7A6C6500537049
:1020D000656564005370656564004D61696E00500C
:1020E00072656865617420504C4120456E640050F3
:1020F00072656865617420504C41204265640050EF
:1021000072656865617420504C4100507265706161
:1021100072650050726568656174204142532045C4
:102120006E640050726568656174204142532042BC
:1021300065640050726568656174204142530050C7
:10214000726570617265004261636B004E65787400
:1021500020636F726E6572004732380A4732390069
:102160005072656865617420414253005072656821
:1021700065617420504C4100436F6F6C646F776EE3
:10218000004368616E67652066696C616D656E7499
:1021900000426564204C6576656C696E6700446931
:1021A0007361626C65207374657070657273004D45
:1021B000383400536574204D697820526174696F1A
:1021C000004C6576656C20636F726E6572730048B3
:1021D0006F6D65205A00473238205A00486F6D6590
:1021E000205900473238205900486F6D652058004B
:1021F0004732382058004175746F20686F6D650054
:10220000473238004D6F76652061786973004D6103
:10221000696E004D6F76652058004D6F76652059C8
:10222000004D6F7665205A0045787472756465724A
:10223000004D6F766520302E316D6D004D6F7665E7
:1022400020316D6D004D6F76652031306D6D004D24
:102250006F7665206178697300457874727564657E
:1022600072004D6F7665205A004D6F7665205900DB
:102270004D6F7665205800457874727564657200FC
:102280004D6F7665205A004D6F76652059004D6F71
:1022900076652058005072657061726500496E69FC
:1022A0007469616C697A6520454550524F4D004311
:1022B0006F6E74726F6C00526573746F7265206616
:1022C00061696C73616665004C6F6164207365744D
:1022D00074696E677300496E697469616C697A65C7
:1022E00020454550524F4D0053746F726520736501
:1022F0007474696E6773004D6F74696F6E00546516
:102300006D7065726174757265004D61696E005023
:102310007265686561742041425320636F6E660088
:102320005072656865617420504C4120636F6E6621
:10233000005049442D44005049442D440050494424
:102340002D49005049442D49005049442D5000501A
:1023500049442D5000200820466163740020082065
:1023600046616374002008204D6178002008204DEC
:102370006178002008204D696E002008204D696EAC
:10238000004F6666004F6E20004175746F74656D76
:102390007000436F6F6C2046616E205370656564FA
:1023A00000436F6F6C2046616E205370656564005A
:1023B00046616E2073706565640046616E207370BF
:1023C0006565640042656400426564004E6F7A7A18
:1023D0006C65004E6F7A7A6C6500436F6E74726F35
:1023E0006C0053746F72652073657474696E6773E3
:1023F0000042656400426564004E6F7A7A6C650045
:102400004E6F7A7A6C650046616E20737065656404
:102410000046616E2073706565640054656D70657B
:10242000726174757265005654726176206D696EC2
:10243000005654726176206D696E00566D696E00AB
:10244000566D696E00566D6178204500566D617855
:10245000204500566D6178205A00566D6178205AEB
:1024600000566D6178205900566D617820590056EC
:102470006D6178205800566D61782058004D6F745A
:10248000696F6E00416D6178204500416D61782073
:102490004500416D6178205A00416D6178205A00F5
:1024A000416D6178205900416D6178205900416D7E
:1024B0006178205800416D6178205800412D747278
:1024C0006176656C00412D74726176656C00412DFA
:1024D0007265747261637400412D72657472616318
:1024E0007400416363656C00416363656C004D6F0C
:1024F00074696F6E0056652D6A65726B0056652DA6
:102500006A65726B00567A2D6A65726B00567A2D79
:102510006A65726B0056792D6A65726B0056792D6B
:102520006A65726B0056782D6A65726B0056782D5D
:102530006A65726B004D6F74696F6E0045737465E8
:1025400070732F6D6D004573746570732F6D6D0022
:102550005A73746570732F6D6D005A737465707360
:102560002F6D6D005973746570732F6D6D00597305
:10257000746570732F6D6D005873746570732F6D73
:102580006D005873746570732F6D6D004D6F7469B5
:102590006F6E0053746570732F6D6D004A65726BBA
:1025A00000416363656C65726174696F6E005665A6
:1025B0006C6F63697479005A2050726F6265204FA6
:1025C0006666736574005A2050726F6265204F66AC
:1025D0006673657400484F4D455F5A5F6F6666735A
:1025E000657400484F4D455F5A5F6F66667365744A
:1025F00000484F4D455F595F6F66667365740048CC
:102600004F4D455F595F6F666673657400484F4D67
:10261000455F585F6F666673657400484F4D455F50
:10262000585F6F666673657400436F6E74726F6C8B
:102630000043616E6E6F7420656E746572207375F1
:10264000626469723A2000022E2E004D61696E00AC
:1026500000457874727564656420746F74616C3AB7
:102660002000256C642E25696D00004C6F6E676537
:102670007374206A6F622074696D653A200000549B
:102680006F74616C207072696E742074696D653A44
:102690002000436F6D706C657465643A2000507261
:1026A000696E7420436F756E743A20004D61782016
:1026B00054656D703A20313330004D696E20546599
:1026C0006D703A203500544265643A3130304B2009
:1026D000312520626574612033393530004D6178D1
:1026E0002054656D703A20323735004D696E2054A4
:1026F000656D703A20350054303A203130304B202F
:1027000031252062657461203339353000505355CE
:102710003A2047656E657269630050726F746F632B
:102720006F6C3A20312E3000426175643A203131AD
:1027300035323030005A4F4E4553544152204C43AD
:10274000443132383634005A4F4E455354415220AA
:102750005A5249425F5636004C696E656172204C90
:102760006576656C696E670045787472756465722C
:10277000733A203300687474703A2F2F7777772E6E
:102780007A6F6E657374617233642E636F6D005A75
:1027900039465F544954414E00323031392D31327F
:1027A0002D31300042617365206F6E204D61726C77
:1027B000696E312E312E38005631004865617465DE
:1027C000722054657374696E67004D313034205344
:1027D0003236300A4D31343020533131350A4D31E3
:1027E00030362053300A004175746F2055702064D4
:1027F0006F776E004D3230332058313530205931EB
:102800003530205A31360A4730205833313020597C
:10281000333130205A34303020463936300A473090
:10282000205830205930205A313020463936300A6D
:10283000473020583330302059333030205A34302C
:102840003020463936300A47302058302059302061
:102850005A313020463936300A473020583331302B
:102860002059333130205A34303020463936300A3E
:102870004730205830205930205A313020463936E0
:10288000300A473020583331302059333130205A04
:1028900034303020463936300A47302058302059FD
:1028A00030205A313020463936300A4730205833EC
:1028B00031302059333130205A34303020463936C7
:1028C000300A4730205830205930205A31302046C5
:1028D0003936300A4732380A4D32303320583135D4
:1028E000302059313030205A380A4D33303020539F
:1028F0003330303020503130303000466173742036
:10290000746F20426F74746F6D004D3230332058F5
:102910003135302059313530205A31360A47323876
:102920002058300A4730205A3020463936300A4D78
:1029300032303320583135302059313030205A3838
:102940000A004661737420746F20546F70004D321A
:10295000303320583135302059313530205A313616
:102960000A473020583331302059333130205A341F
:10297000303020463936300A4D3230332058313528
:10298000302059313030205A380A004175746F2098
:10299000686F6D6500473238005072696E746572F9
:1029A00020537461747300546865726D6973746F39
:1029B000727300426F61726420496E666F005072DC
:1029C000696E74657220496E666F004D61696E00B4
:1029D00020204E6F7A7A6C653A20002000426163B5
:1029E0006B004D696E696D756D2054656D70206961
:1029F00073203135302E0048656174696E6720663A
:102A000061696C65640045787472756465206D6FEA
:102A1000726500526573756D65207072696E740021
:102A2000524553554D45204F5054494F4E533A004F
:102A300020204E6F7A7A6C653A20006368616E6779
:102A400065006F66207468652066696C616D656EEF
:102A500074005761697420666F72207374617274B8
:102A6000005052494E5420504155534544002020B7
:102A70004E6F7A7A6C653A2000200066696C616D51
:102A8000656E7420756E6C6F6164005761697420A7
:102A9000666F72005052494E542050415553454480
:102AA0000020204E6F7A7A6C653A20002000506C2E
:102AB0006561736520776169742E2E2E004865610B
:102AC00074696E67206E6F7A7A6C65005052494E59
:102AD00054205041555345440020204E6F7A7A6C63
:102AE000653A2000200068656174206E6F7A7A6C08
:102AF000652E00507265737320627574746F6E205A
:102B0000746F005052494E54205041555345440073
:102B100020204E6F7A7A6C653A2000746F20636FC4
:102B20006E74696E75652E2E2E00616E6420707253
:102B300065737320627574746F6E00496E7365728D
:102B4000742066696C616D656E74005052494E5414
:102B5000205041555345440020204E6F7A7A6C65D1
:102B60003A2000200066696C616D656E74206C6FA0
:102B70006164005761697420666F72005052494E5B
:102B800054205041555345440020204E6F7A7A6CB2
:102B9000653A2000200066696C616D656E74206581
:102BA000787472756465005761697420666F72008D
:102BB0005052494E542050415553454400746F20A3
:102BC000726573756D65005761697420666F722058
:102BD0007072696E74005052494E542050415553E2
:102BE000454400436172642072656D6F76656400D0
:102BF0004361726420696E736572746564000000DD
:102C00002100240027002A002D003000330001019C
:102C10000000040107010A0100002200250028002D
:102C20002B002E00310034000201000005010801D4
:102C30000B01000020002300260029002C002F009B
:102C40003200000100000301060109010505050528
:102C5000070508080808020202020A0A0808040414
:102C60000404010101010101010103030303030342
:102C70000303040707070C0C0C0C0C0C0C0C0202D1
:102C8000020206060606060606060B0B0B0B0B0BCE
:102C90000B0B01021020200808102040102040805B
:102CA0000201020108040201010204081020408010
:102CB000804020100804020180040201804020109E
:102CC00008040201080402010102040810204080E7
:102CD000010204081020408000000A0B02090C0DBC
:102CE0000E080703040100000000000000000000BF
:102CF00000000000000000000000000000000000D4
:102D00000000000012111000000000000000000090
:102D100000000000000000000000000000000200B1
:102D200000000000000000000000000000000000A3
:102D30000000000000000000000000000000000093
:102D40000000000000000000000000000000000083
:102D5000000000000000000000000000000000076C
:102D6000FF01FE070183FE0FF8FFF807007FC00791
:102D7000FF83FF0F8187FE1FF8FFF80F80FFE0073A
:102D8000FFC7038F818FFC3FF0FFF81FC0E0E0001A
:102D900003C6018FC18C00380007001FC0C060004F
:102DA0000786018CC18C00300007003DE0C0600048
:102DB0000F06018CE18C003800070038E0E0E000ED
:102DC0001E06018C618FFE3FF0070038E0FFC00057
:102DD0003C06018C618FFE1FF807003060FF800009
:102DE0007806018C318FFC0FFC07007270FC00002C
:102DF000F006018C318E00001C07006230CE00010D
:102E0000E006018C398C00000C07006730C7000316
:102E1000C006018C198C00000C07006730C38007C6
:102E20008007038C198E00001C0700CF98C1C007D3
:102E3000FFC7FF8C0F8FFF1FFC0700CF98C0F00368
:102E4000FFC3FF0C0F87FF3FF80700DFD8C07001FA
:102E5000FFC1FE0C0701FE3FF0070000000000006C
:102E60000000000000000000000000000000000062
:102E70000000000000000000000000000000000052
:102E80000000000000000000000000000000000042
:102E90000000000000000000000000000000002012
:102EA00020506C616E6E657242756666657242791D
:102EB0007465733A20002046726565204D656D6F1C
:102EC00072793A2000436F6D70696C65643A2044F2
:102ED000656320313220323031390A00207C2041B4
:102EE0007574686F723A202848616C6C79405A4F4B
:102EF0004E4553544152290A00323031392D313276
:102F00002D313000204C61737420557064617465FC
:102F1000643A200042617365206F6E204D61726CCF
:102F2000696E312E312E380A004D61726C696E0067
:102F300020536F6674776172652052657365740AF9
:102F400000205761746368646F672052657365740D
:102F50000A002042726F776E206F7574205265737D
:102F600065740A002045787465726E616C20526544
:102F70007365740A00506F77657255700A00737438
:102F80006172740A006572726F7220777269746977
:102F90006E6720746F2066696C650A00456E647305
:102FA000746F7073202563202563202563202563BB
:102FB0000020503A00205A3A0020593A0020583A4E
:102FC00000656E6473746F7073206869743A2000D2
:102FD000446F6E6520736176696E672066696C6503
:102FE0002E0A004D32390050726F62696E6720669A
:102FF00061696C65640A0050726F62696E67206671
:1030000061696C656400205A3A200020593A20001A
:1030100042656420583A2000486F6D65202573256D
:103020007325732066697273740020666972737405
:103030000A005A0059005800486F6D652000577209
:103040006974696E6720746F2066696C653A200048
:103050006F70656E206661696C65642C2046696CD2
:10306000653A20006F70656E206661696C65642C3E
:103070002046696C653A200046696C652073656C72
:1030800065637465640A002053697A653A200046D6
:10309000696C65206F70656E65643A20006F7065BD
:1030A0006E206661696C65642C2046696C653A2007
:1030B000002066696C653A2000646F696E6700667F
:1030C00072657368004E6F772000454E442053555B
:1030D00042524F5554494E450A002220706F7300EA
:1030E0002220706172656E743A2200535542524F2D
:1030F0005554494E452043414C4C207461726765DC
:10310000743A22004B494C4C45442E20007472798D
:10311000696E6720746F2063616C6C207375622D1B
:1031200067636F64652066696C657320776974688E
:1031300020746F6F206D616E79206C6576656C739D
:103140002E204D4158206C6576656C2069733A00DD
:1031500053442063617264206F6B0A006F70656E68
:10316000526F6F74206661696C65640A00766F6CDB
:10317000756D652E696E6974206661696C65640A97
:10318000004572726F723A00534420696E69742070
:103190006661696C0A0043616E6E6F74206F7065C2
:1031A0006E2073756264697220006175746F2569A1
:1031B0002E67004D3234004D323320257300656E8A
:1031C0007175657565696E672022006563686F3A81
:1031D0000000060900FE0701920321207FFF07FF80
:1031E00007FF0000000600000107070602008080BC
:1031F0008080800080030202060105A0A005070769
:103200000600005050F850F850500507070600001F
:103210002078A07028F020050707060000C0C8101D
:10322000204098180507070600006090A040A8906D
:1032300068020303060104C040800307070601007B
:103240002040808080402003070706010080402046
:103250002020408005050506000120A870A8200553
:1032600005050600012020F820200203030602FFC6
:10327000C04080050101060003F8020202060200B8
:10328000C0C005050506000108102040800507079D
:103290000600007088888888887003070706010088
:1032A00040C040404040E005070706000070880825
:1032B000708080F8050707060000F8102010080845
:1032C000F005070706000010305090F810100507B1
:1032D00007060000F880F008088870050707060058
:1032E00000708080F0888870050707060000F808E5
:1032F00010202020200507070600007088887088AD
:103300008870050707060000708888780808700232
:103310000505060200C0C000C0C00206060602FF86
:10332000C0C000C040800407070600001020408095
:10333000402010050303060002F800F80407070602
:103340000100804020102040800507070600007023
:10335000880810200020050707060000708808680C
:10336000A8A870050707060000708888F888888874
:10337000050707060000F08888F08888F005070731
:1033800006000070888080808870050707060000AE
:10339000F08888888888F0050707060000F8808094
:1033A000F08080F8050707060000F88080F0808034
:1033B00080050707060000708880B88888700507B8
:1033C00007060000888888F88888880107070602B1
:1033D000008080808080808005070706000038100C
:1033E00010101090600507070600008890A0C0A08C
:1033F0009088050707060000808080808080F8059F
:10340000070706000088D8A8888888880507070667
:1034100000008888C8A898888805070706000070FB
:10342000888888888870050707060000F08888F07B
:1034300080808005070706000070888888A890684B
:10344000050707060000F08888F0A09088050707A8
:10345000060000788080700808F005070706000065
:10346000F8202020202020050707060000888888F3
:103470008888887005070706000088888888885033
:10348000200507070600008888888888A850050757
:103490000706000088885020508888050707060026
:1034A0000088888850202020050707060000F808BB
:1034B00010204080F8030707060100E0808080802C
:1034C00080E005050506000180402010080307077D
:1034D000060100E02020202020E005030306000470
:1034E000205088050101060000F8020202060205CC
:1034F00080400505050600007008788878050707F4
:103500000600008080B0C88888F005050506000028
:103510007080808870050707060000080868988892
:1035200088780505050600007088F8807005070793
:103530000600003048E0404040400506060600FF17
:103540007088887808700507070600008080B0C87A
:1035500088888801070706020080008080808080BC
:103560000308080601FF200020202020A0400407B7
:1035700007060000808090A0C0A090030707060106
:1035800000C04040404040E0050505060000D0A8CE
:10359000A8A8A8050505060000B0C8888888050504
:1035A0000506000070888888700506060600FFF092
:1035B0008888F080800506060600FF7888887808ED
:1035C00008050505060000B0C880808005050506D1
:1035D000000070807008F00407070600004040E01B
:1035E0004040403005050506000088888898680539
:1035F000050506000088888850200505050600009E
:103600008888A8A850050505060000885020508825
:103610000506060600FF88888878087005050506F7
:103620000000F8102040F803070706010020404082
:103630008040402001070706020080808080808053
:1036400080030707060100804040204040800502BB
:103650000206000268900000000600000006090053
:10366000FE000000000001090008FE000005080837
:1036700006000040F0C88888987810050808060001
:1036800000C0F88888888888F805050506000120AC
:1036900030F830200508080600002070F8202020AF
:1036A00020E00509090600FF2070A8A8B8888870E6
:1036B000200509090600FFE080C0B0A828302828AE
:1036C0000509090600FFF8A88888888888A8F805F1
:1036D0000A0A0600FE205050505088A8A88870039F
:1036E000030306000340A04098009A0011241FBE67
:1036F000CFEFD1E2DEBFCDBF00E00CBF13E0A0E012
:10370000B2E0E8EEFFE402E00BBF02C007900D92CA
:10371000A43BB107D9F722E1A4EBB3E001C01D92AD
:10372000A53EB207E1F71BE1C5E7DBE100E006C01B
:1037300021970109802FFE010F945527C437D10727
:1037400080E00807A9F70F9411150D94E3270C9456
:103750000000CF92DF92EF92FF9280916205882362
:1037600009F457C0C0906305D0906405E0906505EA
:10377000F090660520E030E0A901C701B6010F9482
:10378000F11F882309F445C020E030E040E05FE30A
:10379000C701B6010F9456209B01AC010F9456202F
:1037A0002BED3FE049E450E40F9456209B01AC011F
:1037B00060E070E080E89FE30F9436256B017C01A8
:1037C000C0926908D0926A08E0926B08F0926C0887
:1037D0006091170270911802072E000C880B990B4C
:1037E0000F94F71F2AE037ED43E25CE30F94562075
:1037F000A70196010F945620609313027093140250
:103800008093150290931602FF90EF90DF90CF9077
:103810000895C12CD12C80E8E82E8FE3F82ED0CF6C
:103820008CE0EFE2F5E0AFE6BAE001900D928A9508
:10383000E1F70895CF93DF93EC0120E030E04BE90E
:1038400053E4688179818A819B810F9480261816C0
:1038500044F480E090E0ABE9B3E488839983AA83E1
:10386000BB8320E030E04BE953E46C817D818E81A5
:103870009F810F948026181644F480E090E0ABE915
:10388000B3E48C839D83AE83BF8320E030E048ECBB
:1038900053E4688579858A859B850F948026181660
:1038A00044F480E090E0A8ECB3E488879987AA8785
:1038B000BB87DF91CF910895129A479A109A089585
:1038C0008A9AE4EDF9E010825F9A11829FB7F8942A
:1038D000A8E0B1E08C9181608C939FBF1282ECCF05
:1038E000269A2E9808952FEB280F2A3168F5422F3B
:1038F00050E0FA0183E0F595E7958A95E1F7E05A03
:10390000FB4F9081892F90E0277002C09595879595
:103910002A95E2F780FD02C0817008954A5B5B4FF3
:10392000FA018081882369F02091F6043091F70430
:10393000820F932F911D9093B5038093B40381E080
:10394000089590E080E0F7CF80E00895CCDF8823F1
:1039500041F081E02091B4033091B503232B09F4A9
:1039600080E00895089590E080E0089580E1EFE61A
:10397000FAE0ADE3B5E001900D928A95E1F7089584
:1039800080E1EDE3F5E0AFE6BAE001900D928A95B3
:10399000E1F708958FB7F8949091EA042091E90433
:1039A000291769F0E92FF0E0E759FB4F208130E05B
:1039B0009F5F9F779093EA048FBFC90108952FEF0F
:1039C0003FEFFACF4F925F926F927F92AF92BF928A
:1039D000CF92DF92EF92FF920F931F93CF93DF93DB
:1039E0008C01EB01FC0143A854A865A876A8ABA8FC
:1039F000BCA8CDA8DEA89501A601C301B2010F9411
:103A0000F11F87FF3FC0A3019201C301B2010F94D0
:103A100056202B013C01F801FF9660817181828163
:103A2000938190589B01AC010F945A24F80123AD67
:103A300034AD45AD56AD0F9456209B01AC01C3018A
:103A4000B2010F9459240F94C5267B018C019B0170
:103A5000AC01B501C6010F94F11F87FF02C07501CB
:103A600086019701A801B501C6010F94F11F8823B3
:103A700049F0C701D8018BAB9CABADABBEAB888125
:103A800081608883DF91CF911F910F91FF90EF901C
:103A9000DF90CF90BF90AF907F906F905F904F90EE
:103AA00008952F923F924F925F926F927F928F92E2
:103AB0009F92AF92BF92CF92DF92EF92FF920F93BD
:103AC0001F93CF93DF9300D01F92CDB7DEB75B017A
:103AD0003A011901AFE7BAE02D913D914D915C910A
:103AE000FC0160817181828193810F9456200F9433
:103AF0008B266B017C010AEA1EE0D801CD92DD9293
:103B0000ED92FC9213972091830A3091840A4091A0
:103B1000850A5091860AF5016081718182819381C5
:103B20000F9456200F948B264B015C01D8011496FC
:103B30008D929D92AD92BC9217972091870A3091F9
:103B4000880A4091890A50918A0AF3016081718143
:103B5000828193810F9456200F948B262B013C0178
:103B6000D80118964D925D926D927C921B97209190
:103B70008B0A30918C0A40918D0A50918E0AF10186
:103B800060817181828193810F9456200F948B26DE
:103B900069837A838B839C83D8011C966D937D9374
:103BA0008D939C931F970E9490E48FB7F894B70170
:103BB000A601480D591D6A1D7B1DEFE5FAE0408303
:103BC000518362837383C818D908EA08FB08C4824A
:103BD000D582E682F7824086518662867386298185
:103BE0003A814B815C8124873587468757878FBF11
:103BF0001092960E1092970E1092980E1092990EA7
:103C0000EAE9FEE080E1DF011D928A95E9F70F9075
:103C10000F900F900F90DF91CF911F910F91FF9018
:103C2000EF90DF90CF90BF90AF909F908F907F905C
:103C30006F905F904F903F902F9008952F923F92FA
:103C40004F925F926F927F928F929F92AF92BF92AC
:103C5000CF92DF92EF92FF920F931F93CF93DF9358
:103C6000CDB7DEB7E8970FB6F894DEBF0FBECDBF75
:103C700020916705222309F4E6C01C010091760E0D
:103C80001091770E2091780E3091790E40907A0E37
:103C900050907B0E60907C0E70907D0E4DA65EA6BF
:103CA0006FA678AA80907E0E90907F0EA090800ED6
:103CB000B090810E4091820E5091830E6091840EDF
:103CC0007091850E8091860E9091870EA091880E3E
:103CD000B091890E89AB9AABABABBCABC0908A0EEE
:103CE000D0908B0EE0908C0EF0908D0E80918E0E09
:103CF00090918F0EA091900EB091910E4090920EE7
:103D00005090930E6090940E7090950E4DAA5EAAFE
:103D10006FAA78AE4090720E5090730E6090740E41
:103D20007090750E49825A826B827C828D829E824F
:103D3000AF82B886C986DA86EB86FC860D871E8739
:103D40002F87388B498B5A8B6B8B7C8B8D8B9E8B03
:103D5000AF8BB88F8DA59EA5AFA5B8A9898F9A8F77
:103D6000AB8FBC8F49A85AA86BA87CA84D8E5E8EDD
:103D70006F8E78A28DA99EA9AFA9B8AD89A39AA389
:103D8000ABA3BCA320E030E040EA50E4D1016D9148
:103D90007D918D919C910F945A2469A77AA78BA746
:103DA0009CA720E030E040EA50E4F1016481758195
:103DB000868197810F945A246DA37EA38FA398A721
:103DC000C10108969F938F93CE0185969F938F9301
:103DD00004969F938F938DB79EB784970FB6F894F0
:103DE0009EBF0FBE8DBFADB7BEB7119684E2FE0178
:103DF000319601900D928A95E1F70F94C30120E06E
:103E000030E040EA50E469A57AA58BA59CA50F9403
:103E10005924D1016D937D938D939C93139720E04A
:103E200030E040EA50E46DA17EA18FA198A50F94E7
:103E30005924F10164837583868397830FB6F894C0
:103E4000DEBF0FBECDBFE8960FB6F894DEBF0FBE43
:103E5000CDBFDF91CF911F910F91FF90EF90DF9039
:103E6000CF90BF90AF909F908F907F906F905F901A
:103E70004F903F902F900895CF92DF92EF92FF9254
:103E80000F931F93CF93DF9300D000D01F921F9208
:103E9000CDB7DEB720916705222309F462C0C52E95
:103EA000D42E8B017C0120E030E040EA50E4FC019C
:103EB00060817181828193810F945A246D837E8306
:103EC0008F83988720E030E040EA50E4F801608179
:103ED0007181828193810F945A2469837A838B83C1
:103EE0009C83CF92DF92CE0101969F938F9304968D
:103EF0009F938F938DB79EB784970FB6F8949EBF0C
:103F00000FBE8DBFADB7BEB7119684E2E2E7FEE00B
:103F100001900D928A95E1F70F94C30120E030E003
:103F200040EA50E46D817E818F8198850F945924F9
:103F3000F701608371838283938320E030E040EA5D
:103F400050E469817A818B819C810F945924F80116
:103F500060837183828393830FB6F894DEBF0FBEB4
:103F6000CDBF28960FB6F894DEBF0FBECDBFDF9150
:103F7000CF911F910F91FF90EF90DF90CF90089518
:103F80004F925F926F927F928F929F92AF92BF9269
:103F9000CF92DF92EF92FF92CF93DF93CDB7DEB750
:103FA0006A970FB6F894DEBF0FBECDBF9A8F898F88
:103FB0005B014A01FC01ED5BFF4F608171818281F1
:103FC00093810F94F51F6B017C01D5012D913D91DB
:103FD0004D915C910F9456200F9420250F94A325AA
:103FE0003B015C01F4012081318142815381C70191
:103FF000B6010F9456200F9420250F94A3256D82AF
:104000007E82AF82B8862D813E814F8158852837C8
:1040100031054105510540F428E730E040E050E02B
:104020002D833E834F83588769837A838B839C8358
:1040300089819A81AB81BC8188379105A105B10541
:1040400040F428E730E040E050E029833A834B8396
:104050005C83E98DFA8DE15BFF4F80819181A281C4
:10406000B3818D879E87AF87B88BBC01CD010F943C
:10407000F71F69877A878B879C876D817E818F8107
:1040800098850F94F51F698B7A8B8B8B9C8B20E026
:1040900030E0A90169857A858B859C850F94F11F95
:1040A000882309F437C1A7019601C701B6010F940F
:1040B00056204B015C0129893A894B895C89CA01E8
:1040C000B9010F9456209B01AC01C501B4010F94B6
:1040D00059244B015C0129853A854B855C85CA01D1
:1040E000B9010F945A249B01AC01C501B4010F948E
:1040F00036250F9420250F949E252B013C016D85BC
:104100007E858F85988990958095709561957F4F74
:104110008F4F9F4F0F94F71F4B015C0169817A818C
:104120008B819C810F94F51F6D877E878F87988B7D
:1041300020E030E0A901C501B4010F94F11F8823EC
:1041400009F4ECC02D853E854F855889CA01B90117
:104150000F9456206D8B7E8B8F8B988FA7019601C5
:10416000C701B6010F9456209B01AC016D897E8971
:104170008F89988D0F9459246B017C01A5019401BE
:10418000C501B4010F945A249B01AC01C701B601CB
:104190000F9436250F94CF25A98DBA8D52968D9008
:1041A0009D90AD90BC90559775016401C418D508D9
:1041B000E608F7080F949E25C61AD70AE80AF90AF6
:1041C000F7FE67C020E030E0A90169857A858B851C
:1041D0009C850F94F11F882309F4A4C0C501B40184
:1041E0000F94F51F6B017C0129853A854B855C8511
:1041F000CA01B9010F945A249B01AC01C701B60151
:104200000F9456206B017C0129893A894B895C897E
:10421000CA01B9010F9456209B01AC01C701B60138
:104220000F9459246B017C012D853E854F8558895B
:10423000CA01B9010F9456209B01AC01C701B60118
:104240000F945A246B017C0120E030E040E850E4F8
:1042500069857A858B859C850F9456209B01AC01DE
:10426000C701B6010F9436250F9420250F949E2583
:104270002B013C0177FE03C0412C512C3201481424
:1042800059046A047B0410F024013501C12CD12C9F
:1042900076018FB7F894E98DFA8D908193FD24C053
:1042A000DF0142A253A264A275A2C40CD51CE61C75
:1042B000F71CC6A2D7A2E0A6F1A6E95BFF4F2D81AD
:1042C0003E814F8158852083318342835383AD01E2
:1042D000455B5F4FDA0129813A814B815C812D93E7
:1042E0003D934D935C9313978FBF6A960FB6F894E6
:1042F000DEBF0FBECDBFDF91CF91FF90EF90DF907B
:10430000CF90BF90AF909F908F907F906F905F9075
:104310004F90089560E070E0CB01EBCE60E070E07C
:10432000CB0138CF60E070E0CB019ECFAF92BF925F
:10433000CF92DF92EF92FF920F931F93CF93DF9371
:104340001F92CDB7DEB76C018B01590180915F05DB
:1043500081111BC07B01E40EF51EF6018081918165
:104360000F94B6238983F80181938F01BE016F5F9B
:104370007F4FC5010E9401F6F6018081918101966F
:1043800091838083E016F10641F70F90DF91CF9182
:104390001F910F91FF90EF90DF90CF90BF90AF9063
:1043A0000895CF93DF9390E080E00E943DE4CFE258
:1043B000D5E0688379838A839B8381E090E00E94C3
:1043C0003DE46C837D838E839F8382E090E00E9436
:1043D0003DE4688779878A879B87DF91CF9108952D
:1043E000CF92DF92EF92FF921F93CF93DF9300D093
:1043F0001F92CDB7DEB7182F662351F010924004FC
:1044000010923C0410923D0410923E0410923F041E
:104410000E948BFCAB01BC0180913C0490913D0457
:10442000A0913E04B0913F046A017B01C81AD90AE9
:10443000EA0AFB0AD701C601B7FD37C017FD41C024
:1044400080914004212F012E000C330B2C5F3F4F35
:10445000E82F082E000CFF0B2E173F0734F18117B1
:1044600084F180E991E0A0E0B0E0840F951FA61FE1
:10447000B71F80933C0490933D04A0933E04B093F7
:104480003F0480ED97E09C838B838CE291E09A83DC
:104490008983BE016D5F7F4FCE0101960E94DCF4DF
:1044A000809140048F5F809340040F900F900F9095
:1044B0000F90DF91CF911F91FF90EF90DF90CF9001
:1044C000089584EC99E0A0E0B0E0CFCF2F923F9226
:1044D0004F925F926F927F928F929F92AF92BF9214
:1044E000CF92DF92EF92FF920F931F93CF93DF93C0
:1044F00000D000D0CDB7DEB79A8389830E948BFCB1
:10450000A981BA811696CD90DD90ED90FC90199717
:10451000C114D104E104F10409F010C31C962C91DC
:104520001C97222309F44DC01A96EC911A9721503A
:104530001C962C931C9721E02E0F1A962C931A97F9
:104540001D963C911D97231302C01A961C92F0E011
:104550003196EE0FFF1FEE0FFF1F29813A81E20F08
:10456000F31FC284D384E484F584D9011296CD92DA
:10457000DD92ED92FC9215976C0D7D1D811D911DB4
:10458000F901668377838087918784819581892B60
:10459000C1F0FFB7FD83F894A981BA8112962D90DE
:1045A0003C9013972101712C612C14960D911C9154
:1045B000809135028532F1F08F3F09F497C0FD817B
:1045C000FFBF26960FB6F894DEBF0FBECDBFDF91BA
:1045D000CF911F910F91FF90EF90DF90CF90BF9000
:1045E000AF909F908F907F906F905F904F903F9093
:1045F0002F900895EEE1FDE2B491BE83B7FDDFCFC9
:1046000061E085E20E9485FB9E81992321F0AE81C5
:10461000A23009F0BEC14801B12CA12C60E072E1CA
:104620008AE790E0A50198010F941E2429833A831C
:104630004B835C8369017A01B1E0CB1AD108E108B0
:10464000F108EFEFCE16D104E104F10409F00CF407
:1046500070C160E472E48FE090E0A50198010F94CE
:104660001E2469017A01F1E0CF1AD108E108F108AE
:104670002E81223009F011C182E03FEFC316D10430
:10468000E104F10409F00CF4B8C260E970ED83E0D4
:1046900090E0A50198010F941E2469017A0181E040
:1046A000C81AD108E108F10883E09FEFC916D104C8
:1046B000E104F10409F00CF4A0C268E478EE81E0B2
:1046C00090E0A50198010F941E2469017A0181E010
:1046D000C81AD108E108F1089FEFC916D104E10416
:1046E000F10411F00CF0FDC084E087C285E28093F4
:1046F0003502EEE1FDE224912E83822F2F3F09F453
:104700005ECF223009F469C060F4222381F12130A8
:1047100009F445C087FD53CF61E085E20E9485FB27
:1047200076CF3E81343009F49AC008F478C0353031
:1047300089F7109220011092210180912101886057
:104740008093210180912101816080932101E1E723
:10475000FCE2E491F0E0EE0FFF1FE85EF34D85917F
:104760009491E7EBFCE2E491E093B60349CF14BCEB
:1047700015BC84B5826084BD85B5816085BDE1E7E7
:10478000FCE2E491F0E0EE0FFF1FE85EF34D85914F
:104790009491E7EBFCE2E491E093BA0331CF1092FD
:1047A0008000109281008091810088608093810058
:1047B00080918100816080938100E1E7FCE2E491D7
:1047C000F0E0EE0FFF1FE85EF34D85919491E7EB6B
:1047D000FCE2E491E093B90313CF1092B000109281
:1047E000B1008091B00082608093B0008091B100F0
:1047F00081608093B100E1E7FCE2E491F0E0EE0F2C
:10480000FF1FE85EF34D859194919093C8098093C2
:10481000C709E7EBFCE2E491E093C909F1CE1092FD
:104820009000109291008091910088608093910097
:1048300080919100816080939100E1E7FCE2E49136
:10484000F0E0EE0FFF1FE85EF34D85919491E7EBEA
:10485000FCE2E491E093B80383E08E83D1CE109222
:10486000A0001092A1008091A10088608093A10017
:104870008091A10081608093A100E1E7FCE2E491D6
:10488000F0E0EE0FFF1FE85EF34D85919491E7EBAA
:10489000FCE2E491E093B703B3CEAFEFCA16D104C4
:1048A000E104F10409F00CF472C068E478EE81E0F0
:1048B00090E0A50198010F941E2469017A01B1E0EE
:1048C000CB1AD108E108F108EE81EE2309F461C1A9
:1048D000EFEFCE16D104E104F10411F00CF062C147
:1048E00003CF64E274EF80E090E0A50194010F949F
:1048F0001E2469017A01F1E0CF1AD108E108F1081C
:1049000085E02FEFC216D104E104F10409F008F4A8
:1049100074C162E17AE780E090E0A50194010F9410
:104920001E2469017A01A1E0CA1AD108E108F10840
:104930004BC181E0AE81A11160C195B5987F892BF3
:1049400085BD2FEF3FEFA90145284628472809F0EC
:1049500059C0BE81B23009F4E1C00CF0C8C0BB231D
:1049600009F4CDC0B13009F02ACED0928900C092AE
:1049700088002093C7033093C8034093C903509322
:10498000CA0380916F00826080936F0018CE82E02E
:10499000D1CFB12CA12C60E072E18AE790E0A501B3
:1049A00098010F941E2469017A01B1E0CB1AD10855
:1049B000E108F10891E0C114D104E1E0EE06F10450
:1049C00084F068E478EE81E090E0A50198010F940E
:1049D0001E2469017A01F1E0CF1AD108E108F1083B
:1049E00093E02E812130D9F480918100887F892B3A
:1049F000809381002FEF3FEFA901452846284728E3
:104A000009F4B3CF9801220F331FD1010F944A2428
:104A100028EE33E040E050E00F94FC239ACF3E8133
:104A20003330F9F480919100887F892B8093910035
:104A30002FEF3FEFA90145284628472819F7D092C4
:104A40009900C09298002093C3033093C40340930D
:104A5000C5035093C60380917100826080937100FA
:104A6000AECD8E818430F9F48091A100887F892BAE
:104A70008093A1002FEF3FEFA90145284628472842
:104A800009F6D092A900C092A8002093BF033093EA
:104A9000C0034093C1035093C203809172008260AF
:104AA000809372008CCDAE81A53009F04ACF809101
:104AB0002101887F892B809321012FEF3FEFA901EE
:104AC00045284628472809F09DCFD0922901C09259
:104AD00028012093BB033093BC034093BD03509344
:104AE000BE038091730082608093730068CDEE8175
:104AF000E43039F20CF4A3CFE53039F360CDC7BC14
:104B00002093CB033093CC034093CD035093CE033B
:104B100080916E00826080936E0051CDC092B30090
:104B20002093CA093093CB094093CC095093CD0907
:104B30008091700082608093700041CD6C197D0976
:104B40008E099F0997FD3DCD4098A981BA8116969F
:104B50001D921D921D921C92199733CD84E0EFEFA8
:104B6000CE16D104E104F10409F008F4E6CEC980C0
:104B7000DA80EB80FC809AE0F594E794D794C794B0
:104B80009A95D1F7B1E0CB1AD108E108F10885E098
:104B9000D4CE83E0BFEFCB16D104E104F10409F0D9
:104BA0000CF4CBCE62E17AE780E090E0A5019401BD
:104BB0000F941E2469017A0181E0C81AD108E10826
:104BC000F1089E81992351F286E02FEFC216D1049D
:104BD000E104F10491F088F0C980DA80EB80FC8078
:104BE0008AE0F594E794D794C7948A95D1F7F1E0D9
:104BF000CF1AD108E108F10887E09091B100987FC1
:104C0000892B8093B1009DCE8091B4039091B50320
:104C1000009731F04AE050E070E060E00D94161D1E
:104C200060E070E0CB010895EFDF97FD0AC0ECDF94
:104C30006F3F71058105910509F02CF4E5DF862FA2
:104C4000089580E008958FEF08958091B4039091C6
:104C5000B503892B39F0E8DF91E0811101C090E0C4
:104C6000892F089591E0FCCF8091B4039091B50312
:104C7000009731F04AE050E070E060E00D94411E92
:104C800060E070E0CB0108950F931F93CF93809164
:104C9000B4039091B5030097E9F0FC018F01C19135
:104CA0002C2F2F7D81F0C53411F0C536B9F7F801EE
:104CB000108270E060E00F94C11BF801C083CF91B7
:104CC0001F910F91089570E060E0CF911F910F91B7
:104CD0000D94C11B60E070E0CB01F1CF86E40E942F
:104CE000731C80937908882349F0CEDF60931C02FF
:104CF00070931D0280931E0290931F0283E50E9411
:104D0000731C882349F0C0DF60932402709325024E
:104D1000809326029093270282E40E94731C8823CA
:104D200049F0B2DF60932002709321028093220247
:104D3000909323020895CF92DF92EF92FF920F9308
:104D40001F93CF93DF9386ECC82E82E0D82E9DE38D
:104D5000E92E95E0F92E0FE61AE0D0E0C0E0F6016A
:104D600081916F010E94731C882309F478C08CDF45
:104D70009B01AC01FE01EF5BFB4F8081811105C0FF
:104D800080914504882309F466C0F801608171812F
:104D9000828193810F945A24F70160837183828307
:104DA00093832196F4E0EF0EF11C0C5F1F4FC4308B
:104DB000D105A9F686E40E94A61C8823B9F064DF19
:104DC00020E030E0A9010F94802618167CF45CDF07
:104DD00020E030E040E752E40F94362560934A0229
:104DE00070934B0280934C0290934D02809168081F
:104DF00083FD28C08091040F882321F120917B0A34
:104E000030917C0A40917D0A50917E0A609149055B
:104E100070914A0580914B0590914C050F9459244F
:104E20002091F60E3091F70E4091F80E5091F90E48
:104E30000F945A246093F60E7093F70E8093F80E39
:104E40009093F90EDF91CF911F910F91FF90EF900A
:104E5000DF90CF90089560E070E0CB019BCFF80128
:104E600080819181A281B381F70180839183A283A4
:104E7000B38397CF4F925F926F927F928F929F9260
:104E8000AF92BF92EF92FF920F931F93CF93DF9356
:104E9000CEE9D8E08FE7E82E8AE0F82E05E715E0A6
:104EA000412C512C320143946991799189919991C6
:104EB000F70181909190A190B1907F010F94F51F1F
:104EC000A50194010F9456200F94A325F801619336
:104ED0007193819391938F01461657066806790660
:104EE00010F42B013C01F8E0CE3ADF07E9F66FEF52
:104EF0007FEFCB01A30192010F94FC232093710556
:104F0000309372054093730550937405DF91CF91F0
:104F10001F910F91FF90EF90BF90AF909F908F9057
:104F20007F906F905F904F900895EF92FF920F9354
:104F30001F93CF93DF93E0914E08F0914F08428189
:104F400053816481758186819781A085B1854817D9
:104F500059076A077B0771F414161506160617061B
:104F60000CF074C08091850581FB992790F98170C0
:104F70008913EBC08091850584FF1FC09091610566
:104F80002CB12295269527702095892F20FB80F93A
:104F900080936105909160059170982371F01416CB
:104FA0001506160617064CF48091350A8160809329
:104FB000350A90E080E00E94EDE3E0914E08F09128
:104FC0004F08428153816481758186819781A085D4
:104FD000B185481759076A077B0769F4181619063F
:104FE0001A061B069CF52091850521FB332730F915
:104FF0002170231759F12091850525FF27C02091A5
:10500000610530910301369541E034273170C32F9B
:1050100030E0D32FD195C195D109C227C270DD27C9
:105020002C2720936105C0916005C270C22371F0E6
:10503000181619061A061B064CF48091350A826070
:105040008093350A81E090E00E94EDE3E0914E0804
:10505000F0914F0882859385A485B58518161906A9
:105060001A061B060CF066C08091850582FF62C09F
:105070008091610599B196959695969521E0922734
:10508000092F017010E0119501951109082704708E
:105090001127802780936105009160050470082323
:1050A00049F08091350A84608093350A82E090E06F
:1050B0000E94EDE38091140A8823E1F1809161055B
:1050C00099B19695969521E0922790FBEE24E0F811
:1050D000F12CF194E194F108E82698E0E922FF240C
:1050E000E826E0926105809160058870E822B1F0C1
:1050F000E0914E08F0914F0882859385A485B5858F
:10510000181619061A061B064CF48091350A886099
:105110008093350A82E090E00E94EDE38091610582
:1051200090916005892383FF05C08091350A8860CE
:105130008093350A8091610580936005DF91CF915E
:105140001F910F91FF90EF900895DB01CA014BCFA3
:10515000FC0120E03EE2DB014D91BD01403249F00F
:10516000283011F430833196DB0111974C91408344
:1051700031962F5F2B3079F71082089561E0FC01A2
:1051800080810C94B9FA8EBD0DB407FEFDCF089551
:105190008FEF8EBD0DB407FEFDCF8EB508958F92B3
:1051A0009F92AF92BF92EF92FF920F931F93CF9374
:1051B0007C01C62F49015A01FC019281892F806A26
:1051C00086958CBD90FD03C081E0963009F480E0A7
:1051D0008DBD60E0F70180810E94B9FA8CE291E018
:1051E0000E9409FD8C2F8064CEDF08E110E0D5011C
:1051F000C401002E04C0B695A795979587950A948B
:10520000D2F7C1DF08501109083FFFEF1F0779F7F8
:1052100085E9CC2321F087E8C83009F08FEFB3DFB0
:10522000CC3009F4B5DFC0E0B3DFF701838387FF3B
:1052300004C0CF3F11F0CF5FF7CFCF911F910F91F7
:10524000FF90EF90BF90AF909F908F9008950F9335
:105250001F93CF93DF93EC0189018C81833039F068
:1052600089E0440F551F661F771F8A95D1F79A0171
:10527000AB0168E1CE0193DF882319F086E08983D2
:1052800035C08EEF8EBDF801C8019E5F0DB407FEDC
:10529000FDCF20812EBD0DB407FEFDCF21812EBD97
:1052A0003296E817F90791F70DB407FEFDCF8FEF9F
:1052B0006ADF8FEF68DF6CDF8B838F71853091F44D
:1052C00088E592E00E9409FD182F87E11123B9F2C9
:1052D00020E030E0A9016DE0CE0161DF882351F0CC
:1052E00086E1CDCF83E18983CE0148DFCE0146DF61
:1052F00010E005C04DDF8111F3CFCE013FDF812FDC
:10530000DF91CF911F910F910895CF9380919D0CC4
:10531000C1E0882399F04091950C5091960C6091D2
:10532000970C7091980C25E93AE080919E0C909131
:105330009F0C8DDFC82F811104C0C0E08C2FCF914E
:1053400008954091990C50919A0C60919B0C70912A
:105350009C0C411551056105710589F025E93AE07C
:1053600080919E0C90919F0C72DF882331F31092F4
:10537000990C10929A0C10929B0C10929C0C10920B
:105380009D0CDCCFEF92FF920F931F93CF93DF938F
:10539000EC0179018C81833039F089E0440F551F8D
:1053A000661F771F8A95D1F79A01AB0161E1CE01A3
:1053B000F6DE882331F084E08983CE01DFDE80E0F1
:1053C00034C00E948BFC8B01E3DE8B838F3F71F432
:1053D0000E948BFC601B710B6D327140A8F381E160
:1053E0008983CE01CBDE8FEFCEDEE9CF8E3F11F089
:1053F0008FE0F6CF8FEF8EBDF701D701A150BE4FE2
:105400000DB407FEFDCF9EB591938EBDAE17BF07BD
:10541000B9F70DB407FEFDCF8EB58C93B9DEB8DEBB
:10542000CE01ACDE8FEFAFDE81E0DF91CF911F9137
:105430000F91FF90EF900895CF92DF92EF92FF923D
:10544000CF936B017C01C42F8091950C9091960CA9
:10545000A091970CB091980C8C159D05AE05BF05D9
:10546000F1F053DF811108C0C0E08C2FCF91FF9085
:10547000EF90DF90CF90089525E93AE0B701A601BB
:1054800080919E0C90919F0C7DDF882369F3C092E0
:10549000950CD092960CE092970CF092980CCC233D
:1054A00021F081E080939D0CE0CFC1E0DECF4F92F0
:1054B0005F926F927F928F929F92AF92BF92CF92A4
:1054C000DF92EF92FF920F931F93CF93DF93EC0144
:1054D000423051056105710590F480E0DF91CF9174
:1054E0001F910F91FF90EF90DF90CF90BF90AF9002
:1054F0009F908F907F906F905F904F9008958985D7
:105500009A85AB85BC850196A11DB11D84179507B1
:10551000A607B70710F38F898031C1F5852E962E27
:10552000A72EBB248B899C89AD89BE89880E991EC4
:10553000AA1EBB1E280139016A017B0141E0C50199
:10554000B4017ADF882349F29F89903181F5DD2407
:10555000EE24FF24F601EE0FFF1FEB56F54F1183EB
:1055600000839A89923008F4B9CF4D815E816F81B2
:105570007885840E951EA61EB71E8092990C909277
:105580009A0CA0929B0CB0929C0CA8CF803209F090
:10559000A4CF8B899C89AD89BE894A015B01E7E074
:1055A000B694A79497948794EA95D1F7BFCFE894DF
:1055B000C7F8DD24EE24FF24F601EE0FFF1FEE0FE7
:1055C000FF1FEB56F54F4082518262827382C9CF32
:1055D000CF92DF92EF92FF920F931F93CF93DF93BF
:1055E000FC0181859285A385B4850196A11DB11D1D
:1055F00084179507A607B70750F480E0DF91CF9195
:105600001F910F91FF90EF90DF90CF9008958789C1
:105610008031A9F5BB27A72F962F852FC388D48863
:10562000E588F6888C0D9D1DAE1DBF1DE9016A0140
:105630007B018F014091950C5091960C6091970CD5
:105640007091980C84179507A607B70749F5F801DC
:105650008789803161F5B701A6015527662777272D
:10566000440F551F4B56554FFA0180819181B0E090
:10567000A0E088839983AA83BB8381E0BFCF803277
:1056800009F0BBCFC388D488E588F688DB01CA015E
:10569000C7E0B695A79597958795CA95D1F7C2CFDC
:1056A00040E0BC01CD01C8DE8111D1CFA6CFB7014A
:1056B000A6014F77552766277727440F551F440FBC
:1056C000551F4B56554FFA0180819181A281B381BC
:1056D000BF70CFCF4F925F926F927F92AF92BF9287
:1056E000CF92DF92EF92FF920F931F93CF93DF93AE
:1056F00000D01F92CDB7DEB78C0149835A836B83EC
:105700007C835901C12CD12C7601412C82E0582E8A
:10571000612C712C49815A816B817C819E012F5FA4
:105720003F4FC80155DF882319F1F8018585A30192
:10573000920104C0220F331F441F551F8A95D2F7D0
:10574000DA01C901C80ED91EEA1EFB1E49815A8121
:105750006B817C8187898031F1F481E0483F5F4F24
:1057600061057105B8F2F501C082D182E282F3824F
:105770000F900F900F900F90DF91CF911F910F918D
:10578000FF90EF90DF90CF90BF90AF907F906F90A1
:105790005F904F90089581E0483F5F4F6F4F7F408B
:1057A00008F4B8CFE0CF0F931F93CF93DF93FC01A2
:1057B0002381222331F080E0DF91CF911F910F915F
:1057C00008958B01EC01FB018789803139F582E076
:1057D0008B831D8A1E8A1F8A188E808D918DB0E062
:1057E000A0E025E0880F991FAA1FBB1F2A95D1F7BB
:1057F000898B9A8BAB8BBC8B1A8F098F81E0898345
:10580000188619861A861B861C821D821E821F829C
:10581000188A1C861D861E861F86CECF803259F6BA
:1058200083E08B83428D538D648D758D4D8B5E8BA4
:105830006F8B788F9E012F5E3F4FC8014BDF811128
:10584000DBCFB9CF8F929F92AF92BF92CF92DF9270
:10585000EF92FF920F931F93CF93DF93EC018B8115
:1058600081110EC080E0DF91CF911F910F91FF90C9
:10587000EF90DF90CF90BF90AF909F908F90089562
:1058800009891A892B893C890417150726073707C8
:1058900048F34A015B01823031F488869986AA86F2
:1058A000BB8681E0E0CF81149104A104B10449F4E6
:1058B000188619861A861B861C821D821E821F82EC
:1058C000F0CF088519852A853B85E98DFA8D858578
:1058D00090E00996B901A801415051096109710987
:1058E000082E04C076956795579547950A94D2F788
:1058F00075016401E1E0CE1AD108E108F10804C0A5
:10590000F694E794D794C7948A95D2F7C416D5062F
:10591000E606F70620F0012B022B032B09F58D89F3
:105920009E89AF89B88D8C839D83AE83BF838E01A2
:105930000C5F1F4FC114D104E104F10409F4ADCF91
:105940004C815D816E817F819801898D9A8D40DEC9
:1059500091E0C91AD108E108F1088111EBCF82CF9B
:10596000C41AD50AE60AF70AE2CF40E050E0BA01CD
:1059700069CF3F924F925F926F927F928F929F92E8
:10598000AF92BF92CF92DF92EF92FF920F931F934D
:10599000CF93DF93CDB7DEB72C970FB6F894DEBF69
:1059A0000FBECDBF5C01DC0159968D909C90F40137
:1059B00081859285A385B4859C01AD012F5F3F4F02
:1059C0004F4F5F4F29873A874B875C87D5011496E5
:1059D0004D905D906D907C90179741145104610437
:1059E000710409F458C0BFEF4B1A5B0A6B0A7B0ABB
:1059F000312C730162011D821E821F821886F40100
:105A000081859285A385B4852D813E814F815885FE
:105A1000281739074A075B0708F054C089859A851B
:105A2000AB85BC858C159D05AE05BF0550F482E0A5
:105A3000C82ED12CE12CF12C92E0492E512C612C56
:105A4000712C9E012F5F3F4FB701A601C401C0DD3D
:105A50008823C1F189819A81AB81BC81892B8A2BF2
:105A60008B2B01F1260137019FEF491A590A690A68
:105A7000790A2D813E814F8158852F5F3F4F4F4FCF
:105A80005F4F2D833E834F8358873FEFC31AD30A5E
:105A9000E30AF30AB4CF40805180628073803324DC
:105AA0003394A7CFC414D504E604F70411F70FEF1D
:105AB0001FEF2FEF3FE0B701A601C401F8DC782EFD
:105AC00081111AC0712C872D2C960FB6F894DEBF69
:105AD0000FBECDBFDF91CF911F910F91FF90EF903F
