:100000000C94121C0C94431C0C94431C0C94431C25
:100010000C94431C0C94431C0C94431C0C94431CE4
:100020000C94431C0C94431C0C94431C0C94431CD4
:100030000C94431C0C9476630C94431C0C94431C4A
:100040000C94431C0C9488590C94431C0C94431C32
:100050000C94431C0C94431C0C94F37A0C943C6A4F
:100060000C94431C0C94153F0C94431C0C94431C9F
:100070000C94431C0C94431C0C94431C0C94431C84
:100080000C94431C0C94431C0C94431C0C94431C74
:100090000C94431C0C94431C0C94431C0C94431C64
:1000A0000C94431C0C94431C0C94431C0C94431C54
:1000B0000C94431C0C94431C0C94431C0C94431C44
:1000C0000C94431C0C94431C0C94431C0C94431C34
:1000D0000C94431C0C94431C0C94431C0C94431C24
:1000E0000C94431C01680468F367F767FD673B687D
:1000F00008680C68126816681A68206824682868FE
:100100003B682E683268366858695D6962696C6957
:100110007669EF698069886990699A69A469AE69AE
:10012000BD69C769EF69D169DB69E569BBF1FEEFBC
:1001300037F0F7F137F037F037F037F037F037F0C6
:1001400037F037F037F037F037F037F037F037F077
:1001500037F037F037F037F037F037F037F037F067
:1001600037F037F037F037F0F1F137F037F037F09C
:1001700037F037F037F037F037F0CAF137F037F0B3
:1001800037F037F037F037F037F037F037F037F037
:100190000EF234F0084AD73B3BCE016E84BCBFFD63
:1001A000C12F3D6C74319ABD56833DDA3D00C77F47
:1001B00011BED9E4BB4C3E916BAAAABE00000080E0
:1001C0003F05A84CCDB2D44EB93836A9020C50B96F
:1001D000918688083CA6AAAA2ABE000000803F009B
:1001E0000D94450A0D9433130D9427184E414E4932
:1001F0004E495459494E46CDCCCC3D0AD7233C17E5
:10020000B7D13877CC2B329595E6241FB14F0A0031
:100210000020410000C84200401C4620BCBE4CCA21
:100220001B0E5AAEC59D74434F4D4D554E4943412B
:1002300054494F4E0044525952554E004552524F68
:10024000525300494E464F004543484F0047322F16
:1002500047332062616420706172616D65746572FC
:10026000730A00536C6565702E2E2E00205A3A20BA
:100270000020593A200042656420583A2000526517
:1002800073756D696E67207072696E74005A3946B5
:100290002072656164792E00436C69636B20746F12
:1002A00020726573756D652E2E2E004E6F206D6F5A
:1002B00076652E00456E642066696C65206C6973F6
:1002C000740A00426567696E2066696C65206C6916
:1002D00073740A004D313235005344207072696ED8
:1002E00074696E67206279746520004E6F742053C4
:1002F00044207072696E74696E670A005072696E8C
:10030000742074696D653A200050726F746563746F
:1003100065642050696E0A004525692025730048F0
:100320000243023C02350227026F666600444542E2
:1003300055473A004B494C4C45442E20006F6B000A
:1003400042656420646F6E652E0020573A00426556
:10035000642048656174696E672E005A3946204FE3
:1003600066662E00454D455247454E43595F504104
:100370005253455200434153455F4C494748545FEF
:100380004252494748544E45535300544F47474CF7
:10039000455F4C494748545300534F4654574152C8
:1003A000455F504F574552004255494C445F5045B8
:1003B0005243454E54004C4556454C494E475F44C8
:1003C000415441005A5F50524F4245004155544FED
:1003D0004C4556454C005052494E545F4A4F4200DE
:1003E00050524F4752455353004155544F52455078
:1003F0004F52545F54454D5000564F4C554D455447
:1004000052494300454550524F4D005345524941D2
:100410004C5F584F4E5F584F4646004649524D5725
:100420004152455F4E414D453A4D61726C696E20B7
:1004300042617365206F6E204D61726C696E312E62
:10044000312E3820284769746875622920534F552A
:100450005243455F434F44455F55524C3A6874746C
:1004600070733A2F2F6769746875622E636F6D2FF2
:100470007A6F6E657374617233642050524F544FBB
:10048000434F4C5F56455253494F4E3A312E302020
:100490004D414348494E455F545950453A5A3946B3
:1004A0002045585452554445525F434F554E543A97
:1004B0003120555549443A30303030303031302DCC
:1004C000303830382D303030332D303030302D3220
:1004D000303138303131303030310A002F2F2000A8
:1004E0004D31343520533C696E6465783E206F751C
:1004F00074206F662072616E67652028302D312967
:100500000A0053657474696E672054726176656C75
:1005100020416363656C65726174696F6E3A200097
:1005200053657474696E67205265747261637420D8
:10053000416363656C65726174696F6E3A20005344
:10054000657474696E67205072696E7420416363CC
:10055000656C65726174696F6E3A200053657474DE
:10056000696E67205072696E7420616E64205472E7
:100570006176656C20416363656C65726174696F57
:100580006E3A2000205A00205900580020204D616A
:10059000783A2000205A00205900580020204D6948
:1005A0006E3A20004F6E20004F666600536F6674EF
:1005B00020656E6473746F70733A200000013C3DD7
:1005C0003803FF3637260EFF2E303E12FF13FF088A
:1005D0000906FFFF1A1C18FFFF24221E28271608F1
:1005E000440A0643FFFFFFFFFFFF20643A00206933
:1005F0003A0020703A0043290A0061626C65642069
:10060000286D696E2074656D702000436F6C6420E6
:100610006578747275646573206172652000426547
:1006200064204C6576656C696E6720004661696C74
:10063000656420746F20656E61626C65204265643C
:10064000204C6576656C696E670A00426564204CD3
:100650006576656C20436F7272656374696F6E2096
:100660004D61747269783A003A2000207A5F6D69B2
:100670006E3A20202D3230207A5F6D61783A20204A
:1006800032300A0050726F6265205A204F666673DE
:100690006574004E6F2063617365206C69676874D0
:1006A0000A00556E6B6E6F776E20636F6D6D616EB5
:1006B000643A2022002569730025696D202569733D
:1006C000002569682025696D202569730025696406
:1006D000202569682025696D2025697300256979C1
:1006E00020256964202569682025696D20256973A6
:1006F000004B494C4C45442E200053544F5050451C
:10070000442E20005072696E7465722073746F708D
:100710007065642064756520746F206572726F72F5
:10072000732E2046697820746865206572726F7236
:1007300020616E6420757365204D39393920746FDE
:1007400020726573746172742E202854656D706513
:100750007261747572652069732072657365742E99
:100760002053657420697420616674657220726517
:100770007374617274696E67290A004E6F20436852
:1007800065636B73756D2077697468206C696E653D
:10079000206E756D6265722C204C617374204C69FB
:1007A0006E653A2000636865636B73756D206D69D3
:1007B000736D617463682C204C617374204C696E96
:1007C000653A20004C696E65204E756D6265722039
:1007D0006973206E6F74204C617374204C696E6570
:1007E000204E756D6265722B312C204C6173742024
:1007F0004C696E653A20004D313130004D33310087
:1008000053442072656164206572726F720A0044FD
:100810006F6E65207072696E74696E672066696CB0
:10082000650A0020706F736974696F6E206F75744C
:10083000206F662072616E67652E0A003F50726FEE
:10084000626520000A0A426564204C6576656C206A
:10085000436F7272656374696F6E204D6174726963
:10086000783A00202B000A436F72726563746564E6
:1008700020426564204865696768742076732E207D
:1008800042656420546F706F6C6F67793A0A00207C
:100890002B000A4265642048656967687420546FBC
:1008A000706F6772617068793A0A2020202B2D2DB5
:1008B0002D204241434B202D2D2B0A2020207C202F
:1008C000202020202020202020207C0A204C207C5A
:1008D00020202020282B29202020207C20520A2084
:1008E00045207C20202020202020202020207C202B
:1008F000490A2046207C20282D29204E20282B29FB
:10090000207C20470A2054207C20202020202020EA
:10091000202020207C20480A2020207C202020200D
:10092000282D29202020207C20540A2020207C20D3
:10093000202020202020202020207C0A2020204F42
:100940002D2D2046524F4E54202D2D2B0A2028307D
:100950002C30290A004D65616E206F662073616D31
:10096000706C656420706F696E74733A2000206447
:100970003A200020623A200045716E20636F656660
:1009800066696369656E74733A20613A20002028B5
:1009900044525952554E2900473239204175746FDF
:1009A00020426564204C6576656C696E670028425C
:1009B0002961636B00284629726F6E7400285229E2
:1009C0006967687400284C29656674003F4E756D30
:1009D000626572206F662070726F626520706F6949
:1009E0006E747320697320696D706C6175736962D0
:1009F0006C65202832206D696E696D756D292E0A2F
:100A0000003F2856296572626F7365206C657665B4
:100A10006C20697320696D706C61757369626C65B7
:100A20002028302D34292E0A004C696E6561722011
:100A30004C6576656C696E6700457874727564659F
:100A400072733A203300687474703A2F2F77777777
:100A50002E7A6F6E657374617233642E636F6D00EE
:100A60005A394600323031392D31302D323500427D
:100A7000617365206F6E204D61726C696E312E312D
:100A80002E380056310048656174657220546573D4
:100A900074696E67004D31303420533236300A4D60
:100AA00031343020533131350A4D31303620533016
:100AB0000A004175746F20557020646F776E004D89
:100AC00032303320583135302059313530205A31C9
:100AD000360A473020583331302059333130205ACC
:100AE00034303020463936300A47302058302059CB
:100AF00030205A313020463936300A4730205833BA
:100B000030302059333030205A3430302046393696
:100B1000300A4730205830205930205A3130204692
:100B20003936300A4730205833313020593331308C
:100B3000205A34303020463936300A473020583079
:100B4000205930205A313020463936300A4730207B
:100B5000583331302059333130205A343030204628
:100B60003936300A4730205830205930205A313039
:100B700020463936300A4730205833313020593337
:100B80003130205A34303020463936300A47302050
:100B90005830205930205A313020463936300A47F3
:100BA00032380A4D32303320583135302059313007
:100BB00030205A380A4D3330302053333030302013
:100BC0005031303030004661737420746F20426FB2
:100BD00074746F6D004D32303320583135302059E8
:100BE000313530205A31360A4732382058300A47DA
:100BF00030205A3020463936300A4D3230332058B2
:100C00003135302059313030205A380A004661736E
:100C10007420746F20546F70004D3230332058317F
:100C200035302059313530205A31360A4730205876
:100C30003331302059333130205A34303020463966
:100C400036300A4D3230332058313530205931306A
:100C500030205A380A004175746F20686F6D650046
:100C6000473238005072696E746572205374617433
:100C70007300546865726D6973746F727300426FAC
:100C800061726420496E666F005072696E7465729D
:100C900020496E666F004D61696E0020204E6F7AAC
:100CA0007A6C653A200020004261636B004D696EEA
:100CB000696D756D2054656D702069732031353014
:100CC0002E0048656174696E67206661696C6564B1
:100CD0000045787472756465206D6F7265005265A9
:100CE00073756D65207072696E7400524553554D71
:100CF00045204F5054494F4E533A0020204E6F7AB2
:100D00007A6C653A20006368616E6765006F6620E3
:100D10007468652066696C616D656E740057616901
:100D20007420666F72207374617274005052494E61
:100D300054205041555345440020204E6F7A7A6C20
:100D4000653A2000200066696C616D656E742075DF
:100D50006E6C6F6164005761697420666F72005039
:100D600052494E54205041555345440020204E6F67
:100D70007A7A6C653A20002000506C6561736520BA
:100D8000776169742E2E2E0048656174696E672044
:100D90006E6F7A7A6C65005052494E54205041551E
:100DA0005345440020204E6F7A7A6C653A2000202B
:100DB0000068656174206E6F7A7A6C652E005072DF
:100DC00065737320627574746F6E20746F00505277
:100DD000494E54205041555345440020204E6F7ACF
:100DE0007A6C653A2000746F20636F6E74696E755B
:100DF000652E2E2E00616E64207072657373206202
:100E00007574746F6E00496E736572742066696CD8
:100E1000616D656E74005052494E542050415553D7
:100E200045440020204E6F7A7A6C653A20002000FD
:100E300066696C616D656E74206C6F6164005761EA
:100E4000697420666F72005052494E5420504155CB
:100E50005345440020204E6F7A7A6C653A2000207A
:100E60000066696C616D656E742065787472756476
:100E700065005761697420666F72005052494E5484
:100E8000205041555345440024F4D43050C38E20A3
:100E9000C2A24017828B7011127A910D816CD90A0F
:100EA000A861E108C7586607615143061E4B5D05FE
:100EB000C145A7041A411104093D98037139310352
:100EC0004036DB0265339102D4305402802E1D027D
:100ED000632CEE01752AC501B028A00110278101FD
:100EE0008F2564012B244B01E0223401AC211F012A
:100EF0008D200D01801FFC00841EED00971DDF007A
:100F0000B81CD200E61BC600201BBC00641AB2004D
:100F1000B219A8000A19A0006A189900D117910007
:100F200040178B00B516840031167E00B31579008A
:100F30003A157300C7146F0058146A00EE13660068
:100F40008813630025135E00C7125B006C12570004
:100F500015125400C111510070114F0021114B00A6
:100F6000D61049008D104700461044000210420080
:100F7000C00F4000800F3E00420F3C00060F3B00B8
:100F8000CB0E3800930E37005C0E3500270E340070
:100F9000F30D3200C10D3100900D3000600D2E00B8
:100FA000320D2D00050D2C00D90C2B00AE0C2900A4
:100FB000850C29005C0C2700350C27000E0C260040
:100FC000E80B2400C40B2400A00B23007D0B23009E
:100FD0005A0B2100390B2100180B2000F80A1F00C2
:100FE000D90A1E00BB0A1E009D0A1D00800A1D00B2
:100FF000630A1C00470A1B002C0A1B00110A1A0076
:10100000F7091A00DD091900C4091900AB09190014
:10101000920917007B091800630917004C09160094
:1010200036091600200916000A091500F5081500F2
:10103000E0081400CC081400B8081400A408140038
:10104000900813007D0812006B0813005808120066
:10105000460812003408110023081100120811007C
:1010600001081100F0071000E0071000D007100081
:10107000C0071000B0070F00A107100091070E0075
:1010800083070F0074070F0065070E0057070E0057
:1010900049070E003B070D002E070E0020070D002C
:1010A00013070D0006070D00F9060C00ED060D00F4
:1010B000E0060C00D4060C00C8060C00BC060C00B0
:1010C000B0060C00A4060B0099060C008D060B0060
:1010D00082060B0077060B006C060B0061060A0007
:1010E00057060B004C060A0042060A0038060A00A2
:1010F0002E060A0024060A001A060A001006090035
:1011000007060A00FD050900F4050900EB050900C2
:10111000E2050900D9050900D0050900C705090045
:10112000BE050900B5050800AD050800A5050900C4
:101130009C050800940508008C050800840508003B
:101140007C050800740508006C05070065050800AB
:101150005D050700560508004E0507004705070016
:101160004005080038050700310507002A0507007B
:10117000230507001C050600160507000F050700DC
:101180000805060002050700FB040600F504070039
:10119000EE040600E8040600E2040700DB04060093
:1011A000D5040600CF040600C9040600C3040600E7
:1011B000BD040600B7040600B1040500AC04060037
:1011C000A6040600A00405009B0406009504050083
:1011D000900406008A0405008504050080040600CA
:1011E0007A04050075040500700405006B04050011
:1011F00066040500610405005C0405005704050051
:10120000520405004D040500480405004304050090
:101210003E0404003A0405003504050030040400CF
:101220002C04050027040400230405001E04040008
:101230001A04040016040500110404000D0404003F
:10124000090405000404040000040400FC03040075
:10125000F8030400F4030400F0030400EC030400AA
:10126000E8030400E4030400E0030400DC030400DA
:10127000D8030400D4030400D0030400CC0304000A
:10128000C8030300C503030024F404D9201BC40CC5
:101290005C0E9804C4095F0265077101F405F9004A
:1012A000FB04B30048048700C103690058035500DC
:1012B00003034500BE023A008402310053022A00B3
:1012C0002902250004022000E4011C00C8011900C5
:1012D000AF01170098011400840113007101100080
:1012E0006101100051010E0043010D0036010B0099
:1012F0002B010B0020010B00150109000C01090056
:1013000003010800FB000800F3000800EB000700E1
:10131000E4000600DE000600D8000600D200060049
:10132000CC000500C7000500C2000500BD00040098
:10133000B9000400B5000400B1000400AD000400D1
:10134000A9000400A5000300A20003009F00040000
:101350009B00030098000300950002009300030027
:10136000900003008D0002008B0003008800020043
:101370008600020084000300810002007F0002005A
:101380007D0002007B00020079000200770001006E
:101390007600020074000200720001007100020079
:1013A0006F0002006D0001006C0002006A00010085
:1013B000690002006700010066000100650001008D
:1013C0006400020062000100610001006000010091
:1013D0005F0002005D0001005C0001005B00010095
:1013E0005A00010059000100580001005700010097
:1013F0005600010055000100540001005300000098
:101400005300010052000100510001005000010092
:101410004F0001004E0000004E0001004D00010091
:101420004C0001004B0000004B0001004A0001008D
:101430004900010048000000480001004700010089
:101440004600000046000100450000004500010084
:10145000440001004300000043000100420000007E
:101460004200010041000000410001004000010075
:101470003F0000003F0001003E0000003E00010070
:101480003D0000003D0001003C0000003C00000069
:101490003C0001003B0000003B0001003A0000005E
:1014A0003A00010039000000390001003800000056
:1014B000380000003800010037000000370001004C
:1014C0003600000036000000360001003500000044
:1014D0003500000035000100340000003400000039
:1014E000340001003300000033000000330001002D
:1014F0003200000032000000320001003100000024
:101500003100000031000100300000003000000018
:10151000300001002F0000002F0000002F0000000D
:101520002F0001002E0000002E0000002E00010000
:101530002D0000002D0000002D0000002D000100F6
:101540002C0000002C0000002C0000002C000100EA
:101550002B0000002B0000002B0000002B000100DE
:101560002A0000002A0000002A0000002A000100D2
:1015700029000000290000002900000029000000C7
:1015800029000100280000002800000028000000B9
:1015900028000000280001002700000027000000AC
:1015A000270000002700000027000100260000009F
:1015B0002600000026000000260000002600010092
:1015C0002500000025000000250000002500000087
:1015D0002500000025000100240000002400000078
:1015E000240000002400000024000100230000006B
:1015F000230000002300000023000000230000005F
:10160000230000002300010022000000220000004F
:101610002200000022000000220000002200010041
:101620002100000021000000210000002100000036
:101630002100000021000000210001002000000026
:10164000200000002000000020000000200000001A
:101650002000000020000000200001001F0000000A
:101660001F0000001F0000001F0000001F000000FE
:101670001F0000001F0001001E0000001E000000EF
:101680001E0000001E0000004D3834205820592054
:101690005A20450002000000000000000000000089
:1016A000000000000000000000000000000000003A
:1016B000000000000000000000000000000000002A
:1016C000000000000000000000000000000000001A
:1016D000000000000007FF01FE070183FE0FF8FF76
:1016E000F807007FC007FF83FF0F8187FE1FF8FF09
:1016F000F80F80FFE007FFC7038F818FFC3FF0FFEB
:10170000F81FC0E0E00003C6018FC18C003800075D
:10171000001FC0C060000786018CC18C003000072C
:10172000003DE0C060000F06018CE18C003800072E
:101730000038E0E0E0001E06018C618FFE3FF007FC
:101740000038E0FFC0003C06018C618FFE1FF807E7
:10175000003060FF80007806018C318FFC0FFC07A1
:10176000007270FC0000F006018C318E00001C0736
:10177000006230CE0001E006018C398C00000C07BD
:10178000006730C70003C006018C198C00000C07ED
:10179000006730C380078007038C198E00001C0788
:1017A00000CF98C1C007FFC7FF8C0F8FFF1FFC073A
:1017B00000CF98C0F003FFC3FF0C0F87FF3FF8076F
:1017C00000DFD8C07001FFC1FE0C0701FE3FF0072B
:1017D0000000000000000000000000000000000009
:1017E00000000000000000000000000000000000F9
:1017F00000000000000000000000000000000000E9
:1018000000000000000000000000000000000000D8
:1018100000000000002020506C616E6E6572427501
:101820006666657242797465733A20002046726577
:1018300065204D656D6F72793A2000436F6D706958
:101840006C65643A204F637420323620323031396F
:101850000A00207C20417574686F723A2028486124
:101860006C6C79405A4F4E4553544152290A00320C
:101870003031392D31302D323500204C61737420D8
:10188000557064617465643A200042617365206F2D
:101890006E204D61726C696E312E312E380A004D0A
:1018A00061726C696E0020536F6674776172652097
:1018B00052657365740A00205761746368646F67CA
:1018C0002052657365740A002042726F776E206F34
:1018D00075742052657365740A00204578746572CA
:1018E0006E616C2052657365740A00506F77657283
:1018F00055700A0073746172740A006572726F72B7
:101900002077726974696E6720746F2066696C65F0
:101910000A00456E6473746F70732025632025631D
:101920002025632025630020503A00205A3A0020E9
:10193000593A0020583A00656E6473746F707320D2
:101940006869743A2000446F6E6520736176696E31
:10195000672066696C652E0A004D323900506C654F
:10196000617365207265736574005052494E544529
:10197000522048414C544544005072696E7465725F
:101980002068616C7465642E206B696C6C2829205A
:1019900063616C6C6564210A00656E7175657565BF
:1019A000696E672022000000A0C00000A0C00000F7
:1019B00000000000484200004842000000400000D3
:1019C00000005761726E696E673A20486F6D696EEC
:1019D000672042756D702044697669736F72203C90
:1019E00020310A000202040000A0400000A04000D4
:1019F0000000400080A24300809D430000C843FFD8
:101A0000FFFF4D36303020486F74656E6420746F70
:101A10006F20636F6C6420746F206368616E67650C
:101A20002066696C616D656E740A0000060900FE2F
:101A30000701920321207FFF07FF07FF0000000638
:101A4000000001070706020080808080800080037C
:101A50000202060105A0A00507070600005050F885
:101A600050F850500507070600002078A07028F0B5
:101A700020050707060000C0C81020409818050779
:101A8000070600006090A040A890680203030601CA
:101A900004C040800307070601002040808080408A
:101AA0002003070706010080402020204080050514
:101AB0000506000120A870A82005050506000120E4
:101AC00020F820200203030602FFC0408005010128
:101AD000060003F8020202060200C0C00505050662
:101AE0000001081020408005070706000070888864
:101AF0008888887003070706010040C040404040C6
:101B0000E0050707060000708808708080F8050768
:101B100007060000F81020100808F0050707060067
:101B20000010305090F81010050707060000F880EC
:101B3000F008088870050707060000708080F088AC
:101B40008870050707060000F808102020202005EF
:101B500007070600007088887088887005070706E8
:101B6000000070888878080870020505060200C029
:101B7000C000C0C00206060602FFC0C000C0408010
:101B800004070706000010204080402010050303D2
:101B9000060002F800F80407070601008040201044
:101BA00020408005070706000070880810200020EC
:101BB00005070706000070880868A8A870050707D1
:101BC000060000708888F8888888050707060000E6
:101BD000F08888F08888F005070706000070888084
:101BE00080808870050707060000F088888888884C
:101BF000F0050707060000F88080F08080F80507F0
:101C000007060000F88080F0808080050707060046
:101C100000708880B88888700507070600008888EB
:101C200088F8888888010707060200808080808005
:101C3000808005070706000038101010109060051E
:101C400007070600008890A0C0A090880507070637
:101C50000000808080808080F805070706000088EB
:101C6000D8A8888888880507070600008888C8A83B
:101C7000988888050707060000708888888888701B
:101C8000050707060000F08888F0808080050707B8
:101C900006000070888888A890680507070600007D
:101CA000F08888F0A09088050707060000788080FB
:101CB000700808F0050707060000F8202020202003
:101CC000200507070600008888888888887005072F
:101CD00007060000888888888850200507070600C6
:101CE000008888888888A85005070706000088882B
:101CF00050205088880507070600008888885020F3
:101D00002020050707060000F80810204080F8038F
:101D10000707060100E08080808080E00505050659
:101D200000018040201008030707060100E0202082
:101D3000202020E00503030600042050880501014F
:101D4000060000F8020202060205804005050506AD
:101D5000000070087888780507070600008080B0CA
:101D6000C88888F005050506000070808088700529
:101D700007070600000808689888887805050506A2
:101D800000007088F880700507070600003048E002
:101D9000404040400506060600FF708888780870BD
:101DA0000507070600008080B0C8888888010707FB
:101DB000060200800080808080800308080601FF02
:101DC000200020202020A04004070706000080807B
:101DD00090A0C0A090030707060100C0404040400B
:101DE00040E0050505060000D0A8A8A8A80505053F
:101DF000060000B0C88888880505050600007088C0
:101E00008888700506060600FFF08888F080800547
:101E100006060600FF78888878080805050506008C
:101E200000B0C8808080050505060000708070083D
:101E3000F00407070600004040E040404030050540
:101E40000506000088888898680505050600008852
:101E5000888850200505050600008888A8A8500538
:101E6000050506000088502050880506060600FF7C
:101E7000888888780870050505060000F81020405D
:101E8000F80307070601002040408040402001077A
:101E9000070602008080808080808003070706019B
:101EA0000080404020404080050202060002689009
:101EB00000000006000000002100240027002A0086
:101EC0002D003000330001010000040107010A0168
:101ED00000002200250028002B002E0031003400D5
:101EE00002010000050108010B0100002000230091
:101EF000260029002C002F00320000010000030101
:101F0000060109010505050507050808080802027C
:101F100002020A0A08080404040401010101010183
:101F200001010303030303030303040707070C0C66
:101F30000C0C0C0C0C0C020202020606060606062D
:101F400006060B0B0B0B0B0B0B0B010210202008D2
:101F50000810204010204080020102010804020104
:101F60000102040810204080804020100804020173
:101F700080040201804020100804020108040201CC
:101F80000102040810204080010204081020408053
:101F900000000A0B02090C0D0E08070304010000E3
:101FA0000000000000000000000000000000000031
:101FB00000000000000000000000000012111000EE
:101FC0000000000000000000000000000000000011
:101FD00000000000000025753A25303275002530DC
:101FE00032753A25303275002575642025303275FA
:101FF0003A25303275005A00590058004D616E750F
:10200000616C0052616E646F6D004C696E65617247
:102010000009200000000000000000000000000097
:102020007FFFE000000000000000000000000070E2
:1020300000E000000000000000000000000061F867
:102040006000000000000000000000000041F820D7
:1020500000000000000000000000000040F0200030
:1020600000000000000000000000004060200000B0
:10207000000000000000000000005801A0FFC003A5
:10208000B807700EE0004081005C63A07F8003B859
:1020900007700EE0002040805EF7A07F8001B00353
:1020A0006006C0002040805EF7A07F8001B0036022
:1020B00006C0004081005C63A07F8007BFFF7FFEF9
:1020C000F0008102005801A03F000780000000F0EE
:1020D00001020400406020FFC007FFFC1FFFF00169
:1020E00002040040F020FFC007FFFE3FFFF0008128
:1020F000020041F820FFC000000F7800000040817E
:102100000061F8603F000000077000000000000060
:102110007000E01E0000000360000001FFFF807FF0
:10212000FFE00C0000000140000001FFFF80000004
:10213000000000000000000000000000007FFFE041
:102140000000000000000000000000007000E0003F
:102150000000000000000000000000630C600000B0
:1021600000000000000000000000470E20000000FA
:102170000000000000000000004F0F2000000000E1
:1021800000000000000000005F0FA0000000000041
:10219000000000000000005E07A0FFC003B8077049
:1021A0000EE0004081004060207F8003B807700E81
:1021B000E00020408040F0207F8001B0036006C036
:1021C0000020408040F0207F8001B0036006C00006
:1021D0004081004060207F8007BFFF7FFEF00081CC
:1021E00002005E07A03F000780000000F00102042B
:1021F000005F0FA0FFC007FFFC1FFFF001020400FB
:102200004F0F20FFC007FFFE3FFFF0008102004795
:102210000E20FFC000000F78000000408100630C1A
:10222000603F00000007700000000000007000E048
:102230001E0000000360000001FFFF807FFFE00C34
:102240000000000140000001FFFF8000000030019D
:102250002C01400127015001220170011D01900154
:102260001801B0011301C0010E01F00109011002B3
:1022700004013002FF006002FA009002F500C00283
:10228000F0000003EB004003E6008003E100D00310
:10229000DC002004D700E004D200C005CD004006D9
:1022A000C800D006C3008007BE00F008B90040098E
:1022B000B400C009AF00B00AAA00B00BA500D00C52
:1022C000A000000E9B00C010960050129100001458
:1022D0008C00C0158700B0178200B0197D00D01B9C
:1022E0007800001E730040206E0090226900F024E8
:1022F000640040275F0090295A00E02B5500102E03
:10230000500020304B0010324600E0334100903541
:102310003C001037370070383200A0392D00B03A39
:102320002800A03B2300603C1E00103D1900903D9A
:102330001400103E0F00703E0A00C03E0500003F32
:102340000000403FFBFF803FF6FFC03FF1FF100061
:10235000AA038000400100012C01B00122014002CB
:102360001001F00202018003F8004004F500E004CF
:10237000ED009005E4003006DD00E006D7008007A0
:10238000D1003008CC00D008C7007009C300100A83
:10239000BE00B00ABB00500BB700900CB300D00DCC
:1023A000AA00B00FA5005010A000101496009016BF
:1023B000900010198C00501A8500301C8200702289
:1023C0007800B023750040256E0020276900A02901
:1023D0006400502A5F00902B5A00D02C5500702DBD
:1023E0004F00E02E48005031450030334100D035D9
:1023F00039006036370010373300F0382D00A0392F
:102400002700803C1C00403D1700F03D1100803E3D
:102410000900D03FE5FF4572723A204D494E5445C0
:102420004D5020424544004572723A204D494E5469
:10243000454D50004D494E54454D502074726967CA
:102440006765726564004572723A204D4158544583
:102450004D5020424544004572723A204D41585437
:10246000454D50004D415854454D50207472696798
:10247000676572656400202F002042403A002040CA
:102480003A0020746F6F206C6F6E672065787472ED
:102490007573696F6E2070726576656E7465640A17
:1024A0000020636F6C6420657874727573696F6E59
:1024B0002070726576656E7465640A00746F2072B0
:1024C0006573756D65005761697420666F72207061
:1024D00072696E74005052494E5420504155534514
:1024E0004400436172642072656D6F7665640043D9
:1024F00061726420696E73657274656400457874F6
:102500007275646572004D6F7665205A004D6F7666
:10251000652059004D6F76652058005072657061D6
:10252000726500496E697469616C697A6520454518
:1025300050524F4D00436F6E74726F6C0052657352
:10254000746F7265206661696C73616665004C6FBB
:1025500061642073657474696E677300496E697491
:1025600069616C697A6520454550524F4D0053743E
:102570006F72652073657474696E6773004D6F7454
:10258000696F6E0054656D70657261747572650077
:102590004D61696E005072656865617420414253F7
:1025A00020636F6E66005072656865617420504CE0
:1025B0004120636F6E66005049442D4400504944E9
:1025C0002D44005049442D49005049442D490050A4
:1025D00049442D50005049442D50002008204661A8
:1025E00063740020082046616374002008204D6158
:1025F00078002008204D6178002008204D61780087
:102600002008204D696E002008204D696E002008CA
:10261000204D696E004F6666004F6E200041757454
:102620006F74656D7000436F6F6C2046616E205350
:102630007065656400436F6F6C2046616E20537057
:102640006565640046616E2073706565640046616F
:102650006E2073706565640046616E2073706565F9
:1026600064004265640042656400426564004E6F28
:102670007A7A6C65004E6F7A7A6C65004E6F7A7A62
:102680006C6500436F6E74726F6C0053746F72658B
:102690002073657474696E677300426564004265F7
:1026A0006400426564004E6F7A7A6C65004E6F7A02
:1026B0007A6C65004E6F7A7A6C650046616E2073A5
:1026C000706565640046616E2073706565640046E0
:1026D000616E2073706565640054656D706572612C
:1026E000747572650050726F62696E672066616909
:1026F0006C65640A0050726F62696E67206661697A
:102700006C656400205A3A200020593A2000426546
:102710006420583A2000486F6D6520257325732585
:1027200073206669727374002066697273740A009C
:102730005A0059005800486F6D652000577269743F
:10274000696E6720746F2066696C653A20006F704F
:10275000656E206661696C65642C2046696C653A1B
:1027600020006F70656E206661696C65642C204680
:10277000696C653A200046696C652073656C656319
:102780007465640A002053697A653A200046696CD2
:1027900065206F70656E65643A20006F70656E200D
:1027A0006661696C65642C2046696C653A2000207E
:1027B00066696C653A2000646F696E6700667265D1
:1027C0007368004E6F772000454E442053554252A7
:1027D0004F5554494E450A002220706F7300222045
:1027E000706172656E743A2200535542524F5554CF
:1027F000494E452043414C4C207461726765743AE0
:1028000022004B494C4C45442E2000747279696E6D
:102810006720746F2063616C6C207375622D676331
:102820006F64652066696C657320776974682074CD
:102830006F6F206D616E79206C6576656C732E20EC
:102840004D4158206C6576656C2069733A00205ABA
:102850003A0020423A0020436F756E7420413A00DE
:1028600020453A00205A3A0020593A00583A003A96
:10287000004361703A0023646566696E65202044F8
:10288000454641554C545F4B64200023646566699E
:102890006E65202044454641554C545F4B692000ED
:1028A00023646566696E65202044454641554C5455
:1028B0005F4B702000504944204175746F74756EF1
:1028C000652066696E69736865642120507574209F
:1028D000746865206C617374204B702C204B6920E8
:1028E000616E64204B6420636F6E7374616E7473E9
:1028F0002066726F6D2062656C6F7720696E746FF1
:1029000020436F6E66696775726174696F6E2E68B9
:102910000A00504944204175746F74756E652066D5
:1029200061696C6564212074696D656F75740A0056
:10293000544845524D414C2052554E415741590043
:10294000546865726D616C2052756E6177617900B3
:1029500048656174696E67206661696C65640048EA
:10296000656174696E67206661696C6564005049D1
:1029700044204175746F74756E65206661696C657D
:1029800064212054656D7065726174757265207480
:102990006F6F20686967680A00204B643A20002046
:1029A0004B693A2000204B703A20000A20436C61AA
:1029B0007373696320504944200A002054753A20FB
:1029C00000204B753A2000206D61783A2000206D80
:1029D000696E3A200020643A200020626961733AEF
:1029E0002000507265686561742041425320456E35
:1029F00064005072656865617420414253005072F2
:102A000065686561742041425320426564005072DC
:102A10006570617265004261636B004E6578742079
:102A2000636F726E6572004732380A473239005060
:102A30007265686561742041425300507265686533
:102A4000617420504C4100436F6F6C646F776E006F
:102A50004368616E67652066696C616D656E7400C0
:102A6000426564204C6576656C696E6700446973E5
:102A700061626C65207374657070657273004D38A7
:102A80003400536574204D697820526174696F0079
:102A90004C6576656C20636F726E65727300486F6B
:102AA0006D65205A00473238205A00486F6D652006
:102AB0005900473238205900486F6D65205800474B
:102AC00032382058004175746F20686F6D6500477B
:102AD0003238004D6F76652061786973004D616909
:102AE0006E004D6F76652058004D6F766520590059
:102AF0004D6F7665205A0045787472756465720072
:102B00004D6F766520302E316D6D004D6F766520EE
:102B1000316D6D004D6F76652031306D6D004D6FFC
:102B200076652061786973004578747275646572A2
:102B3000004D6F7665205A004D6F76652059004D27
:102B40006F76652058004261627973746570205A0F
:102B5000004E6F726D616C697A6520616E64204110
:102B600070706C793E3E0045332050726563656E2F
:102B7000740045332050726563656E7400453220E1
:102B800050726563656E74004532205072656365EE
:102B90006E740045312050726563656E7400453176
:102BA0002050726563656E740054756E65004558FB
:102BB00054323A4558543300455854323A455854E3
:102BC0003300456E64206F6620455854312525003A
:102BD000456E64206F662045585431252500537496
:102BE000617274206F662045585431252500537456
:102BF000617274206F662045585431252500417557
:102C0000746F204D6978204D6F6465004175746F55
:102C1000204D6978204D6F64650054756E65004DD8
:102C2000363030204230004368616E676520666947
:102C30006C616D656E7400426162797374657020B9
:102C40005A00466C6F7700466C6F7700466C6F7762
:102C50000046616E2073706565640046616E207386
:102C6000706565640046616E20737065656400423E
:102C700065640042656400426564004175746F20BC
:102C80004D6978204D6F646500536574204D6978F7
:102C900020526174696F004E6F7A7A6C65004E6FD6
:102CA0007A7A6C65004E6F7A7A6C65005370656550
:102CB00064005370656564005370656564004D6120
:102CC000696E005072656865617420504C41204502
:102CD0006E64005072656865617420504C4100500C
:102CE00072656865617420504C41204265640050F3
:102CF00072657061726500290A00206279746573DB
:102D00003B20637263200053657474696E6773209F
:102D100053746F726564202800202863616C6375AA
:102D20006C6174656429210A0020213D200045451D
:102D300050524F4D20435243206D69736D6174634F
:102D400068202D202873746F726564292000290A79
:102D5000002062797465733B2063726320002073E6
:102D6000746F7265642073657474696E6773207222
:102D70006574726965766564202800204D61726C07
:102D8000696E3D563532290A0028454550524F4D4F
:102D90003D00454550524F4D2076657273696F6E08
:102DA000206D69736D617463682000534420636112
:102DB0007264206F6B0A006F70656E526F6F7420C3
:102DC0006661696C65640A00766F6C756D652E6965
:102DD0006E6974206661696C65640A004572726F81
:102DE000723A00534420696E6974206661696C0A06
:102DF0000043616E6E6F74206F70656E2073756234
:102E000064697220006175746F25692E67005265D0
:102E100073656E643A20006F6B0020746F6F206CD6
:102E20006F6E6720657874727573696F6E2070724B
:102E30006576656E7465640A0020636F6C64206556
:102E40007874727573696F6E2070726576656E74D2
:102E500065640A004D363030004361746368206653
:102E6000696C616D656E742072756E206F7574216A
:102E70000A004B494C4C45442E20004B494C4C20F9
:102E8000636175736564206279204B494C4C206204
:102E90007574746F6E2F70696E0A004B494C4C4507
:102EA000442E20004B494C4C2063617573656420AF
:102EB000627920746F6F206D75636820696E61633D
:102EC000746976652074696D65202D206375727252
:102ED000656E7420636F6D6D616E643A20004669A3
:102EE0006C616D656E7420696E73657274210A0081
:102EF00043617463682066696C616D656E742072ED
:102F0000756E206F7574210A005654726176206DBB
:102F1000696E005654726176206D696E0056547267
:102F20006176206D696E00566D696E00566D696E32
:102F300000566D696E00566D6178204500566D61D2
:102F400078204500566D6178204500566D617820E7
:102F50005A00566D6178205A00566D6178205A00EB
:102F6000566D6178205900566D6178205900566D74
:102F70006178205900566D6178205800566D61784F
:102F8000205800566D61782058004D6F74696F6E3F
:102F900000416D6178204500416D61782045004118
:102FA0006D6178205A00416D6178205A00416D6151
:102FB00078205900416D6178205900416D61782079
:102FC0005800416D6178205800412D74726176651A
:102FD0006C00412D74726176656C00412D726574D0
:102FE0007261637400412D72657472616374004193
:102FF0006363656C00416363656C004D6F74696F5A
:103000006E0056652D6A65726B0056652D6A657295
:103010006B0056652D6A65726B00567A2D6A657273
:103020006B00567A2D6A65726B0056792D6A65724F
:103030006B0056792D6A65726B0056792D6A657240
:103040006B0056782D6A65726B0056782D6A657232
:103050006B0056782D6A65726B004D6F74696F6EE8
:10306000004573746570732F6D6D004573746570E2
:10307000732F6D6D005A73746570732F6D6D005AE8
:1030800073746570732F6D6D005973746570732F51
:103090006D6D005973746570732F6D6D0058737486
:1030A0006570732F6D6D005873746570732F6D6D3F
:1030B000004D6F74696F6E0053746570732F6D6D82
:1030C000004A65726B00416363656C657261746987
:1030D0006F6E0056656C6F63697479005A20507288
:1030E0006F6265204F6666736574005A2050726F78
:1030F0006265204F666673657400484F4D455F5AA0
:103100005F6F666673657400484F4D455F5A5F6F29
:10311000666673657400484F4D455F595F6F66661C
:1031200073657400484F4D455F595F6F6666736500
:103130007400484F4D455F585F6F66667365740055
:10314000484F4D455F585F6F666673657400436F07
:103150006E74726F6C0043616E6E6F7420656E7476
:103160006572207375626469723A2000022E2E0027
:103170004D61696E000045787472756465642074F1
:103180006F74616C3A2000256C642E25696D000017
:103190004C6F6E67657374206A6F622074696D6529
:1031A0003A200000546F74616C207072696E742054
:1031B00074696D653A2000436F6D706C6574656469
:1031C0003A20005072696E7420436F756E743A2015
:1031D000004D61782054656D703A20313330004DD8
:1031E000696E2054656D703A203500544265643A2A
:1031F0003130304B20312520626574612033393500
:1032000030004D61782054656D703A2032373500BA
:103210004D696E2054656D703A20350054303A2067
:103220003130304B203125206265746120333935CF
:1032300030005053553A2047656E657269630050FF
:10324000726F746F636F6C3A20312E30004261757B
:10325000643A20313135323030005A4F4E455354A4
:103260004152204C43443132383634005A4F4E4597
:1032700053544152205A5249425F5636007C3C3EDC
:103280005E2B3D3F2F5B5D3B2C2A225C0048617228
:1032900064636F6465642044656661756C74205373
:1032A000657474696E6773204C6F616465640A00AD
:1032B000D0070000D0070000640000008813000061
:1032C000000016430000C8420000004100004842D0
:1032D0000000A0420000A0420000C8430000A0423D
:1032E000205A0020590020204D3231312058004D05
:1032F000696E20506F732041646A3A0A0020204DA5
:10330000383531205A005A2D50726F6265204F6651
:103310006673657420286D6D293A0A0020440020E8
:10332000490020204D333031205000504944207353
:10333000657474696E67733A0A0020460020420083
:1033400020480020204D3134352053004D617465F4
:103350007269616C2068656174757020706172615A
:103360006D65746572733A0A0020204D3432302046
:1033700053004175746F20426564204C6576656C1E
:10338000696E673A0A00204500205A002059002043
:10339000580020420020540020204D323035205368
:1033A00000416476616E6365643A20533C6D696EDA
:1033B0005F66656564726174653E20543C6D696E3C
:1033C0005F74726176656C5F666565647261746571
:1033D0003E20423C6D696E5F7365676D656E745F1C
:1033E00074696D655F75733E20583C6D61785F78D8
:1033F000795F6A65726B3E205A3C6D61785F7A5FD7
:103400006A65726B3E20453C6D61785F655F6A65F9
:10341000726B3E0A0020540020520020204D3230B2
:1034200034205000416363656C65726174696F6E2E
:103430002028756E6974732F7332293A20503C70BE
:1034400072696E745F616363656C3E20523C7265A5
:1034500074726163745F616363656C3E20543C7495
:10346000726176656C5F616363656C3E0A0020453E
:1034700000205A0020590020204D323031205800C1
:103480004D6178696D756D20416363656C6572612E
:1034900074696F6E2028756E6974732F7332293AC0
:1034A0000A00204500205A0020590020204D3230CB
:1034B000332058004D6178696D756D2066656564CF
:1034C00072617465732028756E6974732F73293A5D
:1034D0000A00204500205A0020590020204D393292
:1034E00020580053746570732070657220756E6982
:1034F000743A0A0020204D3230302044300A002037
:10350000204D3230302044002044697361626C6584
:10351000640A0046696C616D656E7420736574742D
:10352000696E67733A0020204D3134392043203BC7
:1035300020556E69747320696E2043656C736975DC
:10354000730A002020473231202020203B20556E76
:1035500069747320696E206D6D0A0000060900FE13
:10356000000000000001090008FE00000508080630
:10357000000040F0C8888898781005080806000008
:10358000C0F88888888888F805050506000120307D
:10359000F830200508080600002070F820202020C0
:1035A000E00509090600FF2070A8A8B888887020E7
:1035B0000509090600FFE080C0B0A82830282805CA
:1035C00009090600FFF8A88888888888A8F8050AED
:1035D0000A0600FE205050505088A8A888700303A7
:1035E0000306000340A04046696C652064656C6575
:1035F0007465643A0044656C6574696F6E20666139
:10360000696C65642C2046696C653A20006F7065B2
:103610006E206661696C65642C2046696C653A2091
:10362000006D0046696C616D656E7420757365642C
:103630003A200053746174733A20002C204C6F6E52
:1036400067657374206A6F623A2000546F74616C0E
:103650002074696D653A200053746174733A2000D8
:103660002C204661696C65643A20002C2046696E06
:1036700069736865643A20005072696E74733A2009
:103680000053746174733A200048656174696E6711
:1036900020646F6E652E0020573A0045256920256D
:1036A00073004572726F722077726974696E672059
:1036B000746F20454550524F4D210A006563686F75
:1036C0003A004D3234004D32332025730066696C68
:1036D000616D656E743A20007A5F70726F62653A50
:1036E00020007A5F6D696E3A2000795F6D696E3AED
:1036F0002000785F6D696E3A20005265706F7274B9
:10370000696E6720656E6473746F70207374617482
:1037100075730A00060606060600000000006265D2
:10372000640A002C2073797374656D2073746F7054
:1037300070656421204865617465725F49443A2070
:1037400000544845524D414C2052554E4157415925
:1037500000546865726D616C2052756E6177617995
:103760000048656174696E67206661696C65640014
:1037700048656174696E67206661696C65640050B4
:1037800072696E7420706175736564004D313235F5
:1037900000004D3234005072696E742061626F72A5
:1037A00074656400506F77657220446F776E004DCA
:1037B0003831004E6F2053442063617264005072B0
:1037C000696E742066726F6D2053440053746F707D
:1037D000207072696E7400526573756D6520707229
:1037E000696E740041626F7574205072696E746501
:1037F00072005061757365207072696E7400436F5A
:103800006E74726F6C0050726570617265005475F1
:103810006E6500496E666F2073637265656E0000A9
:10382000F400F20011241FBECFEFD1E2DEBFCDBF06
:1038300000E00CBF13E0A0E0B2E0EAE6F1E502E050
:103840000BBF02C007900D92AA3AB107D9F722E147
:10385000AAEAB3E001C01D92AB3DB207E1F71CE15B
:10386000C1E1DCE100E006C021970109802FFE01E3
:103870000F941228C031D10780E00807A9F70F94F0
:103880000A0E0D94A4280C9400002F923F924F92A0
:103890005F926F927F928F929F92AF92BF92CF92E0
:1038A000DF92EF92FF920F931F93CF93DF93CDB7E9
:1038B000DEB7C356D1090FB6F894DEBF0FBECDBF39
:1038C0008091C60C8D3409F4D4C6843511F40C945F
:1038D0008E30873421F0ECEBF6E30C94CE30209060
:1038E000C40C3090C50C2BE12216310409F4CBC571
:1038F0009CF444E02416310444F452E025163104CB
:10390000DCF537FE32C00C94E63084E02816310432
:1039100009F472C50C94E6309EE12916310409F4CD
:10392000E3C57CF4BCE12B16310409F4D8C5EDE104
:103930002E16310411F00C94E6300E94CF410C9405
:10394000E630FBE52F16310409F43DC62CE52216BE
:10395000310409F43DC63AE52316310411F00C9404
:10396000E6301092AE030C94E63080918002811113
:103970000C94E9300C94E63080918002882311F495
:103980000C94E6300E94653F82E50E94363A882317
:1039900009F43EC10E94D4394B015C0120E030E0C3
:1039A000A9010F949A20882309F462C18091520AD8
:1039B0009091530AA091540AB091550A88AB99ABE3
:1039C000AAABBBAB2091560A3091570A4091580AD6
:1039D0005091590A2CAB3DAB4EAB5FAB80914F0978
:1039E00090915009A0915109B091520924968CAF41
:1039F0009DAFAEAFBFAF24972091530930915409CA
:103A0000409155095091560928AF39AF4AAF5BAF85
:103A10009C01AD0168A979A98AA99BA90F949A2054
:103A200081110DC028AD39AD4AAD5BAD6CA97DA942
:103A30008EA99FA90F949A20882309F419C111E037
:103A400032E02316310409F010E020E030E0A90153
:103A5000C501B4010F949A20881F8827881F181762
:103A600059F080E090E0A0E8BFEB2C968CAF9DAFC2
:103A7000AEAFBFAF2C970AC020E030E040E85FE374
:103A80002C962CAF3DAF4EAF5FAF2C9728A939A92C
:103A90004AA95BA924966CAD7DAD8EAD9FAD2497F0
:103AA0000F9416256CAF7DAF8EAF9FAF2CA93DA9AB
:103AB0004EA95FA968AD79AD8AAD9BAD0F9416256F
:103AC0006B017C012CAD3DAD4EAD5FADCA01B901BE
:103AD0000F94FF202B013C01A7019601C701B601FD
:103AE0000F94FF209B01AC01C301B2010F94172575
:103AF0000F94822728966CAF7DAF8EAF9FAF28972B
:103B000020E030E040E05FE30F94FF202B013C0118
:103B1000A5019401C501B4010F94FF204B015C0184
:103B2000A3019201C301B2010F94FF209B01AC01DC
:103B3000C501B4010F9416250F9482272C962CAD45
:103B40003DAD4EAD5FAD2C970F94FF204B015C0156
:103B5000C701B601905828962CAD3DAD4EAD5FAD76
:103B600028970F94F325A50194010F94FF206B0172
:103B70007C0124962CAD3DAD4EAD5FAD249768A978
:103B800079A98AA99BA90F94172520E030E040E08D
:103B90005FE30F94FF209B01AC01C701B6010F94B6
:103BA000172528A939A94AA95BA90F9416256B01E5
:103BB0007C0128AD39AD4AAD5BAD6CA97DA98EA95C
:103BC0009FA90F94172520E030E040E05FE30F94B9
:103BD000FF202B013C0128962CAD3DAD4EAD5FADD5
:103BE00028976CAD7DAD8EAD9FAD0F94F325A501EB
:103BF00094010F94FF209B01AC01C301B2010F940B
:103C000017252CA93DA94EA95FA90F94162514C00C
:103C100089E40E94363A882329F00E94D4396B0146
:103C20007C0103C0C12CD12C76018AE40E94363A73
:103C3000882309F10E94D43924966CAF7DAF8EAFF2
:103C40009FAF249720E030E0A901C701B6010F948F
:103C50009A2081111FC020E030E0A90124966CADAC
:103C60007DAD8EAD9FAD24970F949A20811112C027
:103C7000ECEDFDE2ADC320E030E0A901C701B601E3
:103C80000F949A208823A1F324961CAE1DAE1EAE7D
:103C90001FAE2497D701C601B05888AB99ABAAAB29
:103CA000BBAB24962CAD3DAD4EAD5FAD24975058C7
:103CB0002CAB3DAB4EAB5FAB9C01AD01BC01CD016C
:103CC0000F94FF204B015C012CA93DA94EA95FA9CF
:103CD000CA01B9010F94FF209B01AC01C501B401D9
:103CE0000F9417250F9482276C966CAF7DAF8EAF23
:103CF0009FAF6C978091520A9091530AA091540AF9
:103D0000B091550A88AF99AFAAAFBBAFA701960192
:103D1000BC01CD010F9417252C966CAF7DAF8EAFF3
:103D20009FAF2C972091560A3091570A4091580A1C
:103D30005091590A28962CAF3DAF4EAF5FAF2897F0
:103D400024962CAD3DAD4EAD5FAD249728966CAD5D
:103D50007DAD8EAD9FAD28970F94172560966CAF03
:103D60007DAF8EAF9FAF609780914F0990915009C2
:103D7000A0915109B091520964968CAF9DAFAEAF3E
:103D8000BFAF64972C962CAD3DAD4EAD5FAD2C977B
:103D9000BC01CD010F9416256B017C0120915309C4
:103DA00030915409409155095091560968962CAFAD
:103DB0003DAF4EAF5FAF689760962CAD3DAD4EAD59
:103DC0005FAD609768966CAD7DAD8EAD9FAD689729
:103DD0000F9416254B015C0180915A0A90915B0A61
:103DE000A0915C0AB0915D0AA0968CAF9DAFAEAF7A
:103DF000BFAFA0979C01AD01609157097091580920
:103E00008091590990915A090F9416256CAF7DAF96
:103E10008EAF9FAFA701960168A979A98AA99BA92E
:103E20000F94FF202B013C01A50194016CA97DA9F1
:103E30008EA99FA90F94FF209B01AC01C301B20181
:103E40000F9417252B013C01A501940168A979A9BC
:103E50008AA99BA90F94FF204B015C01A701960141
:103E60006CA97DA98EA99FA90F94FF209B01AC018D
:103E7000C501B4010F941625A30192010F948A2560
:103E80006B017C0120E030E0A9010F949A2087FFAC
:103E90000AC02BED3FE049EC50E4C701B6010F9496
:103EA00017256B017C0192E02916310451F42BEDAA
:103EB0003FE049EC50E4C701B6010F9416256B01B1
:103EC0007C0120E030E0A901C701B6010F949A20DF
:103ED000811126C064962CAD3DAD4EAD5FAD6497AB
:103EE00068AD79AD8AAD9BAD0F949A20811118C051
:103EF00068962CAD3DAD4EAD5FAD689728966CAD24
:103F00007DAD8EAD9FAD28970F949A20811108C08A
:103F10007BEDC72E7FE0D72E79ECE72E70E4F72EED
:103F2000A70196016C966CAD7DAD8EAD9FAD6C9783
:103F30000F94FF209B01AC010F94FF204B015C010B
:103F40002CAD3DAD4EAD5FADCA01B9010F94FF2060
:103F50009B01AC01C501B4010F9417250F94822772
:103F60004B015C012FE632E143E85AE30F949A20BB
:103F700087FD27C2C501B4010F948C260F946026DB
:103F800026967FAF6EAF2697DB01AB2B31F4E1E0D5
:103F9000F0E02696FFAFEEAF269740905E0A509075
:103FA0005F0A6090600A7090610A26962EAD3FAD60
:103FB0002697B90180E090E00F949E204B015C01B0
:103FC0009B01AC01C701B6010F94F32568AF79AF2F
:103FD0008AAF9BAFA50194016CAD7DAD8EAD9FAD59
:103FE0000F94F3256C966CAF7DAF8EAF9FAF6C973F
:103FF000A301920160915B0970915C0980915D0958
:1040000090915E090F941625A50194010F94F32554
:10401000A4966CAF7DAF8EAF9FAFA49728AD39AD9E
:104020004AAD5BADCA01B9010F94FF2020E030E03A
:1040300040E05FE30F94FF209B01AC0160E070E083
:1040400080E89FE30F94162564966CAF7DAF8EAF2A
:104050009FAF6497A0968CAD9DADAEADBFADA09760
:1040600089879A87AB87BC874D865E866F86788AFC
:104070006091360270913702072E000C880B990B65
:104080000F94A0202091270230912802409129020C
:1040900050912A020F94FF202AE037ED43E25CE3BF
:1040A0000F94FF206CA77DA78EA79FA70E94306A60
:1040B0009B01AC0128533F4F4F4F5F4F68962CAF89
:1040C0003DAF4EAF5FAF689748A859A86AA87BA8D4
:1040D00022242394312C39E13CAF26964EAD5FADBE
:1040E00026974215530509F432C10F9427060E9402
:1040F000306ADC01CB0168962CAD3DAD4EAD5FADB5
:104100006897821B930BA40BB50BB7FD11C00E94DF
:10411000306A9B01AC0128533F4F4F4F5F4F689669
:104120002CAF3DAF4EAF5FAF689780E00E9475CE79
:104130003CAD31503CAF332309F441C02CA93DA91B
:104140004EA95FA964966CAD7DAD8EAD9FAD6497B1
:104150000F94FF206B017C019201A30168AD79AD42
:104160008AAD9BAD0F94FF20A70196010F941725F0
:104170006B017C019201A30164966CAD7DAD8EADA7
:104180009FAD64970F94FF204B015C012CA93DA9C2
:104190004EA95FA968AD79AD8AAD9BAD0F94FF20A4
:1041A0009B01AC01C501B4010F9416252B013C0104
:1041B000C601D7018CAB9DABAEABBFAB51C0B1015B
:1041C00080E090E00F949E2028AD39AD4AAD5BAD04
:1041D0000F94FF204B015C010F94F0256B017C01D3
:1041E000C501B4010F9478274B015C01A70196012A
:1041F00068A979A98AA99BA90F94FF202B013C01EA
:1042000024962CAD3DAD4EAD5FAD2497C501B401F4
:104210000F94FF20A30192010F9417252B013C015D
:10422000A501940168A979A98AA99BA90F94FF20E7
:104230004B015C0124962CAD3DAD4EAD5FAD249796
:10424000C701B6010F94FF209B01AC01C501B40169
:104250000F9416256CAB7DAB8EAB9FAB49E14CAF99
:104260009201A3012C966CAD7DAD8EAD9FAD2C97C8
:104270000F94172569837A838B839C832CA93DA98E
:104280004EA95FA960966CAD7DAD8EAD9FAD609778
:104290000F9417256D837E838F8398876C962CAD42
:1042A0003DAD4EAD5FAD6C9769857A858B859C85FC
:1042B0000F94172569877A878B879C87A4962CADE6
:1042C0003DAD4EAD5FADA4976D857E858F85988998
:1042D0000F9417256D877E878F87988B80912B028F
:1042E000882321F0CE0101960E94376689819A8148
:1042F000AB81BC8188A399A3AAA3BBA38D819E8116
:10430000AF81B8858CA39DA3AEA3BFA389859A85F1
:10431000AB85BC8588A799A7AAA7BBA7CE01809625
:104320000E942D3BE12C8E01045D1F4F9E01235FF7
:104330003F4FAE01485D5F4FBE016C5D7F4FCE01C8
:1043400080960E946C8C5FEF251A350AC6CE80914C
:104350004F0990915009A0915109B091520988A339
:1043600099A3AAA3BBA38091530990915409A0914A
:104370005509B09156098CA39DA3AEA3BFA380910C
:10438000570990915809A0915909B0915A0988A7E5
:1043900099A7AAA7BBA7CE0180960E942D3BE12C2E
:1043A0008E01045D1F4F2BE539E0AE01485D5F4F84
:1043B000BE016C5D7F4FCE0180960E946C8C0E9486
:1043C0003F3B0E94493B0C94E6300E94733BF8014E
:1043D00084918F010F5F1F4F8111F7CFEDE4F2E061
:1043E00084918F010F5F1F4F882311F40C94E630E6
:1043F0000E94733BF801F4CF80E50E94363A88238F
:1044000029F00E9494396B017C0103C0C12CD12C8E
:10441000760183E50E94363A882361F00E94D43900
:1044200020E030E04AE754E40F94FF200F94602628
:104430006B017C010F94360A80913D02811105C009
:1044400060E083E692E00E9463700E94493B8091A5
:10445000500D9091510DA091520DB091530DC80E79
:10446000D91EEA1EFB1E0E94306ADC01CB018C19AA
:104470009D09AE09BF09B7FD02C00C94E63080E08B
:104480000E9475CEF0CF0E94A2A181110C94E6305B
:1044900080E090E0A0EAB0E489839A83AB83BC8398
:1044A0008D839E83AF83B88780E090E0A0EAB1E47B
:1044B00089879A87AB87BC8780E50E94363A882334
:1044C00019F00E94A43901C060E068A3BE016F5FCB
:1044D0007F4FCE0180960F9410030C94E63080E05D
:1044E0000E94D64F0C94E630C090520AD090530AE6
:1044F000E090540AF090550A88E50E94363A8111FE
:1045000009C020E030E040EF51E4C701B6010F944C
:10451000162502C00E94D43968A379A38AA39BA35D
:10452000C090560AD090570AE090580AF090590A65
:1045300089E50E94363A811108C020E030E0A901E7
:10454000C701B6010F94172502C00E94D4396B0130
:104550007C0169837A838B839C8388A099A0AAA01D
:10456000BBA02FE632E143E85AEBC501B4010F943A
:104570003D2787FF02C00C94E63021E230E041E99C
:1045800053E4C501B4010F949A20181614F40C9446
:10459000E6302FE632E143E85AEBC701B6010F944B
:1045A0003D2787FF02C00C94E63021E230E04BE962
:1045B00053E4C701B6010F949A20181614F40C9412
:1045C000E6300C94EE3081E08093AE030C94E6303C
:1045D0000F94360A46E9242E42E0342E52E5E52EA9
:1045E0005AE0F52E00E0D12C10E0D1018D911D0193
:1045F0000E94363A882359F10E94D4392B013C019C
:10460000F70120813181428153810F9416254B019E
:104610005C012DEB37E346E855EB0F943D2787FD12
:104620000AC02DEB37E346E855E3C501B4010F940A
:104630009A20181664F4133011F401E002C0DD244E
:10464000D394D7014D925D926D927C9213971F5F28
:10465000B4E0EB0EF11C143041F6DD2019F00E949D
:104660004D3903C001110E9464A10E94D0AD0C9489
:10467000E6308091C40C9091C50C8537910509F402
:1046800055C70CF0C8C08D34910509F403C40CF073
:1046900056C08931910509F4E0C21CF584319105B9
:1046A00009F4C6C17CF48131910509F448C22CF4A7
:1046B000029708F4C0C10C94E630429709F40DC685
:1046C0000C94E6308631910509F491C20CF48BC24A
:1046D0008731910509F491C2489709F4A4C20C945A
:1046E000E6308F31910509F465C394F48B3191055F
:1046F00009F4CFC20CF4BFC28C31910509F406C392
:104700004E9711F00C94E6300E9405F70C94E630B9
:104710008A32910509F47AC32CF4809709F400C316
:104720000C94E6308B34910509F4B0C38C349105B8
:1047300011F00C94E6300E9440A20C94E6308A36C8
:10474000910509F4E9C4D4F58435910509F4C5C58A
:10475000E4F48135910509F4A3C54CF48E34910538
:1047600011F00C94E6300E94DAF40C94E6308235B5
:10477000910509F4AFC58335910511F00C94E6302D
:1047800081E08093AD030C94E6308C35910509F4FB
:10479000EFC534F48535910509F4D1C50C94E630A4
:1047A0008836910509F47AC38936910511F00C9485
:1047B000E6301092D209EDE3F3E056C48F3691054E
:1047C00009F4BFC384F48C36910509F42DC40CF4AC
:1047D000C8C48D36910509F47FC48E36910509F45D
:1047E0009DC30C94E6308237910509F449C64CF418
:1047F0008037910511F00C94E63084E393E00E9439
:1048000078678337910509F410C18437910509F45D
:10481000BAC40C94E6308D3D910511F40C94E22D50
:104820000CF068C0843A910509F46BC77CF58D37AC
:10483000910509F4C0C4ACF48737910509F4BDC6ED
:104840000CF47CC68837910509F4BAC689379105FE
:1048500011F00C94E63010927A0E1092790E0C94AE
:10486000E6308139910509F4B1C634F48C389105EC
:1048700009F4DEC30C94E6308B39910509F405C4C4
:10488000833A910509F41AC70C94E6308B3C9105E4
:1048900011F40C94692CDCF48E3B910509F420C4CE
:1048A00034F4893A910509F44FC70C94E630883CFA
:1048B000910509F4A9C7893C910511F00C94E630E3
:1048C00076E9E72E72E0F72E05EA1DE0E9C78D3C98
:1048D000910511F40C94EE2C14F40C94842C833D6B
:1048E000910509F49EC08C3D910511F40C94D52DD1
:1048F0000C94E6308239E1E09E0711F40C94772F96
:104900000CF041C08E3221E0920711F40C94202F5C
:10491000DCF4823241E0940711F40C944E2E3CF406
:10492000823E910511F40C94252E0C94E6308C32C5
:10493000A1E09A0711F40C94592E8D32914011F494
:104940000C94822E0C94E6308336E1E09E0709F445
:1049500064C04CF48F32914011F00C94E6300E9408
:1049600029A90C94E630803931E0930711F40C94B6
:10497000742F8139914011F00C94E63081E00E944F
:1049800028410C94E630863F51E0950711F40C94D1
:10499000FF2FFCF4843AB1E09B0711F40C947B2FB9
:1049A0004CF48A39914011F00C94E6300E94EFA843
:1049B0000C94E630843F21E0920711F40C94FC2F14
:1049C000853F914011F00C94E6300E943CBD0C9460
:1049D000E630833543E09407E1F07CF4873FA1E0C3
:1049E0009A0711F40C9402308835924011F00C941F
:1049F000E6300E94ABA70C94E630803AE3E09E07D5
:104A000009F4CBC1873E934011F40C9479300C9497
:104A1000E630ECEBF6E30C941130ECEDFDE20C9497
:104A20006630ECEBF6E30C94592DEBE1F4E02DC588
:104A3000E3ECF2E098C0A090C20CB090C30C80E50B
:104A40000E94363A882359F00E9494396B017C0108
:104A500011E0672B682B692B31F410E004C010E0E3
:104A6000C12CD12C760183E50E94363A8823F1F0DF
:104A70000E94D43920E030E04AE754E40F94FF204C
:104A80000F9460266B017C01111112C0672B682BFB
:104A9000692B71F4A114B10459F0D5018C918823CC
:104AA00039F061E0C5010E949D9407C0112391F384
:104AB00060E088E992E00E94637081E08093020ADE
:104AC0000F94360A0E94493BC114D104E104F10459
:104AD000E1F08091500D9091510DA091520DB09147
:104AE000530DC80ED91EEA1EFB1E0E94306ADC015F
:104AF000CB018C199D09AE09BF09B7FF1CC080917D
:104B0000020A81110C94453116C08091020A882353
:104B100021F080E00E9475CEF8CF8091990E90919F
:104B20009A0E60E0029719F48DE892E002C08EE7D9
:104B300092E00E9463701092020A0C94E63060E0EA
:104B40008BEA92E00E9463708A985F989FB7F8940E
:104B5000809108018E7F809308019FBF129847982B
:104B600010980C94E63084918F010F5F1F4F8823BB
:104B700021F00E94733BF801F6CF1092741110924D
:104B8000731185EF9EE00E9453E58BE1E5EFFEE0B7
:104B9000DE01159601900D928A95E1F78091F30E52
:104BA0009091F40E9C838B8388EE92E09A838983A4
:104BB00040E050E0BE016F5F7F4F82E593E00E94CE
:104BC000B5CACE0101960E947067E4EBF2E08491D1
:104BD0008F010F5F1F4F882311F40C94E6300E9461
:104BE000733BF801F4CF0E94D6CD0C94E6301092BE
:104BF000C40E1092C50E0C94E630E091C20CF091F8
:104C0000C30C8081882329F0803209F41082319608
:104C1000F8CF40E061E08091C20C9091C30C0E94FB
:104C20003CA50C94E63019821A821B821C8218A2C1
:104C300019A21AA21BA280915F09882341F040E0CB
:104C4000BE016F5F7F4FCE0180960E940A650E9471
:104C5000A3CA0E9408A10C94E6301092C40E0E94D0
:104C600040A284ED92E09093EC0D8093EB0D0E94B6
:104C7000EE380C94E6308091C50E882311F40C9424
:104C8000E63083E50E94363A81110C944A310C9447
:104C9000E6308091C50E811103C0EBEEF2E02AC030
:104CA000E9EDF2E084918F010F5F1F4F882321F01F
:104CB0000E94733BF801F6CF60916A1170916B11FD
:104CC00080916C1190916D114AE00E941F3E8FE21D
:104CD0000E94733B60916611709167118091681119
:104CE000909169114AE00E941F3E8AE00E94733B46
:104CF0000C94E63084918F010F5F1F4F882311F4CD
:104D00000C94E6300E94733BF801F4CF40E060E081
:104D10008091C20C9091C30C0E943CA50C94E6308B
:104D20008091C40E81110F94360A8091C50E88239C
:104D300011F40C94E63080E50E94363A882319F08D
:104D40000E94C53903C080E50E94073A182F482FFA
:104D500061E08091C20C9091C30C0E943CA583E558
:104D60000E94363A882381F00E94A439AB01BC012D
:104D700040936A1150936B1160936C1170936D1195
:104D800089EB90E10E94F7FB0E94A3CA11110C94D9
:104D9000E6300E9408A10C94E6308091C20C9091FC
:104DA000C30C21E02093C30E40E060E00E943CA5CC
:104DB0000C94E63089E99EE00F943C0968A379A33E
:104DC0008AA39BA3BE016F5F7F4FCE0180960E9496
:104DD000423A60E0CE0101960E949D94ECEBF6E32E
:104DE00084918F010F5F1F4F882321F00E94733B36
:104DF000F801F6CFBE016F5F7F4F8CEF92E00E940B
:104E0000C7618AE00E94733B0C94E63083E50E9400
:104E1000363A882311F40C94E6300E94B439E82E17
:104E200080E50E94363A882341F00E94A4398B0124
:104E300077FF02C00C94E63002C00DE010E0802F36
:104E4000ECEBF5E09491891303C0ECEDFDE20AC0B0
:104E50003196B5E0EA3EFB07A9F70C945B310E945E
:104E6000733BF80184918F010F5F1F4F8111F7CFC2
:104E7000E9E0F3E084918F010F5F1F4F882311F465
:104E80000C94E6300E94733BF801F4CF0E9408A115
:104E90000C94E6300E9455FE0C94E6301092D20934
:104EA0008091890A83FF02C00C94E63083E50E945A
:104EB000363A882379F10E94D4390F945B26709397
:104EC000C6116093C51180E00E94DB7C0E94D4393A
:104ED00020917709309178094091790950917A09A8
:104EE0000F943D271816B4F484E193E09F938F93B9
:104EF0008091D20990E001969F938F9388E193E08F
:104F00009F938F931F920E9427FE0FB6F894DEBFE7
:104F10000FBECDBF0E9453620C94E6308EE40E9417
:104F2000363A882311F40C94E6300E94A439609339
:104F3000740A7093750A8093760A9093770A0C949A
:104F4000E63083E50E94073A882359F083E50E9402
:104F5000363A882319F00E94B43901C080E080936A
:104F6000890AECEBF6E384918F010F5F1F4F8111EB
:104F700003C0EDE2F3E004C00E94733BF801F3CFFD
:104F800084918F010F5F1F4F882321F00E94733B94
:104F9000F801F6CF8091890A811103C0E9E2F3E0BC
:104FA00034C03FE1C32E33E0D32EE12CF12C20E0BE
:104FB0008091890A90E00E2C02C0959587950A94FD
:104FC000E2F780FF17C0BB24B394B20E222319F07E
:104FD0008CE20E94733BF60185919491FC018491CF
:104FE0008F010F5F1F4F882321F00E94733BF80150
:104FF000F6CF2B2DFFEFEF1AFF0A32E0C30ED11CC4
:1050000045E0E416F104A1F60AC084918F010F5F18
:105010001F4F882321F00E94733BF801F6CF8AE0EE
:105020000E94733B0C94E630109281020C94E6309F
:105030008091890A83FF02C00C94E63083E50E94C8
:10504000363A882311F40C94E6300E94D4390F9438
:105050005B266338710514F062E870E07093CA1142
:105060006093C9110C94E63084918F010F5F1F4F3C
:10507000882321F00E94733BF801F6CF0E94707ADA
:105080008AE00E94733B0C94483383E50E94363AD1
:10509000882311F40C94E6300E94B439182F8D3314
:1050A00008F01CE310934D0D0E94306A6B017C01E7
:1050B000212F30E0A8EEB3E00F940725C60ED71ECF
:1050C000E81EF91EC092490DD0924A0DE0924B0D98
:1050D000F0924C0D0C94E6300E941DF30C94E630D7
:1050E0008091890A83FF02C00C94E63060E08EE470
:1050F00093E00E94637083E50E94363A21968FAF59
:10510000219781110C94713182E50E94363A811108
:105110000C9471310C94E63080E50E94363A81118E
:1051200008C083E50E94363A811109C03FEF20E0B4
:105130000AC00E94B43981110C94E630F2CF0E946B
:10514000A439362F272F832F922F8F3F910519F0E7
:1051500010F08FEF90E09093C8118093C7110C94DA
:10516000E63080E50E94363A811106C01092C811DF
:105170001092C7110C94E6300E94A439672B11F0ED
:105180000C94E630F3CF83E50E94363A882329F069
:105190000E94A439362F272F02C03FEF20E0832F33
:1051A000922F8F3F910519F010F08FEF90E08093D0
:1051B00022020C94E6308CE40E94073A882319F00E
:1051C0000E94D43904C060E070E080E890EC6CA7E5
:1051D0007DA78EA79FA780E090E0A0EAB0E4898336
:1051E0009A83AB83BC838D839E83AF83B88780E033
:1051F00090E0A0EAB1E489879A87AB87BC8788E50D
:105200000E94363A882379F088E50E94363A88234E
:1052100019F00E94D43903C060E070E0CB016983CB
:105220007A838B839C8389E50E94363A882379F0C0
:1052300089E50E94363A882319F00E94D43903C0C8
:1052400060E070E0CB016D837E838F8398878AE571
:105250000E94363A882379F08AE50E94363A8823FC
:1052600019F00E94D43903C060E070E0CB01698777
:105270007A878B879C8718A219A21AA21BA28091F9
:105280005F098111A3C700E020E0AE01405E5F4FDF
:10529000BE016F5F7F4FCE018C960E941B6496C744
:1052A0000E94277D0F94360A0E9487D21092C8115F
:1052B0001092C71168EE73E080E090E00E94536F97
:1052C0000F94360A0E94CF3860E08BE593E00E948D
:1052D00063707CC71092AD0379C783E50E94363AAC
:1052E000882399F00E94D43920E030E04AE754E462
:1052F0000F94FF200F946026609338027093390258
:1053000080933A0290933B0261C788E50E94073A76
:1053100081110C94BB3289E50E94073A81110C94EB
:10532000BB328AE50E94073A81110C94BB3285E4B6
:105330000E94073A81110C94BB320C94E13283E550
:105340000E94073A882309F441C70E94D43920E01B
:1053500030E04AE754E40F94FF200F9460266093F6
:10536000540D7093550D8093560D9093570D2EC785
:1053700096E9C92E92E0D92E22E6E22E2AE0F22EFC
:1053800010E0D6018D916D010E94073A882309F43F
:105390006DC0133009F063C00E94D4394B015C0129
:1053A00020E030E040EA51E40F949A2087FF4EC09D
:1053B000A501940160916E0A70916F0A8091700A44
:1053C0009091710A0F94F3252B013C019B01AC01D4
:1053D0006091CD0D7091CE0D8091CF0D9091D00D3B
:1053E0000F94FF206093CD0D7093CE0D8093CF0D61
:1053F0009093D00DA30192016091A10D7091A20D27
:105400008091A30D9091A40D0F94FF206093A10DA6
:105410007093A20D8093A30D9093A40D60915504F9
:105420007091560480915704909158040F949E20D7
:10543000A30192010F94FF200F94602660935504FE
:1054400070935604809357049093580480926E0A88
:1054500090926F0AA092700AB092710A07C00E94DF
:10546000D439F70160837183828393831F5FF4E0F3
:10547000EF0EF11C143009F084CF0E94DE62A6C644
:105480000F94360A0E94D0ADA1C684918F010F5FA0
:105490001F4F882321F00E94733BF801F6CF60E094
:1054A0008BE094E00E9499AD61E084E094E00E947A
:1054B00099AD61E089EF93E00E9499AD61E089EEDA
:1054C00093E00E9499AD60E080EE93E00E9499AD78
:1054D00061E086ED93E00E9499AD61E08CEC93E091
:1054E0000E9499AD61E084EC93E00E9499AD61E087
:1054F00086EB93E00E9499AD60E088EA93E00E9419
:1055000099AD60E089E993E00E9499AD60E08BE895
:1055100093E00E9499AD60E085E793E00E9499AD29
:1055200060E084E693E00E9499AD50C660E080910F
:10553000C20C9091C30C0E949D9448C685E40E94C1
:10554000363A882319F00E94C53903C085E40E94C9
:10555000073A882361F0ECEBF6E384918F010F5F4B
:105560001F4F882321F00E94733BF801F6CF81E49E
:105570000E94363A882319F00E94C53903C081E49D
:105580000E94073A882361F0ECEDF4E084918F01EA
:105590000F5F1F4F882321F00E94733BF801F6CF65
:1055A0000091C20C1091C30CD8018D918D018823FC
:1055B00009F435CD0E94733BF7CF0F94A70406C6BC
:1055C00081E080937A0E8093790E00C683E50E9475
:1055D000363A882319F00E94A43902C060E070E0D6
:1055E0008B01112702301105D4F0ECEDFDE284911E
:1055F0008F010F5F1F4F811103C0E0EEF4E004C084
:105600000E94733BF801F3CF84918F010F5F1F4F0E
:10561000882309F4DBC50E94733BF801F5CF88E4C9
:105620000E94363A8823A9F00E94A4396639710590
:105630003CF06530B1E07B072CF064E071E002C023
:1056400066E970E0F801EE0FFF1FEA5DF54F718328
:10565000608386E40E94363A8823A9F00E94A43928
:10566000F801EE0FFF1FE65DF54F718360836F3F1A
:10567000710519F014F06FEF70E077FF02C060E081
:1056800070E07183608382E40E94363A882309F4D3
:105690009DC50E94A4396530710534F064377105E9
:1056A0002CF063E770E002C065E070E0000F111FAE
:1056B000F801EE5DF54F7183608388C583E50E9434
:1056C000363A882341F00E94A4398B01633071057A
:1056D0000CF07CC502C000E010E080E50E94363A84
:1056E000882319F00E94A43901C060E0F801EF5945
:1056F000F84F60830230110509F068C50E9479A750
:1057000065C583E50E94363A882341F00E94A4399A
:105710008B01603171050CF059C502C000E010E04A
:105720000E9479A7B801660F771F600F711FFB01F8
:10573000E359F84F80916A07808380916B078183DA
:1057400080916C07828342C583E50E94363A8111BD
:1057500003C0C12CD12C08C083E50E94363A8823AF
:10576000C1F30E94A4396B018DE60E94363A88236A
:1057700049F08DE60E94363A882341F00E94A43910
:105780007B0106C0EAE0EE2EF12C02C0E12CF12CE8
:105790008DE40E94363A882349F08DE40E94363A1F
:1057A000882339F00E94A4398B0105C00AE510E076
:1057B00002C000E010E08BE40E94363A882319F022
:1057C0000E94D43904C060E070E080E89FE3E3E029
:1057D000CE16D10408F0FAC4F5E6EF16F10408F08D
:1057E000F5C40536110508F0F1C4C0926007E092D7
:1057F0000D0200930C0260932C0270932D02809393
:105800002E0290932F02E2C41092D20984E40E94E7
:10581000073A882309F441C00E94D4396B017C0106
:1058200011E020E030E0A9010F949A20811101C01D
:1058300010E01093791120E030E0A901C701B60112
:105840000F949A20882349F10E94D439E091D2091B
:1058500024E0E29FF0011124E658FE4E608371833C
:105860008283938320E030E0A90160917A117091E6
:105870007B1180917C1190917D110F949A20811160
:105880000CC080E090E0A0EEBFE380937A1190938B
:105890007B11A0937C11B0937D110F94DC0096C412
:1058A000D7018D917D010E94073A882349F00E941B
:1058B000D4390F946026F8016083718382839383C7
:1058C0000C5F1F4FFDE0053B1F0751F70E948362ED
:1058D0007DC466E9E62E62E0F62E05E91DE0D701FB
:1058E0008D917D010E94073A882339F00E94D439B6
:1058F000F80160837183828393830C5F1F4FFDE007
:10590000053A1F0761F762C483E50E94073A8823BE
:10591000D9F00E94D439AB01BC014093BD0D509326
:10592000BE0D6093BF0D7093C00D4093B50D5093A5
:10593000B60D6093B70D7093B80D8CE595E00E949D
:1059400091618AE00E94733B80E50E94073A8823B8
:1059500099F00E94D439AB01BC014093BD0D509326
:10596000BE0D6093BF0D7093C00D8FE395E00E9454
:1059700091618AE00E94733B82E50E94073A882386
:1059800099F00E94D439AB01BC014093B90D5093FA
:10599000BA0D6093BB0D7093BC0D80E295E00E9440
:1059A00091618AE00E94733B84E50E94073A882354
:1059B00009F40CC40E94D439AB01BC014093B50D6D
:1059C0005093B60D6093B70D7093B80D82E095E0DB
:1059D0000E9491618AE00E94733BF8C383E50E94B4
:1059E000073A882351F00E94D4396093910D709347
:1059F000920D8093930D9093940D84E50E94073A45
:105A0000882351F00E94D43960938D0D70938E0DD0
:105A100080938F0D9093900D82E40E94073A882323
:105A200051F00E9494396093E8097093E9098093DA
:105A3000EA099093EB0988E50E94073A882351F020
:105A40000E94D4396093C10D7093C20D8093C30D31
:105A50009093C40D89E50E94073A882351F00E9473
:105A6000D4396093C50D7093C60D8093C70D909384
:105A7000C80D8AE50E94073A882351F00E94D43964
:105A80006093C90D7093CA0D8093CB0D9093CC0D8C
:105A900085E40E94073A882309F498C30E94D43908
:105AA0006093CD0D7093CE0D8093CF0D9093D00D5C
:105AB0008DC384918F010F5F1F4F882321F00E94B7
:105AC000733BF801F6CF83E50E94073A882321F063
:105AD0000E94C53980932B02ECEAF5E084918F0196
