:100000000C947B1D0C94AC1D0C94AC1D0C94AC1D7D
:100010000C94AC1D0C94AC1D0C94AC1D0C94AC1D3C
:100020000C94AC1D0C94AC1D0C94AC1D0C94AC1D2C
:100030000C94AC1D0C94E7640C94AC1D0C94AC1D9A
:100040000C94AC1D0C94F95A0C94AC1D0C94AC1D82
:100050000C94AC1D0C94AC1D0C94647C0C94AD6B96
:100060000C94AC1D0C9486400C94AC1D0C94AC1DEF
:100070000C94AC1D0C94AC1D0C94AC1D0C94AC1DDC
:100080000C94AC1D0C94AC1D0C94AC1D0C94AC1DCC
:100090000C94AC1D0C94AC1D0C94AC1D0C94AC1DBC
:1000A0000C94AC1D0C94AC1D0C94AC1D0C94AC1DAC
:1000B0000C94AC1D0C94AC1D0C94AC1D0C94AC1D9C
:1000C0000C94AC1D0C94AC1D0C94AC1D0C94AC1D8C
:1000D0000C94AC1D0C94AC1D0C94AC1D0C94AC1D7C
:1000E0000C94AC1D72697569646968696E69AC6964
:1000F00079697D69836987698B699169956999696E
:10010000AC699F69A369A769C96ACE6AD36ADD6AC7
:10011000E76A606BF16AF96A016B0B6B156B1F6B19
:100120002E6B386B606B426B4C6B566B30F373F11C
:10013000ACF16CF3ACF1ACF1ACF1ACF1ACF1ACF115
:10014000ACF1ACF1ACF1ACF1ACF1ACF1ACF1ACF1C7
:10015000ACF1ACF1ACF1ACF1ACF1ACF1ACF1ACF1B7
:10016000ACF1ACF1ACF1ACF166F3ACF1ACF1ACF1EB
:10017000ACF1ACF1ACF1ACF1ACF13FF3ACF1ACF102
:10018000ACF1ACF1ACF1ACF1ACF1ACF1ACF1ACF187
:1001900083F3A9F1084AD73B3BCE016E84BCBFFD77
:1001A000C12F3D6C74319ABD56833DDA3D00C77F47
:1001B00011BED9E4BB4C3E916BAAAABE00000080E0
:1001C0003F05A84CCDB2D44EB93836A9020C50B96F
:1001D000918688083CA6AAAA2ABE000000803F009B
:1001E0000D94BA0B0D94A8140D949C194E414E49D0
:1001F0004E495459494E46CDCCCC3D0AD7233C17E5
:10020000B7D13877CC2B329595E6241FB14F0A0031
:100210000020410000C84200401C4620BCBE4CCA21
:100220001B0E5AAEC59D74434F4D4D554E4943412B
:1002300054494F4E0044525952554E004552524F68
:10024000525300494E464F004543484F0047322F16
:1002500047332062616420706172616D65746572FC
:10026000730A005265706F736F2E2E2E00205A3A5B
:10027000200020593A200042656420583A2000525C
:100280006573756D69656E646F20696D7072652E3A
:10029000005A3946206C697374612E00457370658D
:1002A00072616E646F206F7264656E65730053696E
:1002B0006E206D6F76696D69656E746F00456E6452
:1002C0002066696C65206C6973740A004265676911
:1002D0006E2066696C65206C6973740A004D31325A
:1002E00035005344207072696E74696E67206279BC
:1002F000746520004E6F74205344207072696E74D0
:10030000696E670A005072696E742074696D653A8F
:10031000200050726F7465637465642050696E0AC2
:100320000045256920257300480243023C0235023E
:1003300027026F66660044454255473A0050617295
:1003400061646120646520656D657267656E6369CF
:1003500061006F6B00506C617461666F726D61203B
:1003600043616C69656E74650020573A0043616CA7
:10037000656E74616E646F20506C61742E2E2E0059
:100380005A3946204170616761722E00454D4552D1
:1003900047454E43595F50415253455200434153E4
:1003A000455F4C494748545F4252494748544E457F
:1003B000535300544F47474C455F4C4947485453AB
:1003C00000534F4654574152455F504F57455200D6
:1003D0004255494C445F50455243454E54004C45AC
:1003E00056454C494E475F44415441005A5F505274
:1003F0004F4245004155544F4C4556454C005052D4
:10040000494E545F4A4F420050524F475245535352
:10041000004155544F5245504F52545F54454D5032
:1004200000564F4C554D4554524943004545505296
:100430004F4D0053455249414C5F584F4E5F584F06
:100440004646004649524D574152455F4E414D4543
:100450003A4D61726C696E2042617365206F6E2047
:100460004D61726C696E312E312E382028476974C7
:100470006875622920534F555243455F434F4445A9
:100480005F55524C3A68747470733A2F2F676974D1
:100490006875622E636F6D2F7A6F6E65737461720B
:1004A00033642050524F544F434F4C5F5645525384
:1004B000494F4E3A312E30204D414348494E455F19
:1004C000545950453A5A3946204558545255444596
:1004D000525F434F554E543A3120555549443A30B6
:1004E000303030303031302D303830382D30303001
:1004F000332D303030302D323031383031313030F2
:1005000030310A002F2F20004D31343520533C6903
:100510006E6465783E206F7574206F662072616E20
:1005200067652028302D31290A0053657474696E7F
:10053000672054726176656C20416363656C6572F7
:100540006174696F6E3A200053657474696E672038
:100550005265747261637420416363656C65726196
:1005600074696F6E3A200053657474696E67205029
:1005700072696E7420416363656C65726174696F42
:100580006E3A200053657474696E67205072696E0C
:100590007420616E642054726176656C20416363DF
:1005A000656C65726174696F6E3A2000205A002094
:1005B0005900580020204D61783A2000205A002030
:1005C0005900580020204D696E3A2000456E636541
:1005D0006E6465720041706167617200536F66748A
:1005E00020656E6473746F70733A200000013C3DA7
:1005F0003803FF3637260EFF2E303E12FF13FF085A
:100600000906FFFF1A1C18FFFF24221E28271608C0
:10061000440A0643FFFFFFFFFFFF20643A00206902
:100620003A0020703A0043290A0061626C65642038
:10063000286D696E2074656D702000436F6C6420B6
:100640006578747275646573206172652000426517
:1006500064204C6576656C696E6720004661696C44
:10066000656420746F20656E61626C65204265640C
:10067000204C6576656C696E670A00426564204CA3
:100680006576656C20436F7272656374696F6E2066
:100690004D61747269783A003A2000207A5F6D6982
:1006A0006E3A20202D3230207A5F6D61783A20201A
:1006B00032300A0050726F6265205A204F666673AE
:1006C0006574004E6F2063617365206C69676874A0
:1006D0000A00556E6B6E6F776E20636F6D6D616E85
:1006E000643A2022002569730025696D202569730D
:1006F000002569682025696D2025697300256964D6
:10070000202569682025696D202569730025697990
:1007100020256964202569682025696D2025697375
:100720000050617261646120646520656D65726767
:10073000656E63696100446574656E69646100504B
:1007400072696E7465722073746F70706564206472
:10075000756520746F206572726F72732E20466902
:100760007820746865206572726F7220616E6420F3
:10077000757365204D39393920746F207265737433
:100780006172742E202854656D7065726174757283
:10079000652069732072657365742E20536574201B
:1007A0006974206166746572207265737461727415
:1007B000696E67290A004E6F20436865636B737525
:1007C0006D2077697468206C696E65206E756D6246
:1007D00065722C204C617374204C696E653A200060
:1007E000636865636B73756D206D69736D617463A8
:1007F000682C204C617374204C696E653A20004C63
:10080000696E65204E756D626572206973206E6F2A
:1008100074204C617374204C696E65204E756D6256
:1008200065722B312C204C617374204C696E653AD3
:1008300020004D313130004D33310053442072657A
:100840006164206572726F720A00446F6E65207079
:1008500072696E74696E672066696C650A00207043
:100860006F736974696F6E206F7574206F66207284
:10087000616E67652E0A003F50726F626520000A44
:100880000A426564204C6576656C20436F72726520
:100890006374696F6E204D61747269783A00202B21
:1008A000000A436F72726563746564204265642058
:1008B0004865696768742076732E20426564205409
:1008C0006F706F6C6F67793A0A00202B000A4265DF
:1008D000642048656967687420546F706F6772613F
:1008E0007068793A0A2020202B2D2D2D204241437B
:1008F0004B202D2D2B0A2020207C20202020202062
:1009000020202020207C0A204C207C202020202811
:100910002B29202020207C20520A2045207C2020CA
:100920002020202020202020207C20490A20462032
:100930007C20282D29204E20282B29207C20470A86
:100940002054207C20202020202020202020207CBB
:1009500020480A2020207C20202020282D2920200B
:1009600020207C20540A2020207C202020202020B1
:1009700020202020207C0A2020204F2D2D20465290
:100980004F4E54202D2D2B0A2028302C30290A00C0
:100990004D65616E206F662073616D706C656420BB
:1009A000706F696E74733A200020643A20002062F0
:1009B0003A200045716E20636F65666669636965FC
:1009C0006E74733A20613A200020284452595255DF
:1009D0004E2900473239204175746F2042656420EA
:1009E0004C6576656C696E670028422961636B000F
:1009F000284629726F6E740028522969676874004E
:100A0000284C29656674003F4E756D626572206FD3
:100A1000662070726F626520706F696E74732069F2
:100A20007320696D706C61757369626C6520283222
:100A3000206D696E696D756D292E0A003F28562953
:100A40006572626F7365206C6576656C20697320D2
:100A5000696D706C61757369626C652028302D3426
:100A6000292E0A004C696E656172204C6576656CB2
:100A7000696E67004578747275736F7265733A209A
:100A80003300687474703A2F2F7777772E7A6F6EF1
:100A9000657374617233642E636F6D005A3946005A
:100AA000323031392D31302D3235004261736520BD
:100AB0006F6E204D61726C696E312E312E3800568A
:100AC00031004865617465722054657374696E679E
:100AD000004D31303420533236300A4D313430201D
:100AE000533131350A4D3130362053300A004175CB
:100AF000746F20557020646F776E004D3230332054
:100B0000583135302059313530205A31360A473086
:100B100020583331302059333130205A343030208E
:100B2000463936300A4730205830205930205A3163
:100B30003020463936300A4730205833303020597B
:100B4000333030205A34303020463936300A47307E
:100B5000205830205930205A313020463936300A5A
:100B6000473020583331302059333130205A343017
:100B70003020463936300A4730205830205930204E
:100B80005A313020463936300A4730205833313018
:100B90002059333130205A34303020463936300A2B
:100BA0004730205830205930205A313020463936CD
:100BB000300A473020583331302059333130205AF1
:100BC00034303020463936300A47302058302059EA
:100BD00030205A313020463936300A4732380A4DF3
:100BE00032303320583135302059313030205A38A6
:100BF0000A4D3330302053333030302050313030D4
:100C000030004661737420746F20426F74746F6D8E
:100C1000004D3230332058313530205931353020B5
:100C20005A31360A4732382058300A4730205A3075
:100C300020463936300A4D32303320583135302095
:100C400059313030205A380A004661737420746F6D
:100C500020546F70004D32303320583135302059D8
:100C6000313530205A31360A473020583331302060
:100C700059333130205A34303020463936300A4D1D
:100C800032303320583135302059313030205A3805
:100C90000A004C6C6576617220616C206F72696726
:100CA000656E004732380045737461646973746916
:100CB00063617320496D702E005465726D697374A1
:100CC0006F72657300496E662E20436F6E74726F8B
:100CD0006C61646F7200496E662E20496D7072659A
:100CE000736F7261004D656E75207072696E636915
:100CF00070616C002020426F7175696C6C613A20E4
:100D000000200041747261730054656D70204D695C
:100D10006E696D61206573203135302E0045727229
:100D20006F723A20616C2063616C656E7461720051
:100D300045787472756972206D61730052657375C0
:100D40006D697220696D702E004F50432E20524500
:100D5000494E4943494F3A002020426F7175696CF2
:100D60006C613A200063616D626961720064656C58
:100D70002066696C616D656E746F00457370657295
:100D8000616E646F20696E696369617200494D50DC
:100D9000522E2050415553414441002020426F7152
:100DA00075696C6C613A2000200066696C616D6544
:100DB0006E746F20657870756C7361646F00457335
:100DC00070657261646F20706F7200494D50522ED1
:100DD0002050415553414441002020426F717569B4
:100DE0006C6C613A2000200045737065726520705C
:100DF0006F72206661766F720043616C656E74611C
:100E00006E646F20626F7175696C6C6100494D5042
:100E1000522E2050415553414441002020426F71D1
:100E200075696C6C613A2000200043616C656E74DA
:100E30006172206C6120626F7175696C6C61004F2A
:100E40007072696D6120626F746F6E207061726183
:100E500000494D50522E20504155534144410020ED
:100E600020426F7175696C6C613A2000706172612B
:100E700020636F6E74696E7561722E2E2E0079205C
:100E800070726573696F6E6520656C20626F746F38
:100E90006E00496E73657274652066696C616D657C
:100EA0006E746F00494D50522E20504155534144AD
:100EB00041002020426F7175696C6C613A200020FE
:100EC000004361726761722066696C616D656E7462
:100ED0006F00457370657261646F20706F720049B6
:100EE0004D50522E20504155534144410020204244
:100EF0006F7175696C6C613A2000200045787472DE
:100F00007569722066696C616D656E746F004573FA
:100F100070657261646F20706F7200494D50522E7F
:100F200020504155534144410024F4D43050C38EE5
:100F300020C2A24017828B7011127A910D816CD958
:100F40000AA861E108C7586607615143061E4B5D58
:100F500005C145A7041A411104093D9803713931AF
:100F6000034036DB0265339102D4305402802E1DDB
:100F700002632CEE01752AC501B028A0011027815B
:100F8000018F2564012B244B01E0223401AC211F89
:100F9000018D200D01801FFC00841EED00971DDFD8
:100FA00000B81CD200E61BC600201BBC00641AB2AD
:100FB00000B219A8000A19A0006A189900D1179167
:100FC0000040178B00B516840031167E00B31579EA
:100FD000003A157300C7146F0058146A00EE1366C8
:100FE000008813630025135E00C7125B006C125764
:100FF0000015125400C111510070114F0021114B06
:1010000000D61049008D10470046104400021042DF
:1010100000C00F4000800F3E00420F3C00060F3B17
:1010200000CB0E3800930E37005C0E3500270E34CF
:1010300000F30D3200C10D3100900D3000600D2E17
:1010400000320D2D00050D2C00D90C2B00AE0C2903
:1010500000850C29005C0C2700350C27000E0C269F
:1010600000E80B2400C40B2400A00B23007D0B23FD
:10107000005A0B2100390B2100180B2000F80A1F21
:1010800000D90A1E00BB0A1E009D0A1D00800A1D11
:1010900000630A1C00470A1B002C0A1B00110A1AD5
:1010A00000F7091A00DD091900C4091900AB091974
:1010B00000920917007B091800630917004C0916F4
:1010C0000036091600200916000A091500F5081552
:1010D00000E0081400CC081400B8081400A4081498
:1010E00000900813007D0812006B081300580812C6
:1010F00000460812003408110023081100120811DC
:101100000001081100F0071000E0071000D00710E0
:1011100000C0071000B0070F00A107100091070ED4
:101120000083070F0074070F0065070E0057070EB6
:101130000049070E003B070D002E070E0020070D8B
:101140000013070D0006070D00F9060C00ED060D53
:1011500000E0060C00D4060C00C8060C00BC060C0F
:1011600000B0060C00A4060B0099060C008D060BBF
:101170000082060B0077060B006C060B0061060A66
:101180000057060B004C060A0042060A0038060A01
:10119000002E060A0024060A001A060A0010060994
:1011A0000007060A00FD050900F4050900EB050922
:1011B00000E2050900D9050900D0050900C70509A5
:1011C00000BE050900B5050800AD050800A5050924
:1011D000009C050800940508008C0508008405089B
:1011E000007C050800740508006C0507006505080B
:1011F000005D050700560508004E05070047050776
:10120000004005080038050700310507002A0507DA
:1012100000230507001C050600160507000F05073B
:10122000000805060002050700FB040600F5040798
:1012300000EE040600E8040600E2040700DB0406F2
:1012400000D5040600CF040600C9040600C3040646
:1012500000BD040600B7040600B1040500AC040696
:1012600000A6040600A00405009B040600950405E2
:1012700000900406008A0405008504050080040629
:10128000007A04050075040500700405006B040570
:101290000066040500610405005C040500570405B0
:1012A00000520405004D04050048040500430405F0
:1012B000003E0404003A040500350405003004042F
:1012C000002C04050027040400230405001E040468
:1012D000001A04040016040500110404000D04049F
:1012E00000090405000404040000040400FC0304D5
:1012F00000F8030400F4030400F0030400EC03040A
:1013000000E8030400E4030400E0030400DC030439
:1013100000D8030400D4030400D0030400CC030469
:1013200000C8030300C503030024F404D9201BC430
:101330000C5C0E9804C4095F0265077101F405F99D
:1013400000FB04B30048048700C10369005803553B
:101350000003034500BE023A008402310053022A12
:10136000002902250004022000E4011C00C8011924
:1013700000AF0117009801140084011300710110DF
:10138000006101100051010E0043010D0036010BF8
:10139000002B010B0020010B00150109000C0109B5
:1013A0000003010800FB000800F3000800EB000741
:1013B00000E4000600DE000600D8000600D20006A9
:1013C00000CC000500C7000500C2000500BD0004F8
:1013D00000B9000400B5000400B1000400AD000431
:1013E00000A9000400A5000300A20003009F000460
:1013F000009B000300980003009500020093000387
:1014000000900003008D0002008B000300880002A2
:10141000008600020084000300810002007F0002B9
:10142000007D0002007B00020079000200770001CD
:1014300000760002007400020072000100710002D8
:10144000006F0002006D0001006C0002006A0001E4
:1014500000690002006700010066000100650001EC
:1014600000640002006200010061000100600001F0
:10147000005F0002005D0001005C0001005B0001F4
:10148000005A0001005900010058000100570001F6
:1014900000560001005500010054000100530000F7
:1014A00000530001005200010051000100500001F2
:1014B000004F0001004E0000004E0001004D0001F1
:1014C000004C0001004B0000004B0001004A0001ED
:1014D00000490001004800000048000100470001E9
:1014E00000460000004600010045000000450001E4
:1014F00000440001004300000043000100420000DE
:1015000000420001004100000041000100400001D4
:10151000003F0000003F0001003E0000003E0001CF
:10152000003D0000003D0001003C0000003C0000C8
:10153000003C0001003B0000003B0001003A0000BD
:10154000003A0001003900000039000100380000B5
:1015500000380000003800010037000000370001AB
:1015600000360000003600000036000100350000A3
:101570000035000000350001003400000034000098
:10158000003400010033000000330000003300018C
:101590000032000000320000003200010031000083
:1015A0000031000000310001003000000030000078
:1015B00000300001002F0000002F0000002F00006D
:1015C000002F0001002E0000002E0000002E000160
:1015D000002D0000002D0000002D0000002D000156
:1015E000002C0000002C0000002C0000002C00014A
:1015F000002B0000002B0000002B0000002B00013E
:10160000002A0000002A0000002A0000002A000131
:101610000029000000290000002900000029000026
:101620000029000100280000002800000028000018
:10163000002800000028000100270000002700000B
:1016400000270000002700000027000100260000FE
:1016500000260000002600000026000000260001F1
:1016600000250000002500000025000000250000E6
:1016700000250000002500010024000000240000D7
:1016800000240000002400000024000100230000CA
:1016900000230000002300000023000000230000BE
:1016A00000230000002300010022000000220000AF
:1016B00000220000002200000022000000220001A1
:1016C0000021000000210000002100000021000096
:1016D0000021000000210000002100010020000086
:1016E000002000000020000000200000002000007A
:1016F000002000000020000000200001001F00006A
:10170000001F0000001F0000001F0000001F00005D
:10171000001F0000001F0001001E0000001E00004E
:10172000001E0000001E0000004D383420582059D3
:10173000205A2045000200000000000000000000C8
:101740000000000000000000000000000000000099
:101750000000000000000000000000000000000089
:101760000000000000000000000000000000000079
:1017700000000000000007FF01FE070183FE0FF8D4
:10178000FFF807007FC007FF83FF0F8187FE1FF868
:10179000FFF80F80FFE007FFC7038F818FFC3FF04A
:1017A000FFF81FC0E0E00003C6018FC18C003800C5
:1017B00007001FC0C060000786018CC18C0030008C
:1017C00007003DE0C060000F06018CE18C0038008E
:1017D000070038E0E0E0001E06018C618FFE3FF05C
:1017E000070038E0FFC0003C06018C618FFE1FF847
:1017F00007003060FF80007806018C318FFC0FFC01
:1018000007007270FC0000F006018C318E00001C95
:1018100007006230CE0001E006018C398C00000C1C
:1018200007006730C70003C006018C198C00000C4C
:1018300007006730C380078007038C198E00001CE7
:101840000700CF98C1C007FFC7FF8C0F8FFF1FFC99
:101850000700CF98C0F003FFC3FF0C0F87FF3FF8CE
:101860000700DFD8C07001FFC1FE0C0701FE3FF08A
:101870000700000000000000000000000000000061
:101880000000000000000000000000000000000058
:101890000000000000000000000000000000000048
:1018A0000000000000000000000000000000000038
:1018B0000000000000002020506C616E6E657242D6
:1018C000756666657242797465733A2000204672C7
:1018D0006565204D656D6F72793A2000436F6D70BC
:1018E000696C65643A204F637420323520323031A0
:1018F000390A00207C20417574686F723A202848AC
:10190000616C6C79405A4F4E4553544152290A003C
:10191000323031392D31302D323500204C61737425
:1019200020557064617465643A20004261736520DB
:101930006F6E204D61726C696E312E312E380A0047
:101940004D61726C696E0020536F667477617265C9
:101950002052657365740A00205761746368646F70
:10196000672052657365740A002042726F776E209B
:101970006F75742052657365740A0020457874652C
:10198000726E616C2052657365740A00506F7765E2
:101990007255700A0073746172740A006572726F16
:1019A000722077726974696E6720746F2066696C43
:1019B000650A00456E6473746F707320256320257B
:1019C000632025632025630020503A00205A3A0006
:1019D00020593A0020583A00656E6473746F707332
:1019E000206869743A2000446F6E652073617669DF
:1019F0006E672066696C652E0A004D323900506FA3
:101A000072206661766F722C207265696E696369F7
:101A10006500494D505245534F524120504152416B
:101A20004441005072696E7465722068616C74651F
:101A3000642E206B696C6C28292063616C6C656472
:101A4000210A00656E7175657565696E67202200F3
:101A50000000C0C0000000C10000000000004842BB
:101A60000000484200000040000000005761726E14
:101A7000696E673A20486F6D696E672042756D70B8
:101A80002044697669736F72203C20310A0002029B
:101A9000040000A0400000A040000000400000A39F
:101AA0004300009F430000C843FFFFFF4D36303026
:101AB00020486F74656E6420746F6F20636F6C6470
:101AC00020746F206368616E67652066696C616D64
:101AD000656E740A0000060900FE070192032120CA
:101AE0007FFF07FF07FF0000000600000107070651
:101AF000020080808080800080030202060105A031
:101B0000A00507070600005050F850F85050050790
:101B1000070600002078A07028F0200507070600BF
:101B200000C0C81020409818050707060000609004
:101B3000A040A89068020303060104C04080030788
:101B4000070601002040808080402003070706012F
:101B5000008040202020408005050506000120A8C7
:101B600070A8200505050600012020F820200203AA
:101B7000030602FFC04080050101060003F80202CF
:101B800002060200C0C0050505060001081020403D
:101B9000800507070600007088888888887003071A
:101BA0000706010040C040404040E005070706002E
:101BB00000708808708080F8050707060000F8109C
:101BC00020100808F005070706000010305090F8B4
:101BD0001010050707060000F880F0080888700557
:101BE0000707060000708080F088887005070706E8
:101BF0000000F808102020202005070706000070CC
:101C000088887088887005070706000070888878C3
:101C1000080870020505060200C0C000C0C0020628
:101C2000060602FFC0C000C040800407070600008F
:101C300010204080402010050303060002F800F841
:101C40000407070601008040201020408005070798
:101C50000600007088081020002005070706000015
:101C600070880868A8A870050707060000708888B3
:101C7000F8888888050707060000F08888F08888BB
:101C8000F0050707060000708880808088700507CF
:101C900007060000F08888888888F0050707060096
:101CA00000F88080F08080F8050707060000F880C3
:101CB00080F0808080050707060000708880B88863
:101CC0008870050707060000888888F888888801DA
:101CD0000707060200808080808080800507070655
:101CE00000003810101010906005070706000088EB
:101CF00090A0C0A090880507070600008080808023
:101D00008080F805070706000088D8A8888888889A
:101D10000507070600008888C8A89888880507076F
:101D2000060000708888888888700507070600000C
:101D3000F08888F08080800507070600007088889A
:101D400088A89068050707060000F08888F0A09032
:101D500088050707060000788080700808F00507EE
:101D600007060000F8202020202020050707060095
:101D7000008888888888887005070706000088889A
:101D8000888888502005070706000088888888888A
:101D9000A85005070706000088885020508888054D
:101DA00007070600008888885020202005070706BE
:101DB0000000F80810204080F8030707060100E043
:101DC0008080808080E005050506000180402010AD
:101DD00008030707060100E02020202020E005037B
:101DE00003060004205088050101060000F80202E5
:101DF0000206020580400505050600007008788887
:101E0000780507070600008080B0C88888F00505BF
:101E1000050600007080808870050707060000082E
:101E20000868988888780505050600007088F8809D
:101E3000700507070600003048E0404040400506B6
:101E4000060600FF708888780870050707060000FE
:101E50008080B0C88888880107070602008000805B
:101E6000808080800308080601FF200020202020B9
:101E7000A040040707060000808090A0C0A0900347
:101E80000707060100C04040404040E00505050648
:101E90000000D0A8A8A8A8050505060000B0C888BD
:101EA0008888050505060000708888887005060684
:101EB0000600FFF08888F080800506060600FF789F
:101EC0008888780808050505060000B0C88080806D
:101ED00005050506000070807008F004070706007D
:101EE000004040E04040403005050506000088887D
:101EF0008898680505050600008888885020050533
:101F0000050600008888A8A8500505050600008879
:101F1000502050880506060600FF888888780870DB
:101F2000050505060000F8102040F8030707060124
:101F300000204040804040200107070602008080CA
:101F40008080808080030707060100804040204099
:101F500040800502020600026890000000060000B2
:101F600000002100240027002A002D00300033004B
:101F700001010000040107010A0100002200250000
:101F800028002B002E003100340002010000050162
:101F900008010B01000020002300260029002C006E
:101FA0002F003200000100000301060109010505B0
:101FB0000505070508080808020202020A0A0808BF
:101FC00004040404010101010101010103030303ED
:101FD00003030303040707070C0C0C0C0C0C0C0C7C
:101FE0000202020206060606060606060B0B0B0B8D
:101FF0000B0B0B0B010210202008081020401020B2
:1020000040800201020108040201010204081020BC
:1020100040808040201008040201800402018040BA
:102020002010080402010804020101020408102023
:102030004080010204081020408000000A0B0209C1
:102040000C0D0E0807030401000000000000000052
:102050000000000000000000000000000000000080
:10206000000000000000121110000000000000003D
:102070000000000000000000000000000000000060
:1020800025753A2530327500253032753A253032C3
:10209000750025756420253032753A25303275007B
:1020A0005A00590058004D616E75616C0052616EA6
:1020B000646F6D004C696E6561720009200000005C
:1020C000000000000000000000007FFFE0000000B2
:1020D0000000000000000000007000E000000000B0
:1020E000000000000000000061F860000000000037
:1020F0000000000000000041F82000000000000087
:1021000000000000000040F020000000000000007F
:1021100000000000004060200000000000000000FF
:10212000000000005801A0FFC003B807700EE000D7
:102130004081005C63A07F8003B807700EE0002040
:1021400040805EF7A07F8001B0036006C0002040A1
:10215000805EF7A07F8001B0036006C00040810070
:102160005C63A07F8007BFFF7FFEF0008102005804
:1021700001A03F000780000000F001020400406061
:1021800020FFC007FFFC1FFFF00102040040F02009
:10219000FFC007FFFE3FFFF00081020041F820FF73
:1021A000C000000F7800000040810061F8603F002F
:1021B000000007700000000000007000E01E00003A
:1021C000000360000001FFFF807FFFE00C000000C3
:1021D0000140000001FFFF8000000000000000003F
:1021E000000000000000007FFFE000000000000091
:1021F0000000000000007000E0000000000000008F
:102200000000000000630C600000000000000000FF
:1022100000000000470E2000000000000000000049
:102220000000004F0F200000000000000000000030
:1022300000005F0FA0000000000000000000000090
:10224000005E07A0FFC003B807700EE000408100E9
:102250004060207F8003B807700EE000204080407F
:10226000F0207F8001B0036006C00020408040F075
:10227000207F8001B0036006C000408100406020E4
:102280007F8007BFFF7FFEF0008102005E07A03F56
:10229000000780000000F0010204005F0FA0FFC0F3
:1022A00007FFFC1FFFF0010204004F0F20FFC007D3
:1022B000FFFE3FFFF000810200470E20FFC000003C
:1022C0000F78000000408100630C603F00000007B1
:1022D000700000000000007000E01E0000000360BD
:1022E000000001FFFF807FFFE00C000000014000C4
:1022F0000001FFFF8000000030012C014001270198
:102300005001220170011D0190011801B00113015B
:10231000C0010E01F0010901100204013002FF00AA
:102320006002FA009002F500C002F0000003EB002A
:102330004003E6008003E100D003DC002004D70066
:10234000E004D200C005CD004006C800D006C3009E
:102350008007BE00F008B9004009B400C009AF0012
:10236000B00AAA00B00BA500D00CA000000E9B0084
:10237000C01096005012910000148C00C015870008
:10238000B0178200B0197D00D01B7800001E7300CA
:1023900040206E0090226900F024640040275F0016
:1023A00090295A00E02B5500102E500020304B0091
:1023B00010324600E033410090353C0010373700C2
:1023C00070383200A0392D00B03A2800A03B23001D
:1023D000603C1E00103D1900903D1400103E0F009F
:1023E000703E0A00C03E0500003F0000403FFBFF7A
:1023F000803FF6FFC03FF1FF1000AA0380004001BC
:1024000000012C01B001220140021001F002020182
:102410008003F8004004F500E004ED009005E400BE
:102420003006DD00E006D7008007D1003008CC0080
:10243000D008C7007009C300100ABE00B00ABB0074
:10244000500BB700900CB300D00DAA00B00FA50040
:102450005010A000101496009016900010198C00D7
:10246000501A8500301C820070227800B02375005D
:1024700040256E0020276900A0296400502A5F00D3
:10248000902B5A00D02C5500702D4F00E02E4800A4
:102490005031450030334100D035390060363700C7
:1024A00010373300F0382D00A0392700803C1C0085
:1024B000403D1700F03D1100803E0900D03FE5FF90
:1024C0004572726F723A2054656D70204D696E20AE
:1024D000506C6174004572726F723A2054656D7071
:1024E000204D696E696D61004D494E54454D502037
:1024F000747269676765726564004572726F723ADB
:102500002054656D70204D617820506C61740045D9
:1025100072726F723A2054656D70204D6178696DEA
:1025200061004D415854454D50207472696767658C
:1025300072656400202F002042403A0020403A009B
:1025400020746F6F206C6F6E67206578747275737E
:10255000696F6E2070726576656E7465640A00201E
:10256000636F6C6420657874727573696F6E207028
:10257000726576656E7465640A00706172612072BE
:102580006573756D6972004573706572616E646F15
:1025900020696D702E00494D50522E2050415553E8
:1025A000414441005461726A6574612072657469C6
:1025B00072616461005461726A65746120636F6C5A
:1025C0006F63616461004578747275736F72004D5A
:1025D0006F766572205A004D6F7665722059004DF6
:1025E0006F7665722058005072657061726172007A
:1025F000496E697469616C697A6520454550524F2E
:102600004D00436F6E74726F6C0052657374617528
:10261000726172206D656D6F7269610043617267EE
:102620006172206D656D6F72696100496E697469D0
:10263000616C697A6520454550524F4D0047756180
:1026400072646172206D656D6F726961004D6F76A5
:10265000696D69656E746F0054656D706572617443
:10266000757261004D656E75207072696E63697078
:10267000616C0050726563616C656E7461722041BB
:102680004253436F6E6669670050726563616C65A3
:102690006E74617220504C41436F6E6669670050E2
:1026A00049442D44005049442D44005049442D498B
:1026B000005049442D49005049442D500050494490
:1026C0002D500020082046616374002008204661D8
:1026D0006374002008204D6178002008204D617847
:1026E000002008204D6178002008204D696E0020F0
:1026F00008204D696E002008204D696E0041706110
:1027000067617200456E63656E6465720054656D45
:102710007065726174757261204175746F2E00432B
:102720006F6F6C2046616E20537065656400436F67
:102730006F6C2046616E2053706565640056656E4F
:1027400074696C61646F720056656E74696C616463
:102750006F720056656E74696C61646F7200506CC4
:10276000617461666F726D6100506C617461666F57
:10277000726D6100506C617461666F726D610042D0
:102780006F7175696C6C6100426F7175696C6C6119
:1027900000426F7175696C6C6100436F6E74726F8B
:1027A0006C0047756172646172206D656D6F72694E
:1027B0006100506C617461666F726D6100506C6194
:1027C0007461666F726D6100506C617461666F72E6
:1027D0006D6100426F7175696C6C6100426F71755B
:1027E000696C6C6100426F7175696C6C6100566553
:1027F0006E74696C61646F720056656E74696C61A9
:10280000646F720056656E74696C61646F72005417
:10281000656D70657261747572610050726F626986
:102820006E67206661696C65640A0050726F626948
:102830006E67206661696C656400205A3A2000204A
:10284000593A200042656420583A2000486F6D656F
:102850002025732573257320696E69632E00206916
:102860006E69632E0A005A0059005800486F6D6562
:10287000200057726974696E6720746F2066696CF6
:10288000653A20006F70656E206661696C65642C26
:102890002046696C653A20006F70656E206661693C
:1028A0006C65642C2046696C653A200046696C654D
:1028B0002073656C65637465640A002053697A65EA
:1028C0003A200046696C65206F70656E65643A2039
:1028D000006F70656E206661696C65642C204669C6
:1028E0006C653A20002066696C653A2000646F6967
:1028F0006E67006672657368004E6F772000454E04
:102900004420535542524F5554494E450A00222007
:10291000706F73002220706172656E743A220053EA
:102920005542524F5554494E452043414C4C20741A
:1029300061726765743A220050617261646120645B
:102940006520656D657267656E6369610074727993
:10295000696E6720746F2063616C6C207375622DE3
:1029600067636F64652066696C6573207769746856
:1029700020746F6F206D616E79206C6576656C7365
:102980002E204D4158206C6576656C2069733A00A5
:10299000205A3A0020423A0020436F756E7420415D
:1029A0003A0020453A00205A3A0020593A00583A55
:1029B000003A004361703A0023646566696E6520E1
:1029C0002044454641554C545F4B642000236465C8
:1029D00066696E65202044454641554C545F4B69FD
:1029E000200023646566696E652020444546415594
:1029F0004C545F4B702000504944204175746F74F3
:102A0000756E652066696E6973686564212050750E
:102A10007420746865206C617374204B702C204B9B
:102A20006920616E64204B6420636F6E7374616E05
:102A300074732066726F6D2062656C6F7720696EAB
:102A4000746F20436F6E66696775726174696F6E2B
:102A50002E680A00504944204175746F74756E6584
:102A6000206661696C6564212074696D656F757499
:102A70000A004572726F723A2074656D70657261FA
:102A80007475726100546865726D616C2052756E68
:102A900061776179004572726F723A20616C2063D0
:102AA000616C656E7461720048656174696E67205F
:102AB0006661696C656400504944204175746F74A7
:102AC000756E65206661696C6564212054656D7062
:102AD0006572617475726520746F6F2068696768CC
:102AE0000A00204B643A2000204B693A2000204B1A
:102AF000703A20000A20436C617373696320504967
:102B000044200A002054753A2000204B753A2000DA
:102B1000206D61783A2000206D696E3A20002064B3
:102B20003A200020626961733A2000507265636147
:102B30006C656E7461722041425320456E64005092
:102B4000726563616C656E7461722041425300501E
:102B5000726563616C656E74617220414253506CA2
:102B6000617461666F726D6100507265706172614F
:102B700072004174726173004E65787420636F72E5
:102B80006E6572004732380A473239005072656309
:102B9000616C656E746172204142530050726563CE
:102BA000616C656E74617220504C4100456E6672B6
:102BB0006961720043616D626961722066696C616E
:102BC0006D656E746F004E6976656C617220706C15
:102BD000617461666F726D6100417061676172203E
:102BE0006D6F746F726573004D38340053657420D7
:102BF0004D697820526174696F004C6576656C2070
:102C0000636F726E657273004F726967656E205AEA
:102C100000473238205A004F726967656E205900AC
:102C20004732382059004F726967656E2058004757
:102C300032382058004C6C6576617220616C206FD0
:102C4000726967656E00473238004D6F7665722095
:102C5000656A6573004D656E75207072696E636993
:102C600070616C004D6F7665722058004D6F76650F
:102C7000722059004D6F766572205A004578747243
:102C800075736F72004D6F76657220302E316D6DE9
:102C9000004D6F76657220316D6D004D6F766572F7
:102CA0002031306D6D004D6F76657220656A6573F9
:102CB000004578747275736F72004D6F766572207F
:102CC0005A004D6F7665722059004D6F76657220FF
:102CD00058004D6963726F7061736F205A004E6FB8
:102CE000726D616C697A6520616E64204170706CF0
:102CF000793E3E0045332050726563656E74004531
:102D0000332050726563656E7400453220507265E1
:102D100063656E740045322050726563656E7400A1
:102D200045312050726563656E74004531205072E4
:102D30006563656E7400416A75737461720045580D
:102D400054323A4558543300455854323A45585451
:102D50003300456E64206F662045585431252500A8
:102D6000456E64206F662045585431252500537404
:102D7000617274206F6620455854312525005374C4
:102D8000617274206F6620455854312525004175C5
:102D9000746F204D6978204D6F6465004175746FC4
:102DA000204D6978204D6F646500416A75737461C8
:102DB00072004D3630302042300043616D626961EF
:102DC000722066696C616D656E746F004D69637227
:102DD0006F7061736F205A00466C756A6F00466CA5
:102DE000756A6F00466C756A6F0056656E74696C23
:102DF00061646F720056656E74696C61646F720015
:102E000056656E74696C61646F7200506C617461B8
:102E1000666F726D6100506C617461666F726D6196
:102E200000506C617461666F726D61004175746F02
:102E3000204D6978204D6F646500536574204D699D
:102E40007820526174696F00426F7175696C6C61B2
:102E500000426F7175696C6C6100426F7175696CCD
:102E60006C610056656C6F63696461640056656CE3
:102E70006F63696461640056656C6F636964616463
:102E8000004D656E75207072696E636970616C00CB
:102E900050726563616C656E74617220504C4120A4
:102EA000456E640050726563616C656E746172207A
:102EB000504C410050726563616C656E74617220A4
:102EC000504C41506C617461666F726D610050725C
:102ED00065706172617200290A00206279746573FD
:102EE0003B20637263200053657474696E677320BE
:102EF00053746F726564202800202863616C6375C9
:102F00006C6174656429210A0020213D200045453B
:102F100050524F4D20435243206D69736D6174636D
:102F200068202D202873746F726564292000290A97
:102F3000002062797465733B206372632000207304
:102F4000746F7265642073657474696E6773207240
:102F50006574726965766564202800204D61726C25
:102F6000696E3D563532290A0028454550524F4D6D
:102F70003D00454550524F4D2076657273696F6E26
:102F8000206D69736D617463682000534420636130
:102F90007264206F6B0A006F70656E526F6F7420E1
:102FA0006661696C65640A00766F6C756D652E6983
:102FB0006E6974206661696C65640A004572726F9F
:102FC000723A00534420696E6974206661696C0A24
:102FD0000043616E6E6F74206F70656E2073756252
:102FE00064697220006175746F25692E67005265EF
:102FF00073656E643A20006F6B0020746F6F206CF5
:103000006F6E6720657874727573696F6E20707269
:103010006576656E7465640A0020636F6C64206574
:103020007874727573696F6E2070726576656E74F0
:1030300065640A004D363030004361746368206671
:10304000696C616D656E742072756E206F75742188
:103050000A0050617261646120646520656D65726B
:1030600067656E636961004B494C4C206361757301
:103070006564206279204B494C4C20627574746FF2
:103080006E2F70696E0A0050617261646120646520
:1030900020656D657267656E636961004B494C4CD4
:1030A0002063617573656420627920746F6F206D91
:1030B00075636820696E6163746976652074696DF3
:1030C00065202D2063757272656E7420636F6D6D5F
:1030D000616E643A200046696C616D656E742069AA
:1030E0006E73657274210A004361746368206669B7
:1030F0006C616D656E742072756E206F7574210A37
:103100000056656C2E207669616A65206D696E00D7
:1031100056656C2E207669616A65206D696E005671
:10312000656C2E207669616A65206D696E00566D4A
:10313000696E00566D696E00566D696E00566D6160
:10314000784500566D61784500566D6178450056AA
:103150006D61785A00566D61785A00566D61785AE3
:1031600000566D61785900566D61785900566D6151
:10317000785900566D61785800566D617858005640
:103180006D617858004D6F76696D69656E746F007A
:103190004163656C2E206D617845004163656C2E3E
:1031A000206D617845004163656C2E206D61785A11
:1031B000004163656C2E206D61785A004163656C37
:1031C0002E206D617859004163656C2E206D617809
:1031D00059004163656C2E206D617858004163652C
:1031E0006C2E206D617858004163656C2E20566905
:1031F000616A65004163656C2E205669616A6500ED
:103200004163656C2E207265747261632E004163A8
:10321000656C2E207265747261632E004163656C6B
:1032200065726163696F6E004163656C65726163AD
:10323000696F6E004D6F76696D69656E746F0056CB
:10324000652D6A65726B0056652D6A65726B005656
:10325000652D6A65726B00567A2D6A65726B005631
:103260007A2D6A65726B0056792D6A65726B00560D
:10327000792D6A65726B0056792D6A65726B0056FE
:10328000782D6A65726B0056782D6A65726B0056F0
:10329000782D6A65726B004D6F76696D69656E7425
:1032A0006F0045207061736F732F6D6D0045207046
:1032B00061736F732F6D6D005A207061736F732F80
:1032C0006D6D005A207061736F732F6D6D00592002
:1032D0007061736F732F6D6D0059207061736F7320
:1032E0002F6D6D0058207061736F732F6D6D0058D6
:1032F000207061736F732F6D6D004D6F76696D690E
:10330000656E746F005061736F732F6D6D004A6549
:10331000726B004163656C65726163696F6E005624
:10332000656C6F63697479004465736661736520C9
:103330005A2050726F626500446573666173652040
:103340005A2050726F626500484F4D455F5A5F6F5B
:10335000666673657400484F4D455F5A5F6F6666D9
:1033600073657400484F4D455F595F6F66667365BE
:103370007400484F4D455F595F6F66667365740012
:10338000484F4D455F585F6F666673657400484FE0
:103390004D455F585F6F666673657400436F6E746A
:1033A000726F6C0043616E6E6F7420656E7465722F
:1033B000207375626469723A2000022E2E004D65FA
:1033C0006E75207072696E636970616C0000546F75
:1033D00074616C20646520457874727573696F6ED2
:1033E0003A2000256C642E25696D0000496D7072CD
:1033F0006573696F6E206D6173206C617267613AED
:103400002000005469656D706F20746F74616C20CA
:10341000646520696D702E3A2000436F6D706C6595
:1034200074616461733A2000436F6E74656F206449
:103430006520696D70726573696F6E3A200054651E
:103440006D7065726174757261206D6178696D610E
:103450003A203133300054656D7065726174757255
:1034600061206D696E696D613A2035005442656472
:103470003A3130304B203125206265746120333978
:1034800035300054656D7065726174757261206DC0
:103490006178696D613A203237350054656D706529
:1034A000726174757261206D696E696D613A203563
:1034B0000054303A203130304B2031252062657481
:1034C000612033393530004675656E74652064655A
:1034D00020706F6465723A2047656E65726963009B
:1034E00050726F746F636F6C6F3A20312E300042F0
:1034F000617564696F733A20313135323030005A6A
:103500004F4E4553544152204C43443132383634A7
:10351000005A4F4E4553544152205A5249425F5629
:1035200036007C3C3E5E2B3D3F2F5B5D3B2C2A22D0
:103530005C0048617264636F646564204465666121
:10354000756C742053657474696E6773204C6F6179
:103550006465640A00D0070000D007000064000022
:103560000088130000000016430000C8420000005D
:1035700041000048420000A0420000A0420000C8F4
:10358000430000A042205A0020590020204D323133
:10359000312058004D696E20506F732041646A3AA3
:1035A0000A0020204D383531205A005A2D50726FB4
:1035B0006265204F666673657420286D6D293A0A2E
:1035C0000020440020490020204D3330312050009D
:1035D0005049442073657474696E67733A0A002019
:1035E000460020420020480020204D313435205331
:1035F000004D6174657269616C20686561747570F5
:1036000020706172616D65746572733A0A002020E2
:103610004D3432302053004175746F204265642070
:103620004C6576656C696E673A0A00204500205A41
:103630000020590020580020420020540020204D36
:10364000323035205300416476616E6365643A2000
:10365000533C6D696E5F66656564726174653E209A
:10366000543C6D696E5F74726176656C5F6665650A
:1036700064726174653E20423C6D696E5F7365677C
:103680006D656E745F74696D655F75733E20583C3F
:103690006D61785F78795F6A65726B3E205A3C6D28
:1036A00061785F7A5F6A65726B3E20453C6D617838
:1036B0005F655F6A65726B3E0A002054002052000D
:1036C00020204D323034205000416363656C6572B8
:1036D0006174696F6E2028756E6974732F73322957
:1036E0003A20503C7072696E745F616363656C3E32
:1036F00020523C726574726163745F616363656CD0
:103700003E20543C74726176656C5F616363656CE6
:103710003E0A00204500205A0020590020204D324A
:1037200030312058004D6178696D756D20416363BB
:10373000656C65726174696F6E2028756E6974734B
:103740002F7332293A0A00204500205A00205900E0
:1037500020204D3230332058004D6178696D756DF1
:10376000206665656472617465732028756E69747E
:10377000732F73293A0A00204500205A002059006F
:1037800020204D39322058005374657073207065C5
:103790007220756E69743A0A0020204D3230302054
:1037A00044300A0020204D3230302044002044694B
:1037B0007361626C65640A0046696C616D656E7464
:1037C0002073657474696E67733A0020204D31343C
:1037D000392043203B20556E69747320696E204365
:1037E000656C736975730A002020473231202020F0
:1037F000203B20556E69747320696E206D6D0A0040
:1038000000060900FE000000000001090008FE009B
:103810000005080806000040F0C888889878100560
:103820000808060000C0F88888888888F80505051B
:103830000600012030F8302005080806000020703E
:10384000F820202020E00509090600FF2070A8A824
:10385000B8888870200509090600FFE080C0B0A87C
:10386000283028280509090600FFF8A888888888D4
:1038700088A8F8050A0A0600FE205050505088A873
:10388000A8887003030306000340A04046696C65E6
:103890002064656C657465643A0044656C657469A0
:1038A0006F6E206661696C65642C2046696C653AB0
:1038B00020006F70656E206661696C65642C20461F
:1038C000696C653A20006D0046696C616D656E74C7
:1038D00020757365643A200053746174733A200054
:1038E0002C204C6F6E67657374206A6F623A2000FB
:1038F000546F74616C2074696D653A200053746173
:1039000074733A20002C204661696C65643A20008B
:103910002C2046696E69736865643A2000507269AC
:103920006E74733A200053746174733A20004361DB
:103930006C656E74616D69656E746F206C6973740B
:103940006F0020573A0045256920257300457272A3
:103950006F722077726974696E6720746F204545B5
:1039600050524F4D210A006563686F3A004D323462
:10397000004D32332025730066696C616D656E748D
:103980003A20007A5F70726F62653A20007A5F6D4C
:10399000696E3A2000795F6D696E3A2000785F6D3C
:1039A000696E3A20005265706F7274696E672065A7
:1039B0006E6473746F70207374617475730A00069B
:1039C0000606060600000000006265640A002C205E
:1039D00073797374656D2073746F707065642120E2
:1039E0004865617465725F49443A20004572726FA0
:1039F000723A2074656D70657261747572610054FD
:103A00006865726D616C2052756E617761790045F1
:103A100072726F723A20616C2063616C656E7461C2
:103A2000720048656174696E67206661696C6564DF
:103A3000005072696E7420706175736564004D3159
:103A4000323500004D323400496D70726573696F14
:103A50006E2063616E63656C61646100506F7765B1
:103A60007220446F776E004D3831004E6F206861D0
:103A700079207461726A657461205344004D656EEB
:103A80007520646520534400446574656E6572203A
:103A9000696D70726573696F6E005265616E7564F1
:103AA000617220696D70726573696F6E00496E6630
:103AB0002E20496D707265736F726100506175736D
:103AC000617220696D70726573696F6E00436F6E0D
:103AD00074726F6C00507265706172617200416A3D
:103AE000757374617200496E666F726D6163696FA0
:103AF0006E00F400F20011241FBECFEFD1E2DEBF52
:103B0000CDBF00E00CBF13E0A0E0B2E0E4E5F4E5D7
:103B100002E00BBF02C007900D92A63BB107D9F798
:103B200022E1A6EBB3E001C01D92A73EB207E1F788
:103B30001DE1CAE7DDE100E006C021970109802F01
:103B4000FE010F948729C937D10780E00807A9F73C
:103B50000F947F0F0D94192A0C9400002F923F921E
:103B60004F925F926F927F928F929F92AF92BF928D
:103B7000CF92DF92EF92FF920F931F93CF93DF9339
:103B8000CDB7DEB7C356D1090FB6F894DEBF0FBE6E
:103B9000CDBF8091D20C8D3409F4D8C6843511F490
:103BA0000C94FF31873421F0E7E6F9E30C943F32BF
:103BB0002090D00C3090D10C2BE12216310409F466
:103BC000CBC59CF444E02416310444F452E025169D
:103BD0003104DCF537FE32C00C94573284E02816ED
:103BE000310409F472C50C9457329EE12916310450
:103BF00009F4E7C57CF4BCE12B16310409F4DCC5FB
:103C0000EDE12E16310411F00C9457320E9440431E
:103C10000C945732FBE52F16310409F441C62CE50C
:103C20002216310409F441C63AE52316310411F095
:103C30000C9457321092BA030C9457328091800240
:103C400081110C945A320C9457328091800288234F
:103C500011F40C9457320E94D64082E50E94A73B93
:103C6000882309F43EC10E94453B4B015C0120E0E2
:103C700030E0A9010F940F22882309F462C18091DA
:103C80005E0A90915F0AA091600AB091610A88ABC8
:103C900099ABAAABBBAB2091620A3091630A409109
:103CA000640A5091650A2CAB3DAB4EAB5FAB809183
:103CB0005B0990915C09A0915D09B0915E09249621
:103CC0008CAF9DAFAEAFBFAF249720915F0930910D
:103CD0006009409161095091620928AF39AF4AAF3C
:103CE0005BAF9C01AD0168A979A98AA99BA90F9432
:103CF0000F2281110DC028AD39AD4AAD5BAD6CA965
:103D00007DA98EA99FA90F940F22882309F419C1B8
:103D100011E032E02316310409F010E020E030E039
:103D2000A901C501B4010F940F22881F8827881F9D
:103D3000181759F080E090E0A0E8BFEB2C968CAF0C
:103D40009DAFAEAFBFAF2C970AC020E030E040E897
:103D50005FE32C962CAF3DAF4EAF5FAF2C9728A9F9
:103D600039A94AA95BA924966CAD7DAD8EAD9FADF6
:103D700024970F948B266CAF7DAF8EAF9FAF2CA98D
:103D80003DA94EA95FA968AD79AD8AAD9BAD0F94F1
:103D90008B266B017C012CAD3DAD4EAD5FADCA01F4
:103DA000B9010F9474222B013C01A7019601C701B0
:103DB000B6010F9474229B01AC01C301B2010F94B0
:103DC0008C260F94F72828966CAF7DAF8EAF9FAFEF
:103DD000289720E030E040E05FE30F9474222B014D
:103DE0003C01A5019401C501B4010F9474224B015B
:103DF0005C01A3019201C301B2010F9474229B01E3
:103E0000AC01C501B4010F948B260F94F7282C96B2
:103E10002CAD3DAD4EAD5FAD2C970F9474224B0190
:103E20005C01C701B601905828962CAD3DAD4EAD52
:103E30005FAD28970F946827A50194010F94742211
:103E40006B017C0124962CAD3DAD4EAD5FAD24974A
:103E500068A979A98AA99BA90F948C2620E030E053
:103E600040E05FE30F9474229B01AC01C701B601EF
:103E70000F948C2628A939A94AA95BA90F948B26EF
:103E80006B017C0128AD39AD4AAD5BAD6CA97DA954
:103E90008EA99FA90F948C2620E030E040E05FE3DC
:103EA0000F9474222B013C0128962CAD3DAD4EADF4
:103EB0005FAD28976CAD7DAD8EAD9FAD0F9468273B
:103EC000A50194010F9474229B01AC01C301B201BE
:103ED0000F948C262CA93DA94EA95FA90F948B267F
:103EE00014C089E40E94A73B882329F00E94453B27
:103EF0006B017C0103C0C12CD12C76018AE40E94A5
:103F0000A73B882309F10E94453B24966CAF7DAF07
:103F10008EAF9FAF249720E030E0A901C701B60122
:103F20000F940F2281111FC020E030E0A9012496D8
:103F30006CAD7DAD8EAD9FAD24970F940F22811196
:103F400012C0ECEBFFE2ADC320E030E0A901C701F5
:103F5000B6010F940F228823A1F324961CAE1DAE48
:103F60001EAE1FAE2497D701C601B05888AB99ABDF
:103F7000AAABBBAB24962CAD3DAD4EAD5FAD249747
:103F800050582CAB3DAB4EAB5FAB9C01AD01BC01BF
:103F9000CD010F9474224B015C012CA93DA94EA9BF
:103FA0005FA9CA01B9010F9474229B01AC01C5013C
:103FB000B4010F948C260F94F7286C966CAF7DAFEC
:103FC0008EAF9FAF6C9780915E0A90915F0AA0912F
:103FD000600AB091610A88AF99AFAAAFBBAFA701E1
:103FE0009601BC01CD010F948C262C966CAF7DAF51
:103FF0008EAF9FAF2C972091620A3091630A409157
:10400000640A5091650A28962CAF3DAF4EAF5FAF62
:10401000289724962CAD3DAD4EAD5FAD24972896E4
:104020006CAD7DAD8EAD9FAD28970F948C266096BC
:104030006CAF7DAF8EAF9FAF609780915B09909121
:104040005C09A0915D09B0915E0964968CAF9DAF4B
:10405000AEAFBFAF64972C962CAD3DAD4EAD5FAD0E
:104060002C97BC01CD010F948B266B017C01209114
:104070005F09309160094091610950916209689629
:104080002CAF3DAF4EAF5FAF689760962CAD3DADA6
:104090004EAD5FAD609768966CAD7DAD8EAD9FAD5A
:1040A00068970F948B264B015C018091660A909172
:1040B000670AA091680AB091690AA0968CAF9DAF7B
:1040C000AEAFBFAFA0979C01AD0160916309709145
:1040D000640980916509909166090F948B266CAFF5
:1040E0007DAF8EAF9FAFA701960168A979A98AA974
:1040F0009BA90F9474222B013C01A50194016CA98A
:104100007DA98EA99FA90F9474229B01AC01C301C4
:10411000B2010F948C262B013C01A501940168A9E2
:1041200079A98AA99BA90F9474224B015C01A7016C
:1041300096016CA97DA98EA99FA90F9474229B0159
:10414000AC01C501B4010F948B26A30192010F9419
:10415000FF266B017C0120E030E0A9010F940F22C3
:1041600087FF0AC02BED3FE049EC50E4C701B601E0
:104170000F948C266B017C0192E02916310451F4D6
:104180002BED3FE049EC50E4C701B6010F948B26BC
:104190006B017C0120E030E0A901C701B6010F945A
:1041A0000F22811126C064962CAD3DAD4EAD5FADA2
:1041B000649768AD79AD8AAD9BAD0F940F228111E4
:1041C00018C068962CAD3DAD4EAD5FAD6897289692
:1041D0006CAD7DAD8EAD9FAD28970F940F228111F0
:1041E00008C07BEDC72E7FE0D72E79ECE72E70E478
:1041F000F72EA70196016C966CAD7DAD8EAD9FAD8F
:104200006C970F9474229B01AC010F9474224B01A4
:104210005C012CAD3DAD4EAD5FADCA01B9010F944F
:1042200074229B01AC01C501B4010F948C260F943C
:10423000F7284B015C012FE632E143E85AE30F9483
:104240000F2287FD27C2C501B4010F9401280F94E6
:10425000D52726967FAF6EAF2697DB01AB2B31F4C7
:10426000E1E0F0E02696FFAFEEAF269740906A0AB5
:1042700050906B0A60906C0A70906D0A26962EAD75
:104280003FAD2697B90180E090E00F9413224B01D7
:104290005C019B01AC01C701B6010F94682768AFB0
:1042A00079AF8AAF9BAFA50194016CAD7DAD8EADAA
:1042B0009FAD0F9468276C966CAF7DAF8EAF9FAFAC
:1042C0006C97A301920160916709709168098091D0
:1042D000690990916A090F948B26A50194010F94A6
:1042E0006827A4966CAF7DAF8EAF9FAFA49728AD23
:1042F00039AD4AAD5BADCA01B9010F94742220E01B
:1043000030E040E05FE30F9474229B01AC0160E079
:1043100070E080E89FE30F948B2664966CAF7DAFCE
:104320008EAF9FAF6497A0968CAD9DADAEADBFAD87
:10433000A09789879A87AB87BC874D865E866F86F4
:10434000788A6091360270913702072E000C880B34
:10435000990B0F9415222091270230912802409149
:10436000290250912A020F9474222AE037ED43E289
:104370005CE30F9474226CA77DA78EA79FA70E9471
:10438000A16B9B01AC0128533F4F4F4F5F4F689685
:104390002CAF3DAF4EAF5FAF689748A859A86AA849
:1043A0007BA822242394312C39E13CAF26964EADD4
:1043B0005FAD26974215530509F432C10F949C074F
:1043C0000E94A16BDC01CB0168962CAD3DAD4EADDA
:1043D0005FAD6897821B930BA40BB50BB7FD11C0A3
:1043E0000E94A16B9B01AC0128533F4F4F4F5F4F81
:1043F00068962CAF3DAF4EAF5FAF689780E00E94EC
:10440000EACF3CAD31503CAF332309F441C02CA975
:104410003DA94EA95FA964966CAD7DAD8EAD9FADF3
:1044200064970F9474226B017C019201A30168AD23
:1044300079AD8AAD9BAD0F947422A70196010F94BC
:104440008C266B017C019201A30164966CAD7DAD5D
:104450008EAD9FAD64970F9474224B015C012CA923
:104460003DA94EA95FA968AD79AD8AAD9BAD0F940A
:1044700074229B01AC01C501B4010F948B262B0162
:104480003C01C601D7018CAB9DABAEABBFAB51C0FD
:10449000B10180E090E00F94132228AD39AD4AAD10
:1044A0005BAD0F9474224B015C010F9465276B0187
:1044B0007C01C501B4010F94ED284B015C01A701FB
:1044C000960168A979A98AA99BA90F9474222B0146
:1044D0003C0124962CAD3DAD4EAD5FAD2497C5019A
:1044E000B4010F947422A30192010F948C262B0126
:1044F0003C01A501940168A979A98AA99BA90F94F7
:1045000074224B015C0124962CAD3DAD4EAD5FADE8
:104510002497C701B6010F9474229B01AC01C50119
:10452000B4010F948B266CAB7DAB8EAB9FAB49E196
:104530004CAF9201A3012C966CAD7DAD8EAD9FADBD
:104540002C970F948C2669837A838B839C832CA968
:104550003DA94EA95FA960966CAD7DAD8EAD9FADB6
:1045600060970F948C266D837E838F8398876C96DB
:104570002CAD3DAD4EAD5FAD6C9769857A858B8571
:104580009C850F948C2669877A878B879C87A49655
:104590002CAD3DAD4EAD5FADA4976D857E858F850D
:1045A00098890F948C266D877E878F87988B809152
:1045B0002B02882321F0CE0101960E94A8678981F1
:1045C0009A81AB81BC8188A399A3AAA3BBA38D8147
:1045D0009E81AF81B8858CA39DA3AEA3BFA389851F
:1045E0009A85AB85BC8588A799A7AAA7BBA7CE014A
:1045F00080960E949E3CE12C8E01045D1F4F9E011F
:10460000235F3F4FAE01485D5F4FBE016C5D7F4F42
:10461000CE0180960E94DD8D5FEF251A350AC6CE49
:1046200080915B0990915C09A0915D09B0915E0950
:1046300088A399A3AAA3BBA380915F099091600965
:10464000A0916109B09162098CA39DA3AEA3BFA301
:104650008091630990916409A0916509B091660900
:1046600088A799A7AAA7BBA7CE0180960E949E3CC7
:10467000E12C8E01045D1F4F27E639E0AE01485D55
:104680005F4FBE016C5D7F4FCE0180960E94DD8D35
:104690000E94B03C0E94BA3C0C9457320E94E43C09
:1046A000F80184918F010F5F1F4F8111F7CFEDE467
:1046B000F2E084918F010F5F1F4F882311F40C9457
:1046C00057320E94E43CF801F4CF80E50E94A73BFA
:1046D000882329F00E94053B6B017C0103C0C12C9B
:1046E000D12C760183E50E94A73B882361F00E94CC
:1046F000453B20E030E04AE754E40F9474220F94E5
:10470000D5276B017C010F94AB0B80913D02811189
:1047100005C060E083E692E00E94D4710E94BA3C3A
:1047200080915C0D90915D0DA0915E0DB0915F0D3B
:10473000C80ED91EEA1EFB1E0E94A16BDC01CB0134
:104740008C199D09AE09BF09B7FD02C00C94573200
:1047500080E00E94EACFF0CF0E9413A381110C9455
:10476000573280E090E0A0E8B0E489839A83AB837D
:10477000BC8380E090E0A0E0B0E48D839E83AF83B3
:10478000B88780E090E0A0EAB1E489879A87AB8798
:10479000BC8780E50E94A73B882319F00E94153B47
:1047A00001C060E068A3BE016F5F7F4FCE018096BD
:1047B0000F9485040C94573280E00E9447510C946A
:1047C0005732C0905E0AD0905F0AE090600AF09085
:1047D000610A88E50E94A73B811109C020E030E012
:1047E00040EF51E4C701B6010F948B2602C00E942E
:1047F000453B68A379A38AA39BA3C090620AD0908B
:10480000630AE090640AF090650A89E50E94A73B7C
:10481000811108C020E030E0A901C701B6010F9462
:104820008C2602C00E94453B6B017C0169837A8320
:104830008B839C8388A099A0AAA0BBA02FE632E11D
:1048400043E85AEBC501B4010F94B22887FF02C0B8
:104850000C94573221E230E041E953E4C501B40140
:104860000F940F22181614F40C9457322FE632E1ED
:1048700043E85AEBC701B6010F94B22887FF02C084
:104880000C94573221E230E04BE953E4C701B60102
:104890000F940F22181614F40C9457320C945F32B4
:1048A00081E08093BA030C9457320F94AB0B46E926
:1048B000242E42E0342E5EE5E52E5AE0F52E00E08F
:1048C000D12C10E0D1018D911D010E94A73B8823BE
:1048D00059F10E94453B2B013C01F70120813181B8
:1048E000428153810F948B264B015C012DEB37E302
:1048F00046E855EB0F94B22887FD0AC02DEB37E34D
:1049000046E855E3C501B4010F940F22181664F46C
:10491000133011F401E002C0DD24D394D7014D928D
:104920005D926D927C9213971F5FB4E0EB0EF11CC9
:10493000143041F6DD2019F00E94BE3A03C0011187
:104940000E94D5A20E9445AF0C9457328091D00CA2
:104950009091D10C8537910509F459C70CF0C8C066
:104960008D34910509F403C40CF056C089319105CA
:1049700009F4E0C21CF58431910509F4C6C17CF448
:104980008131910509F448C22CF4029708F4C0C1A2
:104990000C945732429709F411C60C945732863161
:1049A000910509F491C20CF48BC28731910509F489
:1049B00091C2489709F4A4C20C9457328F319105E3
:1049C00009F465C394F48B31910509F4CFC20CF45A
:1049D000BFC28C31910509F406C34E9711F00C94B7
:1049E00057320E947AF80C9457328A32910509F4B2
:1049F0007AC32CF4809709F400C30C9457328B349B
:104A0000910509F4B0C38C34910511F00C94573220
:104A10000E94B1A30C9457328A36910509F4E9C477
:104A2000D4F58435910509F4C9C5E4F481359105BF
:104A300009F4A7C54CF48E34910511F00C9457324B
:104A40000E944FF60C9457328235910509F4B3C594
:104A50008335910511F00C94573281E08093B903AE
:104A60000C9457328C35910509F4F3C534F485352F
:104A7000910509F4D5C50C9457328836910509F48F
:104A80007AC38936910511F00C9457321092DE09E1
:104A9000E2E5F3E056C48F36910509F4BFC384F410
:104AA0008C36910509F42DC40CF4C8C48D369105DB
:104AB00009F47FC48E36910509F49DC30C945732D6
:104AC0008237910509F44DC64CF48037910511F0F9
:104AD0000C9457328DE393E00E94E9688337910587
:104AE00009F410C18437910509F4BAC40C94573203
:104AF0008D3D910511F40C94532F0CF068C0843A4D
:104B0000910509F46FC77CF58D37910509F4C0C490
:104B1000ACF48737910509F4C1C60CF480C6883718
:104B2000910509F4BEC68937910511F00C945732EE
:104B30001092860E1092850E0C9457328139910591
:104B400009F4B5C634F48C38910509F4DEC30C942D
:104B500057328B39910509F405C4833A910509F45C
:104B60001EC70C9457328B3C910511F40C94DA2D2E
:104B7000DCF48E3B910509F420C434F4893A9105A4
:104B800009F453C70C945732883C910509F4ADC71A
:104B9000893C910511F00C94573276E9E72E72E0CA
:104BA000F72E01EB1DE0EDC78D3C910511F40C943F
:104BB0005F2E14F40C94F52D833D910509F49EC0ED
:104BC0008C3D910511F40C94462F0C945732823988
:104BD000E1E09E0711F40C94E8300CF041C08E32F5
:104BE00021E0920711F40C949130DCF4823241E020
:104BF000940711F40C94BF2F3CF4823E910511F4FC
:104C00000C94962F0C9457328C32A1E09A0711F431
:104C10000C94CA2F8D32914011F40C94F32F0C9404
:104C200057328336E1E09E0709F464C04CF48F32BA
:104C3000914011F00C9457320E949EAA0C94573266
:104C4000803931E0930711F40C94E53081399140BB
:104C500011F00C94573281E00E9499420C94573223
:104C6000863F51E0950711F40C947031FCF4843ABE
:104C7000B1E09B0711F40C94EC304CF48A3991406C
:104C800011F00C9457320E9464AA0C945732843F5E
:104C900021E0920711F40C946D31853F914011F0A1
:104CA0000C9457320E94B1BE0C945732833543E0C6
:104CB0009407E1F07CF4873FA1E09A0711F40C948B
:104CC00073318835924011F00C9457320E941CA920
:104CD0000C945732803AE3E09E0709F4CBC1873E3B
:104CE000934011F40C94EA310C945732E7E6F9E35F
:104CF0000C948231ECEBFFE20C94D731E7E6F9E358
:104D00000C94CA2EE3E4F4E031C5ECECF2E098C078
:104D1000A090CE0CB090CF0C80E50E94A73B8823DA
:104D200059F00E94053B6B017C0111E0672B682B59
:104D3000692B31F410E004C010E0C12CD12C7601B5
:104D400083E50E94A73B8823F1F00E94453B20E0C9
:104D500030E04AE754E40F9474220F94D5276B0196
:104D60007C01111112C0672B682B692B71F4A114FF
:104D7000B10459F0D5018C91882339F061E0C50167
:104D80000E940E9607C0112391F360E08CE992E037
:104D90000E94D47181E080930E0A0F94AB0B0E94A5
:104DA000BA3CC114D104E104F104E1F080915C0D3E
:104DB00090915D0DA0915E0DB0915F0DC80ED91E52
:104DC000EA1EFB1E0E94A16BDC01CB018C199D0920
:104DD000AE09BF09B7FF1CC080910E0A81110C9467
:104DE000B63216C080910E0A882321F080E00E941E
:104DF000EACFF8CF8091A50E9091A60E60E00297C1
:104E000019F481E992E002C08FE792E00E94D47128
:104E100010920E0A0C94573260E08EEA92E00E94E3
:104E2000D4718A985F989FB7F894809108018E7F1B
:104E3000809308019FBF1298479810980C9457329E
:104E400084918F010F5F1F4F882321F00E94E43C63
:104E5000F801F6CF1092801110927F1181E09FE04F
:104E60000E94C8E68BE1E1E0FFE0DE0115960190CB
:104E70000D928A95E1F78091FF0E9091000F9C832F
:104E80008B8388EE92E09A83898340E050E0BE01F4
:104E90006F5F7F4F8DE593E00E942ACCCE01019693
:104EA0000E94E168EDEBF2E084918F010F5F1F4FEC
:104EB000882311F40C9457320E94E43CF801F4CF9B
:104EC0000E944BCF0C9457321092D00E1092D10EFC
:104ED0000C945732E091CE0CF091CF0C8081882356
:104EE00029F0803209F410823196F8CF40E061E079
:104EF0008091CE0C9091CF0C0E94ADA60C945732AD
:104F000019821A821B821C8218A219A21AA21BA241
:104F100080916B09882341F040E0BE016F5F7F4FB5
:104F2000CE0180960E947B660E9418CC0E9479A2D6
:104F30000C9457321092D00E0E94B1A38DED92E0E6
:104F40009093F80D8093F70D0E945F3A0C945732BE
:104F50008091D10E882311F40C94573283E50E947E
:104F6000A73B81110C94BB320C9457328091D10E27
:104F7000811103C0E4EFF2E02AC0E2EEF2E0849196
:104F80008F010F5F1F4F882321F00E94E43CF8013E
:104F9000F6CF609176117091771180917811909190
:104FA00079114AE00E94903F8FE20E94E43C6091B8
:104FB00072117091731180917411909175114AE082
:104FC0000E94903F8AE00E94E43C0C945732849106
:104FD0008F010F5F1F4F882311F40C9457320E94EA
:104FE000E43CF801F4CF40E060E08091CE0C909179
:104FF000CF0C0E94ADA60C9457328091D00E811137
:105000000F94AB0B8091D10E882311F40C9457327E
:1050100080E50E94A73B882319F00E94363B03C01D
:1050200080E50E94783B182F482F61E08091CE0CDC
:105030009091CF0C0E94ADA683E50E94A73B8823E8
:1050400081F00E94153BAB01BC0140937611509357
:105050007711609378117093791185EC90E10E943B
:105060006CFD0E9418CC11110C9457320E9479A249
:105070000C9457328091CE0C9091CF0C21E020936C
:10508000CF0E40E060E00E94ADA60C94573285EA56
:105090009EE00F94B10A68A379A38AA39BA3BE01E3
:1050A0006F5F7F4FCE0180960E94B33B60E0CE01E0
:1050B00001960E940E96E7E6F9E384918F010F5F57
:1050C0001F4F882321F00E94E43CF801F6CFBE0177
:1050D0006F5F7F4F85E093E00E9438638AE00E9413
:1050E000E43C0C94573283E50E94A73B882311F4DB
:1050F0000C9457320E94253BE82E80E50E94A73B86
:10510000882341F00E94153B8B0177FF02C00C946D
:10511000573202C00DE010E0802FECEEF5E09491E4
:10512000891303C0ECEBFFE20AC03196B6E0EA3126
:10513000FB07A9F70C94CC320E94E43CF80184915F
:105140008F010F5F1F4F8111F7CFE2E1F3E08491F0
:105150008F010F5F1F4F882311F40C9457320E9468
:10516000E43CF801F4CF0E9479A20C9457320E94DB
:10517000CAFF0C9457321092DE098091950A83FF82
:1051800002C00C94573283E50E94A73B882379F133
:105190000E94453B0F94D0277093D2116093D11198
:1051A00080E00E944C7E0E94453B20918309309113
:1051B000840940918509509186090F94B2281816E8
:1051C000B4F48CE193E09F938F938091DE0990E09B
:1051D00001969F938F9381E293E09F938F931F9209
:1051E0000E949CFF0FB6F894DEBF0FBECDBF0E9499
:1051F000C4630C9457328EE40E94A73B882311F4B9
:105200000C9457320E94153B6093800A7093810A78
:105210008093820A9093830A0C94573283E50E940C
:10522000783B882359F083E50E94A73B882319F037
:105230000E94253B01C080E08093950AE7E6F9E3F0
:1052400084918F010F5F1F4F811103C0E6E3F3E0EC
:1052500004C00E94E43CF801F3CF84918F010F5FFA
:105260001F4F882321F00E94E43CF801F6CF809183
:10527000950A811103C0E2E3F3E034C038E2C32EA3
:1052800033E0D32EE12CF12C20E08091950A90E0C0
:105290000E2C02C0959587950A94E2F780FF17C0FF
:1052A000BB24B394B20E222319F08CE20E94E43C9A
:1052B000F60185919491FC0184918F010F5F1F4F3E
:1052C000882321F00E94E43CF801F6CF2B2DFFEF5C
:1052D000EF1AFF0A32E0C30ED11C45E0E416F104D8
:1052E000A1F60AC084918F010F5F1F4F882321F020
:1052F0000E94E43CF801F6CF8AE00E94E43C0C9462
:105300005732109281020C9457328091950A83FF94
:1053100002C00C94573283E50E94A73B882311F406
:105320000C9457320E94453B0F94D0276338710587
:1053300014F062E870E07093D6116093D5110C946C
:10534000573284918F010F5F1F4F882321F00E94F5
:10535000E43CF801F6CF0E94E17B8AE00E94E43C45
:105360000C94B93483E50E94A73B882311F40C9474
:1053700057320E94253B182F8D3308F01CE3109301
:10538000590D0E94A16B6B017C01212F30E0A8EE2A
:10539000B3E00F947C26C60ED71EE81EF91EC092FD
:1053A000550DD092560DE092570DF092580D0C9479
:1053B00057320E9492F40C9457328091950A83FFE1
:1053C00002C00C94573260E08DE693E00E94D471E5
:1053D00083E50E94A73B21968FAF219781110C9402
:1053E000E23282E50E94A73B81110C94E2320C94D8
:1053F000573280E50E94A73B811108C083E50E94D7
:10540000A73B811109C03FEF20E00AC00E94253B65
:1054100081110C945732F2CF0E94153B362F272F63
:10542000832F922F8F3F910519F010F08FEF90E0AE
:105430009093D4118093D3110C94573280E50E943D
:10544000A73B811106C01092D4111092D3110C9475
:1054500057320E94153B672B11F00C945732F3CF53
:1054600083E50E94A73B882329F00E94153B362F35
:10547000272F02C03FEF20E0832F922F8F3F91050F
:1054800019F010F08FEF90E0809322020C945732C5
:105490008CE40E94783B882319F00E94453B04C0AD
:1054A00060E070E080E890EC6CA77DA78EA79FA7D6
:1054B00080E090E0A0E8B0E489839A83AB83BC836A
:1054C00080E090E0A0E0B0E48D839E83AF83B88756
:1054D00080E090E0A0EAB1E489879A87AB87BC8737
:1054E00088E50E94A73B882379F088E50E94A73BC6
:1054F000882319F00E94453B03C060E070E0CB01B7
:1055000069837A838B839C8389E50E94A73B8823E8
:1055100079F089E50E94A73B882319F00E94453B5A
:1055200003C060E070E0CB016D837E838F8398873A
:105530008AE50E94A73B882379F08AE50E94A73B71
:10554000882319F00E94453B03C060E070E0CB0166
:1055500069877A878B879C8718A219A21AA21BA237
:1055600080916B098111A3C700E020E0AE01405E8D
:105570005F4FBE016F5F7F4FCE018C960E948C659E
:1055800096C70E94987E0F94AB0B0E94FCD310929A
:10559000D4111092D31168EE73E080E090E00E9485
:1055A000C4700F94AB0B0E94403A60E080E893E037
:1055B0000E94D4717CC71092B90379C783E50E9419
:1055C000A73B882399F00E94453B20E030E04AE762
:1055D00054E40F9474220F94D5276093380270938B
:1055E000390280933A0290933B0261C788E50E949A
:1055F000783B81110C942C3489E50E94783B811111
:105600000C942C348AE50E94783B81110C942C3444
:1056100085E40E94783B81110C942C340C94523414
:1056200083E50E94783B882309F441C70E94453BEB
:1056300020E030E04AE754E40F9474220F94D52719
:105640006093600D7093610D8093620D9093630D74
:105650002EC796E9C92E92E0D92E2EE6E22E2AE038
:10566000F22E10E0D6018D916D010E94783B8823C7
:1056700009F46DC0133009F063C00E94453B4B0133
:105680005C0120E030E040EA51E40F940F2287FFF4
:105690004EC0A501940160917A0A70917B0A8091B5
:1056A0007C0A90917D0A0F9468272B013C019B0195
:1056B000AC016091D90D7091DA0D8091DB0D909164
:1056C000DC0D0F9474226093D90D7093DA0D8093E2
:1056D000DB0D9093DC0DA30192016091AD0D7091F3
:1056E000AE0D8091AF0D9091B00D0F947422609328
:1056F000AD0D7093AE0D8093AF0D9093B00D609192
:1057000061047091620480916304909164040F9429
:105710001322A30192010F9474220F94D527609352
:105720006104709362048093630490936404809294
:105730007A0A90927B0AA0927C0AB0927D0A07C0F6
:105740000E94453BF70160837183828393831F5FCF
:10575000F4E0EF0EF11C143009F084CF0E944F6486
:10576000A6C60F94AB0B0E9445AFA1C684918F01D2
:105770000F5F1F4F882321F00E94E43CF801F6CF11
:1057800060E083E394E00E940EAF61E08CE294E07D
:105790000E940EAF61E081E294E00E940EAF61E0F2
:1057A00081E194E00E940EAF60E088E094E00E9406
:1057B0000EAF61E08EEF93E00E940EAF61E084EFE8
:1057C00093E00E940EAF61E08CEE93E00E940EAF7A
:1057D00061E08EED93E00E940EAF60E080ED93E01B
:1057E0000E940EAF60E081EC93E00E940EAF60E09B
:1057F00083EB93E00E940EAF60E08DE993E00E949E
:105800000EAF60E08CE893E00E940EAF50C660E0FF
:105810008091CE0C9091CF0C0E940E9648C685E4E4
:105820000E94A73B882319F00E94363B03C085E401
:105830000E94783B882361F0E7E6F9E384918F01C9
:105840000F5F1F4F882321F00E94E43CF801F6CF40
:1058500081E40E94A73B882319F00E94363B03C0D5
:1058600081E40E94783B882361F0E4E0F5E08491D4
:105870008F010F5F1F4F882321F00E94E43CF80145
:10588000F6CF0091CE0C1091CF0CD8018D918D01E7
:10589000882309F431CD0E94E43CF7CF0F941C0615
:1058A00006C681E08093860E8093850E00C683E550
:1058B0000E94A73B882319F00E94153B02C060E0BC
:1058C00070E08B01112702301105D4F0ECEBFFE200
:1058D00084918F010F5F1F4F811103C0E8E0F5E055
:1058E00004C00E94E43CF801F3CF84918F010F5F64
:1058F0001F4F882309F4DBC50E94E43CF801F5CF73
:1059000088E40E94A73B8823A9F00E94153B6639D2
:1059100071053CF06530B1E07B072CF064E071E08C
:1059200002C066E970E0F801EE0FFF1FEE5CF54F74
:105930007183608386E40E94A73B8823A9F00E94BC
:10594000153BF801EE0FFF1FEA5CF54F7183608392
:105950006F3F710519F014F06FEF70E077FF02C030
:1059600060E070E07183608382E40E94A73B88233B
:1059700009F49DC50E94153B6530710534F064370C
:1059800071052CF063E770E002C065E070E0000F85
:10599000111FF801E25DF54F7183608388C583E5CF
:1059A0000E94A73B882341F00E94153B8B01633086
:1059B00071050CF07CC502C000E010E080E50E949B
:1059C000A73B882319F00E94153B01C060E0F80155
:1059D000E359F84F60830230110509F068C50E9451
:1059E000EAA865C583E50E94A73B882341F00E9491
:1059F000153B8B01603171050CF059C502C000E008
:105A000010E00E94EAA8B801660F771F600F711FAF
:105A1000FB01E758F84F80917607808380917707E4
:105A2000818380917807828342C583E50E94A73BEA
:105A3000811103C0C12CD12C08C083E50E94A73B73
:105A40008823C1F30E94153B6B018DE60E94A73BA2
:105A5000882349F08DE60E94A73B882341F00E94ED
:105A6000153B7B0106C0EAE0EE2EF12C02C0E12CD2
:105A7000F12C8DE40E94A73B882349F08DE40E941D
:105A8000A73B882339F00E94153B8B0105C00AE52E
:105A900010E002C000E010E08BE40E94A73B8823E6
:105AA00019F00E94453B04C060E070E080E89FE38D
:105AB000E3E0CE16D10408F0FAC4F5E6EF16F104DF
:105AC00008F0F5C40536110508F0F1C4C0926C0762
:105AD000E0920D0200930C0260932C0270932D0251
